:100000000C949D030C94C5030C94C5030C94C50378
:100010000C94C5030C94C5030C94C5030C94C50340
:100020000C94C5030C94C5030C945C160C94CB166D
:100030000C94C5030C94C5030C94C5030C94C50320
:100040000C94C5030C94C5030C94C5030C94C50310
:100050000C94C5030C94C5030C94C5030C94FD18B3
:100060000C94C5030C94C5030C94C5030C94C503F0
:100070000C94C5030C94C5030C94C5030C94C503E0
:100080000C94C5030C94C5030C94C5030C94C503D0
:100090000C94C5030C94C5030C94C5030C94C503C0
:1000A0000C94C5030C94C5030C94C5030208D4D268
:1000B00005087F7F3E1C084120FE0105F1F1F1118A
:1000C000D1B1D111F1515151515151515151515160
:1000D0005151510000FF00007F7F09090F06007F8A
:1000E0007F19396F46007F7F4949414100266F499A
:1000F000497B3200266F49497B32FF0000FFFFFF3A
:10010000FEFFFEFF0279CD95A5CD790111111101F8
:10011000F9F901010000FF00007F7F09090F0600C7
:100120007F7F40404040007C7E0B0B7E7C00070FB1
:1001300078780F0700000000000000FF00001F3F5C
:100140003F33333333333E36363E363E363E363635
:100150003E36363E360000FF00003E7F41417F3E86
:10016000007F7F0E1C7F7F00000000000000000069
:100170000000000000000000000000003F40504070
:1001800040407846414159594141414159594141C5
:1001900041414141414100007F000001017F7F0159
:1001A00001007C7E0B0B7E7C007F7F09090F06001F
:1001B0007F7F49494141000000000000000000002D
:1001C00000003E5B4F5B3E3E6B4F6B3E1C3E7C3EF9
:1001D0001C183C7E3C181C577D571C1C5E7F5E1C07
:1001E00000183C1800FFE7C3E7FF0018241800FFC1
:1001F000E7DBE7FF30483A060E2629792926407FBB
:10020000050507407F05253F5A3CE73C5A7F3E1CC9
:100210001C08081C1C3E7F14227F22145F5F005FB5
:100220005F06097F017F006689956A606060606093
:1002300094A2FFA29408047E040810207E201008D7
:10024000082A1C08081C2A08081E101010100C1E72
:100250000C1E0C30383E3830060E3E0E06000000F4
:10026000000000005F00000007000700147F147FFB
:1002700014242A7F2A122313086462364956205018
:100280000008070300001C2241000041221C002A34
:100290001C7F1C2A08083E080800807030000808EF
:1002A000080808000060600020100804023E514960
:1002B000453E00427F400072494949462141494D2F
:1002C000331814127F1027454545393C4A494931B6
:1002D00041211109073649494936464949291E0035
:1002E00000140000004034000000081422411414DF
:1002F000141414004122140802015909063E415DFC
:10030000594E7C1211127C7F494949363E41414188
:10031000227F4141413E7F494949417F0909090105
:100320003E414151737F0808087F00417F41002012
:1003300040413F017F081422417F404040407F02FE
:100340001C027F7F0408107F3E4141413E7F090926
:1003500009063E4151215E7F09192946264949492E
:100360003203017F01033F4040403F1F2040201FD8
:100370003F4038403F63140814630304780403616A
:1003800059494D43007F414141020408102000417A
:1003900041417F0402010204404040404000030705
:1003A000080020545478407F28444438384444445A
:1003B00028384444287F385454541800087E0902D1
:1003C00018A4A49C787F0804047800447D40002091
:1003D00040403D007F1028440000417F40007C04E5
:1003E0007804787C080404783844444438FC1824A1
:1003F000241818242418FC7C080404084854545475
:100400002404043F44243C4040207C1C2040201C09
:100410003C4030403C44281028444C9090907C4410
:1004200064544C440008364100000077000000414D
:1004300036080002010204023C2623263C1EA1A12C
:1004400061123A4040207A38545455592155557913
:1004500041215454784121555478402054557940D5
:100460000C1E527212395555555939545454593934
:10047000555454580000457C410002457D4200011E
:10048000457C40F0292429F0F0282528F07C54559B
:1004900045002054547C547C0A097F49324949491B
:1004A000323248484832324A4848303A4141217A4B
:1004B0003A42402078009DA0A07D39444444393D13
:1004C0004040403D3C24FF2424487E4943662B2F76
:1004D000FC2F2BFF0929F620C0887E0903205454E5
:1004E00079410000447D413048484A32384040223A
:1004F0007A007A0A0A727D0D19317D2629292F2862
:10050000262929292630484D40203808080808089F
:10051000080808382F10C8ACBA2F102834FA000089
:100520007B000008142A142222142A1408950022A1
:100530000095AA005500AAAA55AA55AA000000FFD6
:1005400000101010FF00141414FF001010FF00FF23
:100550001010F010F0141414FC001414F700FF0035
:1005600000FF00FF1414F404FC141417101F1010E3
:100570001F101F1414141F00101010F000000000B2
:100580001F101010101F10101010F010000000FFAE
:10059000101010101010101010FF10000000FF14A9
:1005A0000000FF00FF00001F10170000FC04F414FF
:1005B000141710171414F404F40000FF00F71414B7
:1005C0001414141414F700F7141414171410101F33
:1005D000101F141414F4141010F010F000001F1069
:1005E0001F0000001F14000000FC140000F010F0B9
:1005F0001010FF10FF141414FF141010101F00002F
:100600000000F010FFFFFFFFFFF0F0F0F0F0FFFF41
:10061000FF0000000000FFFF0F0F0F0F0F384444D2
:1006200038447C2A2A3E147E02020606027E027E9E
:100630000263554941633844443C04407E201E20F7
:1006400006027E020299A5E7A5991C2A492A1C4C9C
:100650007201724C304A4D4D303048784830BC629F
:100660005A463D3E494949007E0101017E2A2A2A17
:100670002A2A44445F444440514A444040444A5139
:10068000400000FF0103E080FF000008086B6B08DA
:100690003612362436060F090F060000181800001F
:1006A000001010003040FF0101001F01011E001961
:1006B0001D1712003C3C3C3C0000000000D5F0E35C
:1006C000E3A1C8817FD9F1AF2000080B000202022C
:1006D00000000904000001020200000524001001CE
:1006E0000524010101042402060524060001070572
:1006F000810310004009040100020A000000070500
:1007000002024000000705830240000004030904C0
:1007100012010002EF020140412336800001010274
:10072000030141726475696E6F204C4C430038625E
:1007300069744341444500007A1911241FBECFEF6C
:10074000DAE0DEBFCDBF13E0A0E0B1E0E8EDFAE310
:1007500002C005900D92A83BB107D9F728E0A8EB9D
:10076000B3E001C01D92AD3AB207E1F713E0CDE965
:10077000D3E004C02197FE010E94571DCC39D10758
:10078000C9F70E94C3190C946A1D0C940000480F0D
:10079000592F511D1416150684F5803891056CF5F6
:1007A00097FF02C090E080E04138510514F040E826
:1007B00050E0481BFB01E770FF2721E001C0220F3A
:1007C000EA95EAF777FF02C0695F7F4FFB0133E0EC
:1007D000F595E7953A95E1F7F695FE2FEE27F79513
:1007E000E795E80FF91FEF50FC4F415030F0819131
:1007F000DF011197822B8C93F8CF0895FC01809133
:10080000EE03882311F13FB7F89482E08093E9006A
:100810002091F200822F90E01816190614F481E05E
:1008200090E0882339F0289844E64093ED03409106
:10083000F1004083222339F02091F200211103C0FE
:100840002BE62093E8003FBF08958FEF9FEF0895B8
:100850002FB7F89483E08093E9009091E800892F06
:10086000807295FF04C09091F20080E4891B2FBF35
:1008700008958091E50381110DC082E08093E1032A
:1008800084E08093E2031092E4031092E30381E09A
:100890008093E50381EE93E00895CF93DF931F9259
:1008A000CDB7DEB76983DC01ED91FC910280F38165
:1008B000E02D41E050E0BE016F5F7F4F09950F9042
:1008C000DF91CF91089583E08093E9008091F20059
:1008D000882319F08AE38093E80008950E94280491
:1008E00090E00895CF93DF931F92CDB7DEB7FC0160
:1008F0008485958597FD08C02FEF3FEF35872487C6
:100900000F90DF91CF910895CE0101960E94FE03D2
:10091000019719F4898190E0F3CF8FEF9FEFF0CF2B
:100920000F931F93CF93DF931F92CDB7DEB78C0148
:10093000FC018485958597FF0BC0CE0101960E942E
:10094000FE03019771F4898190E0F801958784870F
:10095000F801848595850F90DF91CF911F910F91BC
:1009600008958FEF9FEFF1CFFC018485958597FD6A
:100970000BC09FB7F89482E08093E9008091F20069
:100980009FBF90E0019608959FB7F89482E080930E
:10099000E9008091F2009FBF90E008954091DB0351
:1009A0005091DC032091D9033091DA0342175307A9
:1009B000B4F49091E8009570E1F39091E80092FD15
:1009C00019C08093F1008091DB039091DC030196C4
:1009D0008F739927892B19F48EEF8093E80080910B
:1009E000DB039091DC0301969093DC038093DB039F
:1009F00081E0089580E00895DF92EF92FF920F93D7
:100A00001F93CF93DF93D82E8A01EB017B01E40E75
:100A1000F51ECE15DF0559F0D7FE12C0FE018491F8
:100A20000E94CE0421968111F4CF0FEF1FEFC80171
:100A3000DF91CF911F910F91FF90EF90DF9008957C
:100A40008881EECF0F931F93CF93DF931F92CDB783
:100A5000DEB782E0898342E450E06AEC76E080E829
:100A60000E94FC040E943904DC0112960D911C9135
:100A70000115110589F0D801ED91FC910280F381F7
:100A8000E02DBE016F5F7F4FC801099597FD04C03F
:100A9000F80100851185ECCF89810F90DF91CF910E
:100AA0001F910F910895615030F02091F100FC01E9
:100AB00020830196F8CF289884E68093ED0308956B
:100AC000AF92BF92CF92DF92EF92FF920F931F935C
:100AD000CF93DF936C017B018B01040F151FEB019A
:100AE0005E01AE18BF08C017D10759F06991D60151
:100AF000ED91FC910190F081E02DC6010995892BC3
:100B000079F7C501DF91CF911F910F91FF90EF9081
:100B1000DF90CF90BF90AF9008950DB407FEFDCF4A
:100B20008EB55A9A08950E949905982F0E949F05A4
:100B300008950DB407FEFDCF8EB51EBC08950C942C
:100B40008D050E949905982F0E94990508958EBDE4
:100B500000000DB407FEFDCF8EB50895CF92DF9251
:100B6000EF926B01E82E0090EF03D00C0090F003A1
:100B7000E01C5A9883E00E94A7058E2D0E94A705CD
:100B80008D2D0E94A7058C2D0E94A7051EBCEF90FD
:100B9000DF90CF9008954F925F926F928F929F92C5
:100BA000AF92BF92CF92DF92EF920F931F93CF93AA
:100BB000DF934C015B012901642E842FB9010E944F
:100BC000AE050E94A105182FEC010E949305282F65
:100BD000DE01A80DB91D1A161B060CF0C1C080E875
:100BE000881691040CF0BCC0422F592FFA01EA0D6F
:100BF000FB1D1E161F060CF0B3C080E4A816B1043E
:100C00000CF0AEC097FE0BC06627772768197909EC
:100C1000312F361BA038B10554F030E808C030E859
:100C20003819A138B1050CF4312F70E060E0B7FE3F
:100C3000A6C0413451051CF02A2D2770205C6B01A1
:100C4000072E000CEE0804FF05C0CC0CDD1CEE1CCA
:100C5000CC0FDD1F84E0480E511C611CC40CD51C58
:100C6000E61CD50183E0B595A7958A95E1F711E0DB
:100C7000A1FC14E0A0FC110FA2FC1295FD01F69559
:100C8000FE2FEE27F795E795E80DF91DE60FF71F04
:100C9000EF50FC4F5A9883E08EBD8091EF03909106
:100CA000F0038D0D9E1D0DB407FEFDCF9EBD0DB44E
:100CB00007FEFDCF8EBD0DB407FEFDCFCEBCCC0E22
:100CC000DD1EE11C0DB407FEFDCF1EBC000FA730DA
:100CD00014F4089410FD88940795B2E041FFB8E041
:100CE00042FFB29540FFBB0FBA9528300CF0BFEF22
:100CF000932F0EB41EBC03FD00948B2F00FD802D9E
:100D000002FD0024019EB00104FB36F4C895C8958D
:100D100011240EB41EBC00FD082E019EA03034F03C
:100D2000808101FF6827602168276083E058FF4FBA
:100D300007FF06C0808101FF782771217827708323
:100D40001124EF57F0409A95A1F6E058FF4FE31BAE
:100D5000F1092850A3950DB45A9A12160CF49ACFA3
:100D6000DF91CF911F910F91EF90DF90CF90BF90C7
:100D7000AF909F908F906F905F904F900895E13467
:100D8000F1050CF45CCF20E42A1959CFFC010E9434
:100D90005D07319728F068517C4F8F4F9F4FF9CFF7
:100DA000AB01FC010E945D07641775078E079F0762
:100DB000C8F308958F929F92AF92BF92CF92DF9225
:100DC000EF92FF920F931F93CF93DF936C017B0100
:100DD0008A0180910E01882309F45AC08091EE03A4
:100DE000882309F455C08091E00380FF05C08091FD
:100DF000E00082608093E000E801B12C8AEFA82E29
:100E000093E0892E2AE3922E209711F4BB20C9F19A
:100E10000E942804811108C0AA94AA20C9F181E087
:100E200090E00E94C606F0CF8C171D0611F00CF062
:100E30008C2F9FB7F8948092E9002091E80025FD5F
:100E400002C09FBFE1CF282F30E0C21BD30BF701B8
:100E5000815020F041914093F100FACFE20EF31E51
:100E6000BB2021F09092E800B12CEBCF8091E800FC
:100E700085FDE7CF9092E800BB24B394209709F357
:100E8000F3CF5D9884E68093DF03101611063CF0E3
:100E900081E090E0F6019383828310E000E0C801D6
:100EA000DF91CF911F910F91FF90EF90DF90CF9046
:100EB000BF90AF909F908F900895A7ECB3E02FB7AD
:100EC000F8947D918D919C9166B52FBFA89B05C02C
:100ED0006F3F18F47F5F8F4F9F4F22E0660F771FA1
:100EE000881F991F2A95D1F708952F923F924F920C
:100EF0005F926F927F928F929F92AF92BF92CF92AA
:100F0000DF92EF92FF920F931F93CF93DF9300D066
:100F100000D01F92CDB7DEB75D834C835901EC2D15
:100F2000452BD1F1402F50E0162F17701983A3E005
:100F300075956795AA95E1F7262FDA01A80FB91FD5
:100F4000A038B10514F000E8081BA1E0FE2DF770F1
:100F500009F4A0E0E694E694E694EA0EDB01AE0D17
:100F6000B11D19971CF0F8E0EF2EE61ADB01B695DB
:100F7000BA2FAA27B795A7958A0F9B1F3981A32F50
:100F8000330FBB0BE33009F435C1F0F4E13009F461
:100F9000EEC0E23009F453C00F900F900F900F9005
:100FA0000F90DF91CF911F910F91FF90EF90DF9005
:100FB000CF90BF90AF909F908F907F906F905F90F9
:100FC0004F903F902F900895EA3F09F48CC0EB3F7B
:100FD00019F7E22FE61BEE15F8F6FC01EF50FC4F77
:100FE0006F01B12CA12CEC81FD81A01608F0ACC0E2
:100FF000EA0DFB1D8490912C0A2E02C0880C991CCE
:101000000A94E2F727FD07C0F6017080F82DF095ED
:101010007F22F6017082F980FF2051F0273044F4DE
:10102000F601E058FF4F892C8094908098209082A0
:101030001FEFA11AB10A3FEFC31AD30AD4CF662417
:101040006A94712C098002C0660C771C0A94E2F73E
:1010500060947094572CE22FE61BEE1508F09CCF9D
:10106000FC01EF50FC4F6F01B12CA12CEC81FD81F4
:10107000A01650F5EA0DFB1DE491F0E01F010A2EC9
:1010800002C0220C331C0A94E2F727FD05C0F601CA
:101090009080962092289082F980FF2071F027306E
:1010A00064F4460110E8810E911CF4014080E42DA7
:1010B000E5214E2E4328F4014082FFEFAF1ABF0A0C
:1010C0001FEFC11AD10AD2CFE40FF51FFD83EC83C5
:1010D00080589F4F2F5FBFCFE40FF51FFD83EC8338
:1010E00080589F4F2F5FE22FE61BEE1508F054CF7C
:1010F000FC01EF50FC4F6F01B12CA12CEC81FD8164
:10110000A01650F7EA0DFB1D8490912C0A2E02C008
:10111000880C991C0A94E2F727FD04C0F601708040
:1011200078287082F980FF2041F0273034F4F601EE
:10113000E058FF4F8080982890821FEFA11AB10AD3
:101140003FEFC31AD30ADACFE40FF51FFD83EC8318
:1011500080589F4F2F5F3DCFEC81FD81E40FF51F3D
:10116000FD83EC83A40EB51E80589F4F2F5FE22FA6
:10117000E61BEE1508F010CFFC01EF50FC4F6F019D
:10118000912C812C801640F7F501E80DF91D649033
:10119000712C0A2E02C0660C771C0A94E2F7609448
:1011A0007094EC81FD81E80DF91D4490512C0A2EBC
:1011B00002C0440C551C0A94E2F727FD08C0F60152
:1011C0003080E32DE6213E2E3428F6013082F9806E
:1011D000FF2049F027303CF4F601E058FF4F6080D3
:1011E0007620752870821FEF811A910A3FEFC31A8B
:1011F000D30AC8CFE02FF0E08F509C4FA0E8B0E0BA
:101200006D01CE1ADF0A4E1B5F0B4A01880C991C38
:10121000E1E0F0E05F01098002C0AA0CBB1C0A9467
:10122000E2F7B02E402F5E2DEC81FD81DC018601BE
:101230009401F980CF93DF93ED01EF96EF9622961C
:1012400065908590FF2059F06A9C30018A9C40018E
:1012500067302CF4C8809094C920C728C9926623AF
:101260003AF0CC908094C820C628CD920C943909CD
:1012700011964A9529F75A9551F04B2D63951124F3
:10128000E20FF11DA00FB11DC00FD11DD9CFDF910D
:10129000CF91112481CE90E00C94C6068FB1809539
:1012A000827F669B88601C9B84601F9B8160089581
:1012B0009091D603982329F49091D703982381E045
:1012C00009F480E00895CF93C82F0E944E09982F0B
:1012D0009C2381E09C1380E0CF9108958038910594
:1012E000B8F460347105A0F490E121E061FD24E0E0
:1012F00060FD220F62FD2295687F969FD001112428
:10130000A80FAF50BC4F0C90022A40FF02260C924F
:1013100008956F927F928F929F92AF92BF92CF92D9
:10132000DF92EF92FF920F931F93CF93DF936D3075
:1013300089F0C090C103D090C2036A30E1F41092EA
:10134000C4031092C30388E0C80ED11CD092C2031C
:10135000C092C10381E090E0DF91CF911F910F9186
:10136000FF90EF90DF90CF90BF90AF909F908F90C5
:101370007F906F90089560900101E090C303F0901A
:10138000C403E5E06E9FE0011124C354DE4F570112
:1013900000E010E0053029F0CE010196FE01149125
:1013A000EC01460188E0782E412F417010FD1BC0F2
:1013B000662021F0B401C5010E946E0916957A9449
:1013C000FFEF8F1A9F0A7110EFCF0F5F8FEFA81AF0
:1013D000B80A0630F1F6E6E0EE0EF11CF092C40316
:1013E000E092C303B7CF462DE5CF682F89EA98E096
:1013F0000C948909DF92EF92FF920F931F93CF9382
:10140000DF937C01D22E8B01040F111DEB0177FFBE
:1014100002C0D0E0C0E0C8010134110514F080E43E
:1014200090E0C817D9073CF44D2DBE01C7010E94BA
:101430006E092196F0CFDF91CF911F910F91FF9010
:10144000EF90DF900895089590E080E00895CF92A6
:10145000EF920F93CF938091D60380959091D7030D
:10146000892319F082E08093D803E7EBF0E0049140
:10147000E8EBF0E0E49022E0C22E30E020E049EB1F
:1014800050E061E170E080E290E00E947507809199
:10149000CB039091CC0360E370E00E94431D883140
:1014A000B8F4C1E18C3008F0CEE1E0EBF0E004915B
:1014B000E1EBF0E0E49092E0C92E30E020E042EB76
:1014C00050E069E170E08BE590E00E94750704C090
:1014D000CFE1843208F0C0E26C2F70E041E084E399
:1014E00090E00E946E09C0FD12C0ECEAF0E00491A9
:1014F000EDEAF0E0E49082E0C82E30E020E04EEA31
:1015000050E06CE170E08DE290E00E947507CF91B1
:101510000F91EF90CF900895AF92BF92CF92DF924C
:10152000EF92FF920F931F93CF93DF9310920101DD
:1015300084EAE82E88E0F82EC3E2D0E092E3C92ED8
:10154000D12C8E01035011095E0188E0A80EB11C58
:101550000A151B0551F021E04BE060E370E0C80183
:101560000E94FA090F5F1F4FF3CFD093C403C093BB
:10157000C303D092C203C092C103F70181917F01DE
:101580000E94F5092D96C436D105D9F681E08093E5
:101590000101DF91CF911F910F91FF90EF90DF90AC
:1015A000CF90BF90AF9008958F929F92AF92BF92CD
:1015B0000F931F93CF93DF93CDB7DEB7A1970FB6ED
:1015C000F894DEBF0FBECDBF19A2423008F44AE046
:1015D0008E010F5D1F4F842E912CB12CA12CA501E3
:1015E00094010E94121DE62FB901CA01EA3044F5A8
:1015F000E05DD801EE938D01232B242B252B79F769
:1016000090E080E0109769F0FD0101900020E9F77B
:101610003197AF014A1B5B0BBD0189EA98E00E943C
:101620006005A1960FB6F894DEBF0FBECDBFDF9167
:10163000CF911F910F91BF90AF909F908F90089581
:10164000E95CD7CF41E050E065EB73E089EA98E0D0
:101650000C9460050F931F93CF93DF938C01EB01E4
:101660000E94B81C8883C80101960E94B81C898317
:10167000CE01DF91CF911F910F910895FF920F93AB
:101680001F93CF93DF93EC018B01FB01F0800E944D
:10169000B81CF81621F06F2DCE010E94D21CF80163
:1016A000F1802196CE010E94B81CF81621F06F2D12
:1016B000CE010E94D21CC801DF91CF911F910F91E2
:1016C000FF900895CF93DF9300D000D0CDB7DEB761
:1016D0001A8219821C821B82BE016F5F7F4F8111AB
:1016E0001EC083E590E00E942A0B89819A810196B1
:1016F0009A838983BE016F5F7F4F83E590E00E94EC
:101700003E0BBE016D5F7F4F85E590E00E943E0B72
:101710000F900F900F900F90DF91CF9108958BE570
:1017200090E00E942A0B89819A8101969A8389838D
:10173000BE016F5F7F4F8BE590E00E943E0BBE01C4
:101740006D5F7F4F8DE590E0E1CF2F923F924F92FA
:101750005F926F927F928F929F92AF92BF92CF9241
:10176000DF92EF92FF920F931F93CF93DF93CDB74A
:10177000DEB7C555D1090FB6F894DEBF0FBECDBF99
:101780008091410890914208892B09F069C08091AD
:10179000C00325E0829FC0011124092E000CAA0B72
:1017A00020910001BC018A2F21114DC0645F724E4F
:1017B0008F4F0E94AE050E94990524968FAF249703
:1017C0000E94990521968FAF21970E949905259631
:1017D0008FAF25970E94990526968FAF26970E9476
:1017E000990523968FAF23970E948D0584E00E9470
:1017F0006309882309F444C08091A3088F5F809314
:10180000A308803419F485E08093A2088091A2088F
:10181000823009F495C0B8F5813009F449C080E2FE
:101820000E945809882309F43FC180914508882304
:1018300009F431C1833008F037C180914408811127
:101840002EC188E02FC1765E8F4F0E94AE050E94A8
:10185000990524968FAF24970E9499058195B2CF60
:1018600021961FAE219723961FAE239726961FAE73
:10187000269725961FAE259724961FAE2497B6CFA0
:101880001092A308C3CF843009F4F5C0853039F62F
:1018900088E00E945809811105C084E00E9458091F
:1018A000882389F080919F08882309F4B0C0EEC096
:1018B00088E00E945809811104C084E00E94580900
:1018C00081111092A2088091A008912C25E0822E0F
:1018D000BE016F5F7F4F7DAF6CAFA82E880FBB0836
:1018E000C501029662969FAF8EAF6297D50112979F
:1018F0006496BFAFAEAF64972196EFAD21970E2EE1
:10190000000CFF0B6696FFAFEEAF66979E012A5F55
:101910003F4F3FAF2EAF90919F088091A20899153D
:1019200008F4B4C4ACADBDADE82D1D92EA95E9F75D
:10193000813009F45FC3823009F4EFC320E065C34E
:1019400088E00E945809811106C084E00E9458096D
:10195000882309F4B8CF109143081BAE1AAE1EAA13
:101960001DAA1C8E1B8E1A821982BE01665C7F4FD7
:10197000111151C081E590E00E942A0BBE016B5C01
:101980007F4F83E590E00E942A0BBE01655E7F4F8A
:1019900085E590E00E942A0BBE016F5F7F4F87E5CF
:1019A00090E00E942A0B8AAD9BAD01969BAF8AAF57
:1019B0008DA99EA901969EAB8DAB8B8D9C8D0196BA
:1019C0009C8F8B8F29813A812817390710F49A83CD
:1019D0008983BE01665C7F4F111135C081E590E0BF
:1019E0000E943E0BBE016B5C7F4F83E590E00E943E
:1019F0003E0BBE01655E7F4F85E590E00E943E0B89
:101A0000BE016F5F7F4F87E590E00E943E0B86E04E
:101A10008093D80358CF89E590E00E942A0BBE013D
:101A20006B5C7F4F8BE590E00E942A0BBE01655EE8
:101A30007F4F8DE590E00E942A0BBE016F5F7F4FC4
:101A40008FE590E0AECF89E590E00E943E0BBE01AD
:101A50006B5C7F4F8BE590E00E943E0BBE01655EA4
:101A60007F4F8DE590E00E943E0BBE016F5F7F4F80
:101A70008FE590E0CACF88E00E945809811106C026
:101A800084E00E945809882309F41DCF80914308FF
:101A90000E94620BBCCF80914408882311F08150D2
:101AA00001C089E08093440880E40E94580988239B
:101AB00071F080914508882309F48EC0833038F492
:101AC00080914408883008F48CC01092440880E863
:101AD0000E946309882359F080914708833038F0C9
:101AE0008091A00887FF03C08F5F8093A00880E8E3
:101AF0000E945809882359F080914708811107C036
:101B000080914508811171C082E08093470880E18F
:101B10000E94630910919F08882389F080914708EB
:101B2000833068F08091A008E12FF0E0EA5BFD4F80
:101B3000908198170CF070C081508093A00880E1CC
:101B40000E945809882361F080914708811108C0DC
:101B500080914508882309F463C0813009F46FC07F
:101B600084E00E945809882399F0E0919E08EE23B2
:101B700079F0E150E0939E0835E0139FC0011124F5
:101B80008D5B974FE80FF92FF11D80E2878F15AE1F
:101B900088E00E945809882309F495CEA091440852
:101BA000A1114FC080914508823009F0FBC1E0913E
:101BB0009E08EE2309F487CE8FEF8E0F80939E0848
:101BC00045E0149FF0011124ED5BF74FE80FF11D84
:101BD00080E2878F15AE77CE80914408893008F077
:101BE00074CF8F5F8093440872CF813091F0823040
:101BF00009F08DCF80914408893039F481E08093D9
:101C0000450888E08093440882CF81E080934508AE
:101C10007ECF109245087BCF81E0809347088FCF1D
:101C200080914408893039F481E08093450888E048
:101C30008093440895CF81E08093450891CF82E05E
:101C4000FBCFA83009F0AEC190914508923009F061
:101C5000A9C1612F70E055E0159FF0011124DF014B
:101C6000AE59B74F4D018E010B5C1F4F7E01BAE399
:101C7000EB0EF11C9E012F5F3F4F44EA58E0D80164
:101C8000580191E0F401D1904F01DD92FA01D19019
:101C9000AF01F901D1929F01F401958FAE15BF05F7
:101CA00089F7AE014F5F5F4F6801F60121916F0127
:101CB000FA019191AF01291380E0CA16DB06A9F75A
:101CC0008823C9F085E0869FF001879FF00D1124DD
:101CD000ED5BF74F82E085AF86AF87AFDF01A05C99
:101CE000BF4F8C93EF5BFF4F80838093A20883E10B
:101CF0008093A108E8CD5DA880914308882339F13D
:101D0000813009F450C03E0150E2650E711C0E9402
:101D100099057E016BE1E60EF11C47010E949905D1
:101D2000D4018D934D016A167B06C1F78B8D581631
:101D300038F0851161C09C8D8EA9891708F05CC0B0
:101D40000E948D0581E08093A2088FE0D1CF252DE0
:101D50002154330BC9012AE1289FB001299F700D3E
:101D600011248EA98154990B680F791F072E000C3E
:101D7000880B645F7F4E8F4F660F771F881F0E940E
:101D8000AE050E94A1057C010E948D0586E08E9D16
:101D9000B0018F9D700D112480E06855754D8F4FF7
:101DA0000E94AE05B0CF452D4154550B2AE1249F2A
:101DB000B001259F700D11248EA98154990B680FD5
:101DC000791F072E000C880B60557D4E8F4F660FD4
:101DD000771F881F0E94AE050E94A1057C010E940A
:101DE0008D0586E08E9DB0018F9D700D112480E0E1
:101DF000615F78498F4FD4CFD801F70191918D91D0
:101E0000981385CF8E169F06C9F780919F08B5E07D
:101E10008B9FC0011124AC014D5B574FFE013196E1
:101E2000380121E030E0A2E09A2EB0E28B2ED301FF
:101E30007D913D01619176130BC0BA01620F731F52
:101E4000DB01DC969C92BF0161507109DB018C9231
:101E50002F5F3F4F2630310551F774EA472E78E067
:101E6000572E4C01B5E28B1A9108E3E06E2EF0E29A
:101E70007F2EF80161918F01D2012D912D01022E4B
:101E8000000C330B62171306E9F0DE01119630E007
:101E900020E0BA01620F731FFB0165AD623009F4E7
:101EA00069C0F70170816C91761364C0D201A80DEE
:101EB000B91D6C9261E070E06C0F7D1F260F371F1B
:101EC000D9017C92BFEFEB1AFB0AC016D10689F646
:101ED00030E020E064E0F62E8A01020F131FF801C3
:101EE00065AD6130A9F4F501E20FF31F608170E088
:101EF000E4EAF8E0A1910A2E000CBB0B6A177B07FD
:101F000019F4D801DD96FC92B8E0E93AFB0791F7A5
:101F10002F5F3F4F25303105F9F630E020E0FA0120
:101F2000E20FF31F65AD613041F4F501E20FF31FDD
:101F3000E081F0E0E95FF74F60832F5F3F4F25308E
:101F4000310569F7FC01E058F74F85E091E02191F8
:101F5000243019F4DF0111979C938150C1F783E07D
:101F60008093A20880919F08853061F484E080937B
:101F7000A208A9CC2F5F3F4F11962530310509F0FB
:101F800088CFA0CF10929E0891E0980F90939F0861
:101F9000923008F498CC93EF899F802D1124809380
:101FA000A00891CC80919E08853008F08CCC25E06B
:101FB000129FF0011124ED5BF74FE80FF11D209106
:101FC00045084AE0249F90011124285D3D4FA20F4F
:101FD000B32FB11D9C919F5B978F8F5F80939E085D
:101FE000853009F070CC88E08093440882E08093CB
:101FF000450869CC9911A2CCE091A108EE2309F41F
:102000009DCCF0E0E45BFE4F2081FDE09F9EC0018F
:10201000112462964EAD5FAD6297480F591F2E9600
:102020005FAF4EAF2E97BC016A0D7B1D2A967FAF26
:102030006EAF2A970D966496AEADBFAD6497A80FAC
:10204000B91F6096BFAFAEAF6097989CC0011124D6
:10205000FC01ED5BF74F2F01AE014F5F5F4F2896FC
:102060005FAF4EAF289766962EAC3FAC6697220EB8
:10207000311C27FD3A942896AEADBFAD28970D913F
:102080002896BFAFAEAF2897002E000C110B2E96EE
:102090006EAC7FAC2E97600E711E7101B3E2EB0E39
:1020A000F11CF20185AD823009F46EC0833009F471
:1020B00090C08111DAC081E080930101F092C403E5
:1020C000E092C3037092C2036092C103878D0E94A5
:1020D000F5096096EEADFFAD60970E0F1F1F41E052
:1020E000B801C10181960E946E0941E0B801C701A3
:1020F0000E946E0941E0B801C10185960E946E09F7
:1021000041E0B801C10187960E946E0941E0B80123
:10211000C10189960E946E0993C099110FCCE0917C
:10212000A1088FEF8E0F8E3030F4AE2FB0E0A45B9D
:10213000BE4F8C9189838EEF8E0F8E3030F4AE2F90
:10214000B0E0A55BBE4F8C918A838DEF8E0F8E30F1
:1021500030F4AE2FB0E0A65BBE4F8C918B838CEF3A
:102160008E0F8E3030F4AE2FB0E0A75BBE4F8C9157
:102170008C838BEF8E0F8E3008F0E0CBF0E0E85BC5
:10218000FE4F80818D83DACB109201012A962EAD0D
:102190003FAD2A97020F131F610130E2C30ED11C1D
:1021A000A101455D5F4F2C965FAF4EAF2C972C96EB
:1021B0006EAD7FAD2C976C157D0509F459C021E0FB
:1021C0004BE0B801C6010E94FA097FEFC71AD70A8F
:1021D000EECF81E080930101F092C403E092C3034B
:1021E0007092C2036092C103878D0E94F5092A96FE
:1021F0002EAD3FAD2A97020F131F710130E2E30E9F
:10220000F11C0034110528F44BE0B801C7010E940D
:10221000C703B801665F7F4F6034710520F44BE05F
:10222000C7010E94C70321E04BE0B801C7010E942B
:10223000FA0921E04BE0B801C1018A960E94FA092F
:10224000BFEF4B1A5B0AEDE02E0E311C2EAD3FADF9
:1022500028964EAD5FAD28972417350709F00BCFB0
:1022600081E080930101939456CB81E0809301013A
:10227000F092C403E092C3037092C2036092C10360
:10228000D2015F968C910E94F509DACF823009F471
:10229000C9C108F0EDC0813009F4ADC11091460804
:1022A00021968FAD21978D5E9AE1E3E1F1E0DE01A9
:1022B0005B9601900D929A95E1F79AE1EDE2F1E0DB
:1022C000DE01119601900D929A95E1F7BE01655ECF
:1022D0007F4F22967FAF6EAF2297DE0111961D01D0
:1022E00093E4492E98E0592E712C612C812E912C6B
:1022F000E82EF12C2296EEADFFAD22978191229629
:10230000FFAFEEAF22978150D1019D911D012FEFBC
:10231000290FB9E08B9FC02C112434E0923008F4CF
:1023200030E0C30E933009F0ACC19EEFEAE02E9F7F
:10233000A02C1124B12CFFEFAF1ABF0AA80CB91CB6
:10234000C90ECE0CDF2CD11C9091440889139BC17F
:1023500080914508281397C180914708811193C146
:10236000F301E055FE4F20813181428101E0B5014A
:10237000C6010E94CB0580914508209144083AE0AF
:10238000389FC0011124885D9D4F820F911DDC0193
:10239000EC91F0E0ED5BF74F858100E124E635E05C
:1023A00040E0813019F420E935E040E0B501C60194
:1023B0000E94CB05FFEF4F1A5F0A23E0620E711CEB
:1023C0003EE46316710409F095CF640145E1C40E43
:1023D000D11C8091440801E0811107C0809145081B
:1023E00022E235E040E0823019F020E732E040E0C0
:1023F000B601C7010E94CB05C701865B9F4F2091A4
:10240000440801E0283009F04DC1209145082230F0
:1024100009F048C12EE335E040E0B6010E94CB054B
:10242000103428F44BE5B401C7010E94C70321E032
:1024300042E384010F5F1F4FB801C70101970E945B
:10244000FA0921E042E3B801C701855A9F4F0E9473
:10245000FA0980914708823008F428C1843060F579
:10246000B4016450710901E02FE231E140E025C17F
:10247000843009F4E7C010E000E0853009F00ECFA9
:1024800020E040E263E270E0C8010E94FA090F5FB9
:102490001F4F00381105A1F78091430800E081111A
:1024A000E8C028E838E040E065E270E08DE190E0C7
:1024B0000E94CB050E948C0A80914708813009F464
:1024C00000C1823099F4809146088F5F809346085E
:1024D00090919F08923028F09091A0089F5F909370
:1024E000A008803419F483E080934708E090410805
:1024F000F0904208E114F10409F041C0109100018C
:1025000023965FAD2397513009F4EFC0523009F4A0
:10251000FBC024966FAD2497C62ED12C25967FAD97
:102520002597713081F4C6014097112321F088E886
:1025300090E08C199D0900E02AEE39E140E064E268
:1025400070E00E94CB0526968FAD2697282F30E0AD
:10255000F901EE0FFF1FE20FF31FEC5FFD4F20812B
:1025600031814281C6014097112321F088E890E033
:102570008C199D0900E06DE270E00E94CB0520916E
:10258000A1088091CB039091CC03222329F080FDF8
:1025900003C021502093A10863E070E00E94431D16
:1025A000892B79F4E114F10409F4B9C091E0E91A36
:1025B000F108F0924208E0924108EF2811F41092DD
:1025C000C003CB5ADF4F0FB6F894DEBF0FBECDBFAE
:1025D000DF91CF911F910F91FF90EF90DF90CF90FF
:1025E000BF90AF909F908F907F906F905F904F9033
:1025F0003F902F9008958091430800E081110AC018
:1026000020E236E040E060E370E087E190E00E9485
:10261000CB0552CF28EC36E040E060E370E085E087
:1026200090E0F5CF8091430800E02CEB35E040E0EE
:10263000882319F02EEE35E040E060E370E089E297
:1026400090E0E5CF0E948C0A8091430800E0811160
:1026500008C028EB37E040E065E270E082E190E0FE
:10266000D6CF28E138E040E065E270E08AE090E013
:10267000CECF22ED38E040E065E270E080E290E00D
:1026800017CF90E053CEF2018581F301811107C08D
:10269000E45AFE4F20813181428101E087CEE0552E
:1026A000FE4FF8CF2CE832E040E0B7CEB4016450E2
:1026B000710901E026E231E140E0C7018A5A9F4FEB
:1026C000A6CF8091460881508093460890919F083C
:1026D000923028F09091A00891509093A0088132F8
:1026E00009F004CF1092470801CF8AE690E011115B
:1026F00002C082E090E000E02AEB39E140E06CE1CA
:1027000070E00E94CB0505CF8AE690E0111102C06F
:1027100082E090E000E022ED39E140E0F0CF8091EE
:10272000C0038F5F8093C0038C3908F44ACF0E94A6
:10273000601C2EE531E040E050E00E94E01C6E5C41
:102740007F4F8F4F9F4F70934208609341080E94C4
:10275000601C22E030E040E050E00E94E01C60930A
:1027600000012FCF0F93CF93DF9300D000D000D084
:10277000CDB7DEB788E00E945809882319F084E0BD
:102780008093D80380E20E945809882359F08091F1
:102790004308813039F41092430860E080E590E00E
:1027A0000E94C01C80E40E945809882361F0809137
:1027B0004308811108C081E08093430861E080E50F
:1027C00090E00E94C01C84E00E945809882319F000
:1027D00086E08093D803DE01119686E0FD01119218
:1027E0008A95E9F78091D3038111B5C0E091D403B4
:1027F000EA0FFB2FF11D8091D50381508083E98181
:102800008E2F90E0FC01EE0FFF1FE80FF91FE65A34
:10281000FC4F20813181428101E06BE070E08EE06D
:1028200090E00E94CB05EA818E2F90E0FC01EE0F34
:10283000FF1FE80FF91FEC5DFC4F208131814281C1
:102840006BE070E08FE190E00E94CB05EB818E2F72
:1028500090E0FC01EE0FFF1FE80FF91FE251FD4F62
:102860002081318142816BE070E080E390E00E9442
:10287000CB05EC818E2F90E0FC01EE0FFF1FE80FDF
:10288000F91FE854FD4F2081318142816BE070E0F7
:1028900081E490E00E94CB05ED818E2F90E0FC0159
:1028A000EE0FFF1FE80FF91FEE57FD4F208131811A
:1028B00042816BE070E082E590E00E94CB05EE8102
:1028C0008E2F90E0FC01EE0FFF1FE80FF91FE45B75
:1028D000FD4F2081318142816BE070E083E690E022
:1028E0000E94CB0528E331E140E06DE170E090E02B
:1028F00080E00E94CB0580914308882309F43EC004
:102900008AE490E001E02EE131E140E06FE270E026
:102910000E94CB058091D503882399F08150809344
:10292000D50381110EC00E94601C28EA30E040E00F
:1029300050E00E94E01C605E7F4F8F4F9F4F60937E
:10294000D30326960FB6F894DEBF0FBECDBFDF913E
:10295000CF910F91089581508093D30381114FCF70
:102960000E94601C26E030E040E050E00E94E01C45
:102970006093D40383E18093D50341CF80E190E05D
:10298000C1CFEF92FF920F931F93CF93DF9300D0AD
:10299000CDB7DEB7F82E162F042F8EE490E00E94FC
:1029A000B81CE82E8FE490E00E94B81C1A821982AD
:1029B000F11006C09CE4E91203C0853409F450C04C
:1029C0006CE48EE490E00E94C01C65E48FE490E02B
:1029D0000E94C01C612F80E590E00E94C01CFF2077
:1029E00009F44FC0111148C0BE016F5F7F4F81E5F0
:1029F00090E00E943E0BBE016F5F7F4F83E590E049
:102A00000E943E0BBE016F5F7F4F85E590E00E9404
:102A10003E0BBE016F5F7F4F87E590E00E943E0B4B
:102A2000FF2039F1113029F5BE016F5F7F4F89E535
:102A300090E00E943E0BBE016F5F7F4F8BE590E000
:102A40000E943E0BBE016F5F7F4F8DE590E00E94BC
:102A50003E0BBE016F5F7F4F8FE590E00E943E0B03
:102A60000F900F90DF91CF911F910F91FF90EF90FA
:102A700008950111D9CFF4CF0111B6CF113081F7EC
:102A8000D3CF0111B1CFECCFEF92FF920F93CF9341
:102A9000DF93CDB7DEB728970FB6F894DEBF0FBE31
:102AA000CDBF1A8219821C821B821E821D8218864B
:102AB0001F8280914308BE016F5F7F4F8111E1C08B
:102AC00081E590E00E942A0BBE016D5F7F4F83E598
:102AD00090E00E942A0BBE016B5F7F4F85E590E07E
:102AE0000E942A0BBE01695F7F4F87E590E00E943C
:102AF0002A0B6B817C81F12CE12C6115710559F059
:102B000029813A8144E6429FC001439F900D1124E0
:102B10000E94431D7B0188E00E945809882319F018
:102B200082E08093D80384E00E946309882309F43B
:102B3000C0C08091A3088F5F8093A308803431F4D4
:102B400040E06091430881E00E94C11480914308F5
:102B500000E026E139E040E0882319F02AE13DE079
:102B600040E070E060E090E080E00E94CB058FE103
:102B700090E09093C4038093C3038EE090E0909321
:102B8000C2038093C1038B819C818436910510F42C
:102B90000E94220B8B819C810A9710F40E94220BC9
:102BA0006B817C8190E080E04AE00E94D40A84E559
:102BB00090E09093C4038093C3038EE090E09093E1
:102BC000C2038093C10384E6E816F10440F40E9436
:102BD000220B8AE0E816F10410F40E94220BB701E0
:102BE00090E080E04AE00E94D40A8FE190E0909368
:102BF000C4038093C30387E290E09093C203809361
:102C0000C1038D819E818436910510F40E94220BB0
:102C10008D819E810A9710F40E94220B6D817E8126
:102C200090E080E04AE00E94D40A84E590E090932E
:102C3000C4038093C30387E290E09093C203809320
:102C4000C1038F8198858436910510F40E94220B70
:102C50008F8198850A9710F40E94220B6F817885E6
:102C600090E080E04AE00E94D40A28960FB6F894DB
:102C7000DEBF0FBECDBFDF91CF910F91FF90EF90E0
:102C8000089589E590E00E942A0BBE016D5F7F4F99
:102C90008BE590E00E942A0BBE016B5F7F4F8DE5B4
:102CA00090E00E942A0BBE01695F7F4F8FE590E0A4
:102CB0001ECF1092A3084ACF1F920F920FB60F9209
:102CC00011248F939F938091E1009091E100937F75
:102CD0009093E10083FF0FC01092E90091E0909380
:102CE000EB001092EC0092E39093ED001092EE0353
:102CF00098E09093F00082FF22C093E09093E90067
:102D00009091F200992319F09AE39093E800909142
:102D1000DF03992341F09091DF0391509093DF03FB
:102D2000911101C05D9A9091ED03992341F090912A
:102D3000ED0391509093ED03911101C0289A84FF07
:102D400018C08091E2008E7E81608093E2008091C5
:102D5000E1008F7E8093E1008091E0038E7E8061B0
:102D60008093E0039F918F910F900FBE0F901F9063
:102D7000189580FFF7CF8091E2008E7E806180936E
:102D8000E2008091E1008E7E8093E1008091E0037B
:102D90008E7E8160E5CF1F920F920FB60F921124A5
:102DA000CF92DF92EF92FF920F931F932F933F9357
:102DB0004F935F936F937F938F939F93AF93BF9343
:102DC000EF93FF93CF93DF93CDB7DEB76C97DEBF62
:102DD000CDBF1092E9008091E80083FF25C068E034
:102DE000CE0145960E94530582EF8093E8008D89BD
:102DF00087FF39C09091E80090FFFCCF982F907624
:102E000009F034C19E894F89588D2F89F88C911112
:102E100031C0803861F58091DE038093F10010921B
:102E2000F1008EEF8093E8006C960FB6F894DEBF49
:102E30000FBECDBFDF91CF91FF91EF91BF91AF91C9
:102E40009F918F917F916F915F914F913F912F91C2
:102E50001F910F91FF90EF90DF90CF900F900FBEDA
:102E60000F901F9018959EEF9093E800C7CF109297
:102E7000F100D5CF913059F48111D3CF41305105B4
:102E800081F68091DE038D7F8093DE03CACF93307D
:102E900049F48111C6CF4130510519F68091DE0306
:102EA0008260F2CF953041F48091E80080FFFCCF42
:102EB00020682093E300B5CF963009F0A9C00B8DB0
:102EC0001C8D22E01092E9001092DC031092DB03CB
:102ED000F2122EC01092DA031092D9030E9422053A
:102EE0001F8299E09983FA8291E09E8390EA988705
:102EF0009AEF99872091DB033091DC03275F3F4FE6
:102F00003C832B838D831092E9001092DC03109296
:102F1000DB031093DA030093D90349E050E0BE01CC
:102F20006F5F7F4F80E00E94FC040E94220579CFF2
:102F30001093DA030093D9030E943904DC0112963E
:102F40000D911C910115110509F451C1D801ED91A4
:102F5000FC910480F581E02DBE016B5E7F4FC801BE
:102F60000995009709F03EC1F80100851185EACF67
:102F7000F3E0FF120EC08F89882309F440C082302D
:102F800061F440E868E08EE297E00E944719811101
:102F900048CF81E28093EB0047CF813029F440E8AD
:102FA0006BE082E297E0F1CF833099F70E94390419
:102FB000DC011296ED90FC908E010F5F1F4F6801AF
:102FC000E114F10479F0D701ED91FC910680F781CD
:102FD000E02DB801C7010995080F111DF701E08424
:102FE000F184EECFD8011C92F60101900020E9F7A0
:102FF0003197BF016C197D0940E0C601C6CF6CE076
:1030000077E0FB01449150E080E80E94FC0409CF86
:10301000973009F4BECF983021F481E08093F1001D
:1030200000CF993009F0FDCE837009F0B2CFE1E90D
:10303000F3E081E031E096E32191222371F0809367
:10304000E9003093EB00DF0111972C912093EC0005
:103050009093ED008F5F873079F78EE78093EA00D9
:103060001092EA008F898093EE03DBCE8B8D9C8DCE
:103070001092E9001092DC031092DB039093DA03C4
:103080008093D903898D811192C08E899D89913A4F
:1030900049F4813209F07DCF47E050E067E071E00C
:1030A00080E0B3CF913209F074CF833269F48F8915
:1030B000988DB0E0A0E08093030190930401A09369
:1030C0000501B0930601ADCE803269F48091E8002D
:1030D00082FFFCCF67E087E091E00E9453058BEF11
:1030E0008093E8009ECE823209F09BCE8F89809338
:1030F0000E01EEEFFFE7859194918B3F9C4D51F1CE
:10310000E0E0F8E08091070190910801A0910901A9
:10311000B0910A01803B9440A105B105F1F4809182
:103120000E0180FD1AC0EE3F8AE0F80789F587E7B7
:1031300097E791838083809160008093DD0388E12D
:103140009BE00FB6F894A895809360000FBE909313
:10315000600067CEEEEFFAE0D5CF808191818737AE
:10316000974709F05ECEA8958091600088618093B2
:1031700060008091DD0380936000EE3F2AE0F2075B
:1031800089F08091FE0A9091FF0A9183808349CE55
:10319000808191818737980751F29093FF0A80933D
:1031A000FE0AC5CF1092FF0A1092FE0A3ACE0E9484
:1031B0003904DC0112960D911C910115110509F4D9
:1031C000E8CED801ED91FC910190F081E02DBE0197
:1031D0006B5E7F4FC8010995811123CEF8010085F0
:1031E0001185EBCF181619060CF41BCED2CEF1E0E8
:1031F000FF12BECE60E177E004CF0F920FB68F933F
:103200009F93EF93FF938091C6038D5F8D3708F0F6
:103210008D578093C603EFECF3E080818E4F80835F
:1032200091819F4F918382818F4F828383818F4FC2
:103230008383E7ECF3E080818F5F808381818F4F10
:10324000818382818F4F828383818F4F83838FB16C
:103250008F6066991C9B88278F3681F48091C50307
:10326000981B963068F0E0E0F8E087E78083818380
:1032700088E180936000F0936000FFCF9093C503D6
:10328000FF91EF919F918F910FBE0F901895EF9244
:10329000FF920F931F93CF93DF93F82E192FE62EF3
:1032A000042F81E0860F880F0E94CE0483E00E94E5
:1032B000CE04CF2DD12FEC0EFD2EF11CCE15DF0547
:1032C000B9F007FF13C0FE0184910E94CE04182FAD
:1032D00080E00E94CE04812321968111EFCFDF91FF
:1032E000CF911F910F91FF90EF9008958881EDCFBE
:1032F00081E0F5CFE1EFF7E01382128288EE93E0F0
:10330000A0E0B0E084839583A683B7838BE993E044
:10331000918380838FEF9FEF95878487E9EAF8E0B8
:10332000138212828DEA93E091838083E3E4F8E0D4
:1033300010821182128281E2838310929E08109281
:103340009F081092A0081092A1081092A208109253
:10335000A30885E0E7E4F1E0A4EAB8E001900D926B
:103360008A95E1F70E94601C2EE531E040E050E0D4
:103370000E94E01C6E5C7F4F8F4F9F4F70934208FE
:1033800060934108089500D01F92CDB7DEB77894BE
:1033900083E084BD83E085BD81E080936E00E1E839
:1033A000F0E083E08083E0E881E08083E1E983E08E
:1033B0008083E0E981E08083E1EC87E08083E3ECD7
:1033C00081E08083E0EC82E08083E2EC81E0808336
:1033D000EAE787E08083806880831092EE03109292
:1033E000DE031092E0038091D70081608093D700C4
:1033F00080EA8093D80089B5806189BD89B58260F3
:1034000089BD09B400FEFDCF81E090E00E94C606B0
:103410008091D8008F7C80618093D8008091E000FB
:10342000807F8093E0008091E1008E7E8093E100B8
:103430008DE08093E200559A209A80EC80937C0086
:1034400081EF85B987E684B985E38BB98FE38AB9C3
:10345000769A6E9882EF81BB10BA80E58CBD81E0D0
:103460008DBD85E00E944B09599A85E00E944B0969
:103470005C98EDEBF6E085918EBD00000DB407FE83
:10348000FDCFEA3CC1F75C9A81E88093640081E05B
:103490008093650080E80E9463098823A9F05C9806
:1034A00085EA8EBD00000DB407FEFDCF5C9A2E9814
:1034B00058982D988091640080628093640081E028
:1034C00083BF889513BEFCCF84E00E9463098823E4
:1034D00009F443C02D9884E80E9463098823D1F041
:1034E0002D9A88EC0E944B09589882E090E00E9447
:1034F000B81C8F3F29F06FEF82E090E00E94D21C51
:1035000084EF91E00E94C606589A84E80E946309FD
:103510008111FBCF84E10E9463098823D1F02D9AA9
:1035200088EC0E944B092E9882E090E00E94B81C23
:10353000882329F060E082E090E00E94D21C84EFB2
:1035400091E00E94C6062E9A84E10E9463098111CF
:10355000FBCF88EC0E944B09B7CF2D9A80E1809376
:103560000201809164008E7F8093640080917A00D4
:10357000806480937A0080917A0086FDFCCF009170
:103580007800109179000E945D07AB01BC01C80171
:10359000B0E0A0E0DC01992788278C019D01040F91
:1035A000151F261F371FC901B80120916400216033
:1035B00020936400611571058105910511F00E9449
:1035C000AF1C5B9A5B9AE4E1F0E0859194918831BD
:1035D000954909F03FC0E6E1F0E08491E7E1F0E0D1
:1035E000E491F82FF093F003E093EF035A988BEAFD
:1035F0000E94A7055A9A41E060E080E00E94C11451
:1036000080E590E00E94B81C8093430886EAC82EAB
:1036100083E1D82EE12CF12C99EA292E98E0392E5D
:1036200021E1822E2AE0922EA12CB12C30E2432EF1
:10363000512C612C712C11E000E28091CD03882384
:1036400081F01092CD0320E030E0232BB1F30E94F3
:103650000000F1CF83E29FEF9093F0038093EF039C
:10366000C5CF9091CF038091CE03292F281B822FA5
:1036700020910201821738F48F5F821720F713BF61
:10368000889513BEE0CF1093CD039093CE03EBEC5F
:10369000F3E0808191810196808391838091D703AB
:1036A0008093D6030E944E098093D703E091D803FC
:1036B000E83088F4F0E0E15AF44E0C94571D671B93
:1036C000691B7C1B8B1B8E1BB91B0E1C111C1093C2
:1036D000D8030E94270A5B98E1EFF3E080E098E0CE
:1036E00000800EBC1111012C019780FDFDCF0192CD
:1036F000B9F70DB45B9AA7CF33E03093D8030E949B
:10370000601CA30192010E94E01C605F7F4F8F4FFD
:103710009F4F6093D3030E94B213DDCF1092A20893
:103720001092A308E8E4F8E0119288E0E236F80786
:10373000D9F7E2E6F8E00083168E0183178E028344
:1037400010A2038311A2048312A2359698E0E038F8
:10375000F90789F710929E0810929F081092A0080E
:10376000E5E0E093D80380914308882329F0813075
:1037700071F10E94A50BAFCF0E94601CA5019401BE
:103780000E94E01CAB01BC0196E0862FBA010E94AA
:103790005D1D842FB9016855754D8F4F0E94AE0590
:1037A0000E949905898324EA38E03B832A830E949A
:1037B0009905EA81FB818193FB83EA832E163F06FC
:1037C000B1F70E948D05F981F130B1F6D2CF0E9498
:1037D000601CA70196010E94E01CAB01BC0196E0B1
:1037E000862FBA010E945D1D842FB901615F78495F
:1037F0008F4F0E94AE050E94990524EA38E03B8372
:103800002A830E949905EA81FB818193FB83EA83E5
:103810002E163F06B1F70E948D05ABCFF7E0F0936F
:10382000D8030E94441557CF8F929F92AF92BF92B8
:10383000CF92DF92EF92FF92CF93DF93EC016881FA
:1038400079818A819B81611571058105910521F43A
:1038500064E279ED8BE597E02DE133EF41E050E054
:103860000E94E01C49015A019B01AC01A7EAB1E4A6
:103870000E94FF1C6B017C01ACEEB4EFA50194012A
:103880000E940D1DC60ED71EE81EF91EF7FE06C0CB
:1038900081E0C81AD108E10880E8F80AC882D98214
:1038A000EA82FB82C701B6019F77DF91CF91FF903B
:1038B000EF90DF90CF90BF90AF909F908F90089542
:1038C0008F929F92AF92BF92CF92DF92EF92FF9230
:1038D00060910F017091100180911101909112017E
:1038E000611571058105910521F464E279ED8BE59F
:1038F00097E02DE133EF41E050E00E94E01C4901E8
:103900005A019B01AC01A7EAB1E40E94FF1C6B01C4
:103910007C01ACEEB4EFA50194010E940D1DC60E12
:10392000D71EE81EF91EF7FE06C081E0C81AD108AE
:10393000E10880E8F80AC0920F01D0921001E092ED
:103940001101F0921201C701B6019F77FF90EF902D
:10395000DF90CF90BF90AF909F908F90089560932D
:103960000F0170931001809311019093120108953B
:10397000F999FECF92BD81BDF89A992780B5089537
:10398000262FF999FECF92BD81BDF89A019700B418
:10399000021639F01FBA20BD0FB6F894FA9AF99AB8
:1039A0000FBE0895262FF999FECF1FBA92BD81BD93
:1039B00020BD0FB6F894FA9AF99A0FBE01960895B1
:1039C000052E97FB1EF400940E94F71C57FD07D0AC
:1039D0000E94121D07FC03D04EF40C94F71C509566
:1039E0004095309521953F4F4F4F5F4F08959095EB
:1039F0008095709561957F4F8F4F9F4F08950E94DE
:103A0000341DA59F900DB49F900DA49F800D911D16
:103A100011240895B7FF0C94FF1C0E94FF1C821B09
:103A2000930B0895A1E21A2EAA1BBB1BFD010DC02A
:103A3000AA1FBB1FEE1FFF1FA217B307E407F5075E
:103A400020F0A21BB30BE40BF50B661F771F881F3A
:103A5000991F1A9469F760957095809590959B01D0
:103A6000AC01BD01CF010895A29FB001B39FC00179
:103A7000A39F700D811D1124911DB29F700D811D9A
:103A80001124911D0895AA1BBB1B51E107C0AA1F59
:103A9000BB1FA617B70710F0A61BB70B881F991FEF
:103AA0005A95A9F780959095BC01CD010895EE0F28
:103AB000FF1F0590F491E02D0994699F9001899F63
:103AC000402D799F300D411D112497FF0895361B1D
:083AD000470B0895F894FFCFA5
:103AD800010110FFFFFFFF00E100000000000001EE
:103AE8000000000106040303040506080708090886
:103AF80007090A0104020507050203060202030377
:103B08000201020202010202020303010101010291
:103B180001010301030103202020202000010201EC
:103B280000FFFEFF0001020100FFFEFF0000001879
:103B3800000030000048000060000078000090009D
:103B480000A80000C00000D80000F0000008010034
:103B58002001003801005001006801008001009830
:103B68000100B00100C80100E00100F801001002E6
:103B7800002802004002005802007002008C020077
:103B8800B20200CA0200E20200FA02001203002A8E
:103B980003004203005A03007203008A0300A203D1
:103BA80000BA0300D20300EA03000204001A04006A
:103BB8003204004A04006204007A0400920400AA55
:103BC8000400C20400DA0400F204000A0500220519
:103BD800003E0500841800A31800C2180000190050
:103BE8001F19003E19005D19007C1900BA1900D28E
:103BF8001900E118009B1900101604111318140875
:103C08000E0F001203050607090A0BFF1A191702FF
:103C180015010D0C1BFF00001205FAEC6416008656
:103C28001600A81600CA1600B81700DA1700FC1705
:103C3800001E18004018006218004018001E1800E6
:103C4800FC1700DA1700B81700CA1600A816008675
:103C58001600DC1500FE1500201600421600EC16B2
:103C6800000E17003017005217007417009617003F
:103C78007417005217003017000E1700EC16004298
:103C88001600201600FE150054150076150098152C
:103C980000BA1500B81700DA1700FC17001E180044
:103CA8004018006218004018001E1800FC1700DABF
:103CB8001700B81700BA1500981500761500CC142F
:103CC80000EE1400101500321500EC16000E170057
:103CD8003017005217007417009617007417005217
:103CE80017003017000E1700EC16003215001015DB
:103CF80000EE1400441400661400881400AA14008E
:103D0800B81700DA1700FC17001E180040180062E8
:103D180018004018001E1800FC1700DA1700B81722
:103D280000AA1400881400661400BC1300DE1300F7
:103D3800001400221400EC16000E17003017005271
:103D480017007417009617007417005217003017E1
:103D5800000E1700EC1600221400001400DE1300F9
:103D680000C18081000000000000004D04DA066EEA
:103D7800046304B40472049004000000008909601C
:083D880005240A230A300000A3
:00000001FF
