:100000000C949C030C94C4030C94C4030C94C4037C
:100010000C94C4030C94C4030C94C4030C94C40344
:100020000C94C4030C94C4030C9443160C94B216A1
:100030000C94C4030C94C4030C94C4030C94C40324
:100040000C94C4030C94C4030C94C4030C94C40314
:100050000C94C4030C94C4030C94C4030C94E418CF
:100060000C94C4030C94C4030C94C4030C94C403F4
:100070000C94C4030C94C4030C94C4030C94C403E4
:100080000C94C4030C94C4030C94C4030C94C403D4
:100090000C94C4030C94C4030C94C4030C94C403C4
:1000A0000C94C4030C94C4030C94C4030208D4D26B
:1000B00005087F7F3E1C084120FE0105F1F1F1118A
:1000C000D1B1D111F1515151515151515151515160
:1000D0005151510000FF00007F7F09090F06007F8A
:1000E0007F19396F46007F7F4949414100266F499A
:1000F000497B3200266F49497B32FF0000FFFFFF3A
:10010000FEFFFEFF0279CD95A5CD790111111101F8
:10011000F9F901010000FF00007F7F09090F0600C7
:100120007F7F40404040007C7E0B0B7E7C00070FB1
:1001300078780F0700000000000000FF00001F3F5C
:100140003F33333333333E36363E363E363E363635
:100150003E36363E360000FF00003E7F41417F3E86
:10016000007F7F0E1C7F7F00000000000000000069
:100170000000000000000000000000003F40504070
:1001800040407846414159594141414159594141C5
:1001900041414141414100007F000001017F7F0159
:1001A00001007C7E0B0B7E7C007F7F09090F06001F
:1001B0007F7F49494141000000000000000000002D
:1001C00000003E5B4F5B3E3E6B4F6B3E1C3E7C3EF9
:1001D0001C183C7E3C181C577D571C1C5E7F5E1C07
:1001E00000183C1800FFE7C3E7FF0018241800FFC1
:1001F000E7DBE7FF30483A060E2629792926407FBB
:10020000050507407F05253F5A3CE73C5A7F3E1CC9
:100210001C08081C1C3E7F14227F22145F5F005FB5
:100220005F06097F017F006689956A606060606093
:1002300094A2FFA29408047E040810207E201008D7
:10024000082A1C08081C2A08081E101010100C1E72
:100250000C1E0C30383E3830060E3E0E06000000F4
:10026000000000005F00000007000700147F147FFB
:1002700014242A7F2A122313086462364956205018
:100280000008070300001C2241000041221C002A34
:100290001C7F1C2A08083E080800807030000808EF
:1002A000080808000060600020100804023E514960
:1002B000453E00427F400072494949462141494D2F
:1002C000331814127F1027454545393C4A494931B6
:1002D00041211109073649494936464949291E0035
:1002E00000140000004034000000081422411414DF
:1002F000141414004122140802015909063E415DFC
:10030000594E7C1211127C7F494949363E41414188
:10031000227F4141413E7F494949417F0909090105
:100320003E414151737F0808087F00417F41002012
:1003300040413F017F081422417F404040407F02FE
:100340001C027F7F0408107F3E4141413E7F090926
:1003500009063E4151215E7F09192946264949492E
:100360003203017F01033F4040403F1F2040201FD8
:100370003F4038403F63140814630304780403616A
:1003800059494D43007F414141020408102000417A
:1003900041417F0402010204404040404000030705
:1003A000080020545478407F28444438384444445A
:1003B00028384444287F385454541800087E0902D1
:1003C00018A4A49C787F0804047800447D40002091
:1003D00040403D007F1028440000417F40007C04E5
:1003E0007804787C080404783844444438FC1824A1
:1003F000241818242418FC7C080404084854545475
:100400002404043F44243C4040207C1C2040201C09
:100410003C4030403C44281028444C9090907C4410
:1004200064544C440008364100000077000000414D
:1004300036080002010204023C2623263C1EA1A12C
:1004400061123A4040207A38545455592155557913
:1004500041215454784121555478402054557940D5
:100460000C1E527212395555555939545454593934
:10047000555454580000457C410002457D4200011E
:10048000457C40F0292429F0F0282528F07C54559B
:1004900045002054547C547C0A097F49324949491B
:1004A000323248484832324A4848303A4141217A4B
:1004B0003A42402078009DA0A07D39444444393D13
:1004C0004040403D3C24FF2424487E4943662B2F76
:1004D000FC2F2BFF0929F620C0887E0903205454E5
:1004E00079410000447D413048484A32384040223A
:1004F0007A007A0A0A727D0D19317D2629292F2862
:10050000262929292630484D40203808080808089F
:10051000080808382F10C8ACBA2F102834FA000089
:100520007B000008142A142222142A1408950022A1
:100530000095AA005500AAAA55AA55AA000000FFD6
:1005400000101010FF00141414FF001010FF00FF23
:100550001010F010F0141414FC001414F700FF0035
:1005600000FF00FF1414F404FC141417101F1010E3
:100570001F101F1414141F00101010F000000000B2
:100580001F101010101F10101010F010000000FFAE
:10059000101010101010101010FF10000000FF14A9
:1005A0000000FF00FF00001F10170000FC04F414FF
:1005B000141710171414F404F40000FF00F71414B7
:1005C0001414141414F700F7141414171410101F33
:1005D000101F141414F4141010F010F000001F1069
:1005E0001F0000001F14000000FC140000F010F0B9
:1005F0001010FF10FF141414FF141010101F00002F
:100600000000F010FFFFFFFFFFF0F0F0F0F0FFFF41
:10061000FF0000000000FFFF0F0F0F0F0F384444D2
:1006200038447C2A2A3E147E02020606027E027E9E
:100630000263554941633844443C04407E201E20F7
:1006400006027E020299A5E7A5991C2A492A1C4C9C
:100650007201724C304A4D4D303048784830BC629F
:100660005A463D3E494949007E0101017E2A2A2A17
:100670002A2A44445F444440514A444040444A5139
:10068000400000FF0103E080FF000008086B6B08DA
:100690003612362436060F090F060000181800001F
:1006A000001010003040FF0101001F01011E001961
:1006B0001D1712003C3C3C3C0000000000080B00F1
:1006C00002020200000904000001020200000524E9
:1006D000001001052401010104240206052406007E
:1006E000010705810310004009040100020A00000F
:1006F00000070502024000000705830240000004D5
:1007000003090412010002EF020140412336800078
:10071000010102030141726475696E6F204C4C4304
:100720000041726475626F7900D5F08D14A1C881A3
:10073000CFD9F1AF2000611911241FBECFEFDAE04D
:10074000DEBFCDBF13E0A0E0B1E0E6EAFAE302C00D
:1007500005900D92A43BB107D9F728E0A4EBB3E0D4
:1007600001C01D92A93AB207E1F713E0CCE9D3E04A
:1007700004C02197FE010E943E1DCB39D107C9F765
:100780000E94AA190C94511D0C940000480F592F77
:10079000511D1416150684F5803891056CF597FFE8
:1007A00002C090E080E04138510514F040E850E08C
:1007B000481BFB01E770FF2721E001C0220FEA95EB
:1007C000EAF777FF02C0695F7F4FFB0133E0F595E1
:1007D000E7953A95E1F7F695FE2FEE27F795E79521
:1007E000E80FF91FE351FC4F415030F08191DF01D8
:1007F0001197822B8C93F8CF0895FC018091EA0326
:10080000882311F13FB7F89482E08093E9002091AA
:10081000F200822F90E01816190614F481E090E09F
:10082000882339F0289844E64093E9034091F10089
:100830004083222339F02091F200211103C02BE6DE
:100840002093E8003FBF08958FEF9FEF08952FB7E3
:10085000F89483E08093E9009091E800892F8072FA
:1008600095FF04C09091F20080E4891B2FBF08958A
:100870008091E10381110DC082E08093DD0384E06B
:100880008093DE031092E0031092DF0381E08093F7
:10089000E1038DED93E008954091C9035091CA039F
:1008A0002091C7033091C80342175307B4F49091C5
:1008B000E8009570E1F39091E80092FD19C08093F3
:1008C000F1008091C9039091CA0301968F73992713
:1008D000892B19F48EEF8093E8008091C9039091E1
:1008E000CA0301969093CA038093C90381E00895D7
:1008F00080E00895DF92EF92FF920F931F93CF93C2
:10090000DF93D82E8A01EB017B01E40EF51ECE1594
:10091000DF0559F0D7FE12C0FE0184910E944C04FD
:1009200021968111F4CF0FEF1FEFC801DF91CF9116
:100930001F910F91FF90EF90DF9008958881EECF87
:100940000F931F93CF93DF931F92CDB7DEB782E053
:10095000898342E450E06DEB76E080E80E947A04FF
:100960000E943804DC0112960D911C9101151105AD
:1009700089F0D801ED91FC910280F381E02DBE0158
:100980006F5F7F4FC801099597FD04C0F80100858E
:100990001185ECCF89810F90DF91CF911F910F913D
:1009A0000895615030F02091F100FC012083019600
:1009B000F8CF289884E68093E9030895AF92BF9218
:1009C000CF92DF92EF92FF920F931F93CF93DF931B
:1009D0006C017B018B01040F151FEB015E01AE184A
:1009E000BF08C017D10759F06991D601ED91FC916C
:1009F0000190F081E02DC6010995892B79F7C50199
:100A0000DF91CF911F910F91FF90EF90DF90CF90EA
:100A1000BF90AF900895CF93DF931F92CDB7DEB70D
:100A20006983DC01ED91FC910280F381E02D41E0CE
:100A300050E0BE016F5F7F4F09950F90DF91CF911E
:100A4000089583E08093E9008091F200882319F0F3
:100A50008AE38093E80008950E94270490E00895B7
:100A6000CF93DF931F92CDB7DEB7FC0184859585C8
:100A700097FD08C02FEF3FEF358724870F90DF9158
:100A8000CF910895CE0101960E94FD03019719F4BC
:100A9000898190E0F3CF8FEF9FEFF0CF0F931F93FB
:100AA000CF93DF931F92CDB7DEB78C01FC01848515
:100AB000958597FF0BC0CE0101960E94FD0301971B
:100AC00071F4898190E0F80195878487F801848525
:100AD00095850F90DF91CF911F910F9108958FEF22
:100AE0009FEFF1CFFC018485958597FD0BC09FB7E3
:100AF000F89482E08093E9008091F2009FBF90E03B
:100B0000019608959FB7F89482E08093E900809160
:100B1000F2009FBF90E008950DB407FEFDCF8EB5A3
:100B2000599A08950E949805982F0E949E0508954D
:100B30000DB407FEFDCF8EB51EBC08950C948C0538
:100B40000E949805982F0E94980508958EBD000078
:100B50000DB407FEFDCF8EB50895CF92DF92EF92D0
:100B60006B01E82E0090EB03D00C0090EC03E01C2E
:100B7000599883E00E94A6058E2D0E94A6058D2D12
:100B80000E94A6058C2D0E94A6051EBCEF90DF904A
:100B9000CF9008954F925F926F928F929F92AF92F3
:100BA000BF92CF92DF92EF920F931F93CF93DF9379
:100BB0004C015B012901642E842FB9010E94AD050F
:100BC0000E94A005182FEC010E949205282FDE013B
:100BD000A80DB91D1A161B060CF0C1C080E88816B6
:100BE00091040CF0BCC0422F592FFA01EA0DFB1DF5
:100BF0001E161F060CF0B3C080E4A816B1040CF05A
:100C0000AEC097FE0BC06627772768197909312F88
:100C1000361BA038B10554F030E808C030E8381968
:100C2000A138B1050CF4312F70E060E0B7FEA6C02A
:100C3000413451051CF02A2D2770205C6B01072ED2
:100C4000000CEE0804FF05C0CC0CDD1CEE1CCC0F24
:100C5000DD1F84E0480E511C611CC40CD51CE61C31
:100C6000D50183E0B595A7958A95E1F711E0A1FC40
:100C700014E0A0FC110FA2FC1295FD01F695FE2FC9
:100C8000EE27F795E795E80DF91DE60FF71FE351FD
:100C9000FC4F599883E08EBD8091EB039091EC035B
:100CA0008D0D9E1D0DB407FEFDCF9EBD0DB407FE3C
:100CB000FDCF8EBD0DB407FEFDCFCEBCCC0EDD1E2C
:100CC000E11C0DB407FEFDCF1EBC000FA73014F4CD
:100CD000089410FD88940795B2E041FFB8E042FF08
:100CE000B29540FFBB0FBA9528300CF0BFEF932FA1
:100CF0000EB41EBC03FD00948B2F00FD802D02FD61
:100D00000024019EB00104FB36F4C895C895112457
:100D10000EB41EBC00FD082E019EA03034F0808170
:100D200001FF6827602168276083E058FF4F07FFB5
:100D300006C0808101FF78277121782770831124F4
:100D4000EF57F0409A95A1F6E058FF4FE31BF109E9
:100D50002850A3950DB4599A12160CF49ACFDF912E
:100D6000CF911F910F91EF90DF90CF90BF90AF90F8
:100D70009F908F906F905F904F900895E134F105B0
:100D80000CF45CCF20E42A1959CFFC010E945C07C7
:100D9000319728F068517C4F8F4F9F4FF9CFAB01AF
:100DA000FC010E945C07641775078E079F07C8F354
:100DB00008958F929F92AF92BF92CF92DF92EF925F
:100DC000FF920F931F93CF93DF936C017B018A01F6
:100DD00080910C01882309F45AC08091EA0388238A
:100DE00009F455C08091CD0380FF05C08091E000DB
:100DF00082608093E000E801B12C8AEFA82E93E096
:100E0000892E2AE3922E209711F4BB20C9F10E946B
:100E10002704811108C0AA94AA20C9F181E090E0BA
:100E20000E94C506F0CF8C171D0611F00CF08C2F18
:100E30009FB7F8948092E9002091E80025FD02C058
:100E40009FBFE1CF282F30E0C21BD30BF7018150A9
:100E500020F041914093F100FACFE20EF31EBB2047
:100E600021F09092E800B12CEBCF8091E80085FD55
:100E7000E7CF9092E800BB24B394209709F3F3CF17
:100E80005D9884E68093CC03101611063CF081E057
:100E900090E0F6019383828310E000E0C801DF91C7
:100EA000CF911F910F91FF90EF90DF90CF90BF9067
:100EB000AF909F908F900895A3ECB3E02FB7F89474
:100EC0007D918D919C9166B52FBFA89B05C06F3F0A
:100ED00018F47F5F8F4F9F4F22E0660F771F881FA8
:100EE000991F2A95D1F708952F923F924F925F92C2
:100EF0006F927F928F929F92AF92BF92CF92DF922A
:100F0000EF92FF920F931F93CF93DF9300D000D007
:100F10001F92CDB7DEB75D834C835901EC2D452B75
:100F2000D1F1402F50E0162F17701983A3E075956B
:100F30006795AA95E1F7262FDA01A80FB91FA03807
:100F4000B10514F000E8081BA1E0FE2DF77009F4CC
:100F5000A0E0E694E694E694EA0EDB01AE0DB11D46
:100F600019971CF0F8E0EF2EE61ADB01B695BA2FC0
:100F7000AA27B795A7958A0F9B1F3981A32F330FF7
:100F8000BB0BE33009F435C1F0F4E13009F4EEC0F5
:100F9000E23009F453C00F900F900F900F900F9014
:100FA000DF91CF911F910F91FF90EF90DF90CF9045
:100FB000BF90AF909F908F907F906F905F904F9079
:100FC0003F902F900895EA3F09F48CC0EB3F19F74A
:100FD000E22FE61BEE15F8F6FC01E351FC4F6F0122
:100FE000B12CA12CEC81FD81A01608F0ACC0EA0D5B
:100FF000FB1D8490912C0A2E02C0880C991C0A9427
:10100000E2F727FD07C0F6017080F82DF0957F22EA
:10101000F6017082F980FF2051F0273044F4F60188
:10102000E058FF4F892C80949080982090821FEF89
:10103000A11AB10A3FEFC31AD30AD4CF66246A9427
:10104000712C098002C0660C771C0A94E2F7609448
:101050007094572CE22FE61BEE1508F09CCFFC0194
:10106000E351FC4F6F01B12CA12CEC81FD81A01646
:1010700050F5EA0DFB1DE491F0E01F010A2E02C0BD
:10108000220C331C0A94E2F727FD05C0F60190807C
:10109000962092289082F980FF2071F0273064F426
:1010A000460110E8810E911CF4014080E42DE521F9
:1010B0004E2E4328F4014082FFEFAF1ABF0A1FEF04
:1010C000C11AD10AD2CFE40FF51FFD83EC838058FB
:1010D0009F4F2F5FBFCFE40FF51FFD83EC83805838
:1010E0009F4F2F5FE22FE61BEE1508F054CFFC0157
:1010F000E351FC4F6F01B12CA12CEC81FD81A016B6
:1011000050F7EA0DFB1D8490912C0A2E02C0880C2A
:10111000991C0A94E2F727FD04C0F6017080782834
:101120007082F980FF2041F0273034F4F601E05856
:10113000FF4F8080982890821FEFA11AB10A3FEFDD
:10114000C31AD30ADACFE40FF51FFD83EC8380586E
:101150009F4F2F5F3DCFEC81FD81E40FF51FFD8395
:10116000EC83A40EB51E80589F4F2F5FE22FE61B25
:10117000EE1508F010CFFC01E351FC4F6F01912CEC
:10118000812C801640F7F501E80DF91D6490712C53
:101190000A2E02C0660C771C0A94E2F760947094E1
:1011A000EC81FD81E80DF91D4490512C0A2E02C0FE
:1011B000440C551C0A94E2F727FD08C0F601308064
:1011C000E32DE6213E2E3428F6013082F980FF20FF
:1011D00049F027303CF4F601E058FF4F608076205C
:1011E000752870821FEF811A910A3FEFC31AD30A44
:1011F000C8CFE02FF0E083519C4FA0E8B0E06D0134
:10120000CE1ADF0A4E1B5F0B4A01880C991CE1E0E5
:10121000F0E05F01098002C0AA0CBB1C0A94E2F74F
:10122000B02E402F5E2DEC81FD81DC018601940102
:10123000F980CF93DF93ED01EF96EF9622966590BC
:101240008590FF2059F06A9C30018A9C40016730EC
:101250002CF4C8809094C920C728C99266233AF01C
:10126000CC908094C820C628CD920C943809119651
:101270004A9529F75A9551F04B2D63951124E20FA9
:10128000F11DA00FB11DC00FD11DD9CFDF91CF919E
:10129000112481CE90E00C94C5068FB18095807F9B
:1012A000669B88601C9B846008959091DA03982364
:1012B00029F49091DB03982381E009F480E00895FC
:1012C000CF93C82F0E944D09982F9C2381E09C1337
:1012D00080E0CF91089580389105B8F460347105AD
:1012E000A0F490E121E061FD24E060FD220F62FDA9
:1012F0002295687F969FD0011124A80FA351BC4F5F
:101300000C90022A40FF02260C9208956F927F9261
:101310008F929F92AF92BF92CF92DF92EF92FF9205
:101320000F931F93CF93DF936D3089F0C090BD036F
:10133000D090BE036A30E1F41092C0031092BF0354
:1013400088E0C80ED11CD092BE03C092BD0381E0DC
:1013500090E0DF91CF911F910F91FF90EF90DF9080
:10136000CF90BF90AF909F908F907F906F90089597
:1013700060900001E090BF03F090C003E5E06E9F35
:10138000E0011124C354DE4F570100E010E00530A6
:1013900029F0CE010196FE011491EC01460188E08E
:1013A000782E412F417010FD1BC0662021F0B40142
:1013B000C5010E946B0916957A94FFEF8F1A9F0A58
:1013C0007110EFCF0F5F8FEFA81AB80A0630F1F651
:1013D000E6E0EE0EF11CF092C003E092BF03B7CF3F
:1013E000462DE5CF682F85EA98E00C948609DF92B8
:1013F000EF92FF920F931F93CF93DF937C01D22E36
:101400008B01040F111DEB0177FF02C0D0E0C0E09B
:10141000C8010134110514F080E490E0C817D90721
:101420003CF44D2DBE01C7010E946B092196F0CFFF
:10143000DF91CF911F910F91FF90EF90DF90089572
:10144000089590E080E00895CF92EF920F93CF93AC
:101450008091DA0380959091DB03892319F082E073
:101460008093DC03E7EBF0E00491E8EBF0E0E4903C
:1014700022E0C22E30E020E049EB50E061E170E074
:1014800080E290E00E9474078091CF039091D00396
:1014900060E370E00E942A1D8831B8F4C1E18C300D
:1014A00008F0CEE1E0EBF0E00491E1EBF0E0E49055
:1014B00092E0C92E30E020E042EB50E069E170E0BC
:1014C0008BE590E00E94740704C0CFE1843208F0FD
:1014D000C0E26C2F70E041E084E390E00E946B0971
:1014E000C0FD12C0ECEAF0E00491EDEAF0E0E49017
:1014F00082E0C82E30E020E04EEA50E06CE170E07F
:101500008DE290E00E947407CF910F91EF90CF9001
:101510000895AF92BF92CF92DF92EF92FF920F9316
:101520001F93CF93DF931092000180EAE82E88E0AA
:10153000F82EC3E2D0E092E3C92ED12C8E010350E5
:1015400011095E0188E0A80EB11C0A151B0551F0B7
:1015500021E04BE060E370E0C8010E94F7090F5FF3
:101560001F4FF3CFD093C003C093BF03D092BE03ED
:10157000C092BD03F70181917F010E94F2092D966F
:10158000C436D105D9F681E080930001DF91CF9177
:101590001F910F91FF90EF90DF90CF90BF90AF9091
:1015A00008950F931F93CF93DF938C01EB010E945B
:1015B0009F1C8883C80101960E949F1C8983CE01CD
:1015C000DF91CF911F910F910895FF920F931F9379
:1015D000CF93DF93EC018B01FB01F0800E949F1CF5
:1015E000F81621F06F2DCE010E94B91CF801F18090
:1015F0002196CE010E949F1CF81621F06F2DCE017E
:101600000E94B91CC801DF91CF911F910F91FF90EB
:101610000895CF93DF9300D000D0CDB7DEB71A8204
:1016200019821C821B82BE016F5F7F4F81111EC019
:1016300083E590E00E94D10A89819A8101969A837C
:101640008983BE016F5F7F4F83E590E00E94E50ACA
:10165000BE016D5F7F4F85E590E00E94E50A0F9027
:101660000F900F900F90DF91CF9108958BE590E050
:101670000E94D10A89819A8101969A838983BE0149
:101680006F5F7F4F8BE590E00E94E50ABE016D5FC2
:101690007F4F8DE590E0E1CFFB0101900020E9F75D
:1016A0003197AF01461B570BDC01ED91FC91028095
:1016B000F381E02D09948F929F92AF92BF92EF92A7
:1016C000FF920F931F93CF93DF93CDB7DEB7A19710
:1016D0000FB6F894DEBF0FBECDBF7C01FA01CB017F
:1016E00019A2223008F42AE08E010F5D1F4F822ECE
:1016F000912CB12CA12CBF01A50194010E94F91CD1
:10170000F901CA016A300CF5605DD8016E938D0154
:10171000232B242B252B79F790E080E0109721F0E4
:10172000BD01C7010E944C0BA1960FB6F894DEBF15
:101730000FBECDBFDF91CF911F910F91FF90EF9022
:10174000BF90AF909F908F900895695CDECF6EEA56
:1017500073E085EA98E00C944C0B2F923F924F92E5
:101760005F926F927F928F929F92AF92BF92CF9231
:10177000DF92EF92FF920F931F93CF93DF93CDB73A
:10178000DEB7C355D1090FB6F894DEBF0FBECDBF8B
:1017900040913D0850913E0870E060E02AE08DEEF7
:1017A00097E00E945B0B60EB73E08DEE97E00E9488
:1017B0004C0B80913D0890913E08892B09F052C056
:1017C0006091BC0325E0629FB0011124072E000C3C
:1017D000880B6E53764E8F4F0E94AD050E94980580
:1017E00026968FAF26970E949805582E0E9498053E
:1017F00027968FAF27970E94980528968FAF289736
:101800000E94980525968FAF25970E948C0584E04D
:101810000E9460098823A1F180919F088F5F8093C7
:101820009F08803419F485E080939E0880919E087B
:10183000823009F47FC038F58130D1F180E20E9416
:101840005509882309F42AC180914108882309F4A5
:101850001CC1833008F022C180914008811119C158
:1018600088E01AC1512C25961FAE259728961FAEE9
:10187000289727961FAE279726961FAE2697C7CF85
:1018800010929F08D3CF843009F4EFC08530B1F6B1
:1018900088E00E945509811105C084E00E94550925
:1018A000882389F080919B08882309F4AAC0E8C0A6
:1018B00088E00E945509811104C084E00E94550906
:1018C000811110929E0880919C08412CBE016F5F8F
:1018D0007F4F7DAF6CAF882E880F9908C4010296A8
:1018E00060969FAF8EAF6097D40112976296BFAF9C
:1018F000AEAF6297E52DF0E06496FFAFEEAF649770
:101900009E012A5F3F4F3FAF2EAF90919B08809181
:101910009E08941508F4B5C4ACADBDADE5E01D92CC
:10192000EA95E9F7813009F45FC3823009F4F0C326
:1019300020E065C388E00E945509811106C084E05B
:101940000E945509882309F4BECF10913F081BAEB1
:101950001AAE1EAA1DAA1C8E1B8E1A821982BE01E7
:10196000665C7F4F111151C081E590E00E94D10A61
:10197000BE016B5C7F4F83E590E00E94D10ABE01FF
:10198000655E7F4F85E590E00E94D10ABE016F5FE2
:101990007F4F87E590E00E94D10A8AAD9BAD01960A
:1019A0009BAF8AAF8DA99EA901969EAB8DAB8B8D07
:1019B0009C8D01969C8F8B8F29813A81281739073E
:1019C00010F49A838983BE01665C7F4F111135C084
:1019D00081E590E00E94E50ABE016B5C7F4F83E5E4
:1019E00090E00E94E50ABE01655E7F4F85E590E0CC
:1019F0000E94E50ABE016F5F7F4F87E590E00E947D
:101A0000E50A86E08093DC035ECF89E590E00E94E2
:101A1000D10ABE016B5C7F4F8BE590E00E94D10A3A
:101A2000BE01655E7F4F8DE590E00E94D10ABE0148
:101A30006F5F7F4F8FE590E0AECF89E590E00E9429
:101A4000E50ABE016B5C7F4F8BE590E00E94E50AE2
:101A5000BE01655E7F4F8DE590E00E94E50ABE0104
:101A60006F5F7F4F8FE590E0CACF88E00E945509F5
:101A7000811106C084E00E945509882309F423CF10
:101A800080913F080E94090BBCCF809140088823B9
:101A900011F0815001C089E08093400880E40E94E9
:101AA0005509882371F080914108882309F48EC07C
:101AB000833038F480914008883008F48CC010924C
:101AC000400880E80E946009882359F0809143080B
:101AD000833038F080919C0887FF03C08F5F80932C
:101AE0009C0880E80E945509882359F0809143089A
:101AF000811107C080914108811171C082E08093FB
:101B0000430880E10E94600910919B08882389F0B6
:101B100080914308833068F080919C08E12FF0E0C9
:101B2000E15CFD4F908198170CF070C0815080935C
:101B30009C0880E10E945509882361F08091430848
:101B4000811108C080914108882309F463C0813065
:101B500009F46FC084E00E945509882399F0E09150
:101B60009A08EE2379F0E150E0939A0835E0139F4C
:101B7000C0011124815C974FE80FF92FF11D80E21D
:101B8000878F15AE88E00E945509882309F49BCE03
:101B9000A0914008A1114FC080914108823009F006
:101BA000FBC1E0919A08EE2309F48DCE8FEF8E0FE2
:101BB00080939A0845E0149FF0011124E15CF74FEF
:101BC000E80FF11D80E2878F15AE7DCE8091400831
:101BD000893008F074CF8F5F8093400872CF8130D6
:101BE00091F0823009F08DCF80914008893039F42E
:101BF00081E08093410888E08093400882CF81E0B3
:101C0000809341087ECF109241087BCF81E0809382
:101C100043088FCF80914008893039F481E0809368
:101C2000410888E08093400895CF81E08093410887
:101C300091CF82E0FBCFA83009F0AEC1909141086E
:101C4000923009F0A9C1612F70E055E0159FF001B5
:101C50001124DF01A25AB74F4D018E010B5C1F4FBB
:101C60007E01BAE3EB0EF11C9E012F5F3F4F40EA6D
:101C700058E0D801580191E0F401D1904F01DD9274
:101C8000FA01D190AF01F901D1929F01F401958F32
:101C9000AE15BF0589F7AE014F5F5F4F6801F601D2
:101CA00021916F01FA019191AF01291380E0CA16C9
:101CB000DB06A9F78823C9F085E0869FF001879F9E
:101CC000F00D1124E15CF74F82E085AF86AF87AF5E
:101CD000DF01A05CBF4F8C93EF5BFF4F808380934D
:101CE0009E0883E180939D08EECD4DA880913F082A
:101CF000882339F1813009F450C03E0150E2650E6D
:101D0000711C0E9498057E016BE1E60EF11C4701F3
:101D10000E949805D4018D934D01A615B705C1F712
:101D20008B8D481638F0481261C09C8D8EA989179A
:101D300008F05CC00E948C0581E080939E088FE0D3
:101D4000D1CF242D2154330BC9012AE1289FB001A2
:101D5000299F700D11248EA98154990B680F791F4A
:101D6000072E000C880B6959714F8F4F660F771F34
:101D7000881F0E94AD050E94A0057C010E948C0571
:101D800086E08E9DB0018F9D700D112480E0625A17
:101D9000784D8F4F0E94AD05B0CF442D4154550B67
:101DA0002AE1249FB001259F700D11248EA9815432
:101DB000990B680F791F072E000C880B655F7E4E0C
:101DC0008F4F660F771F881F0E94AD050E94A005E8
:101DD0007C010E948C0586E08E9DB0018F9D700D68
:101DE000112480E06B537C498F4FD4CFD801F70189
:101DF00091918D91981385CFE815F905C9F78091D8
:101E00009B08B5E08B9FC0011124AC01415C574F8A
:101E1000FE013196380121E030E0A2E09A2EB0E2D6
:101E20008B2ED3017D913D01619176130BC0BA01D8
:101E3000620F731FDB01DC969C92BF016150710938
:101E4000DB018C922F5F3F4F2630310551F770EA4E
:101E5000272E78E0372E4C01B5E28B1A9108E3E08B
:101E60006E2EF0E27F2EF80161918F01D1012D914C
:101E70001D01022E000C330B62171306E9F0DE0180
:101E8000119630E020E0BA01620F731FFB0165ADCF
:101E9000623009F469C0F70170816C91761364C0F7
:101EA000D101A80DB91D6C9261E070E06C0F7D1F2F
:101EB000260F371FD9017C92BFEFEB1AFB0A0C15D6
:101EC0001D0589F630E020E064E0F62E8A01020F5D
:101ED000131FF80165AD6130A9F4F501E20FF31F9E
:101EE000608170E0E0EAF8E0A1910A2E000CBB0BE3
:101EF0006A177B0719F4D801DD96FC92B8E0E53A41
:101F0000FB0791F72F5F3F4F25303105F9F630E0A1
:101F100020E0FA01E20FF31F65AD613041F4F501F5
:101F2000E20FF31FE081F0E0ED5FF74F60832F5F7A
:101F30003F4F2530310569F7FC01E458F74F85E044
:101F400091E02191243019F4DF0111979C93815085
:101F5000C1F783E080939E0880919B08853061F4EF
:101F600084E080939E08AFCC2F5F3F4F11962530C1
:101F7000310509F088CFA0CF10929A0891E0980F10
:101F800090939B08923008F49ECC93EF899F802D0C
:101F9000112480939C0897CC80919A08853008F092
:101FA00092CC25E0129FF0011124E15CF74FE80F7D
:101FB000F11D209141084AE0249F900111242F5DDA
:101FC0003D4FA20FB32FB11D9C919F5B978F8F5FE9
:101FD00080939A08853009F076CC88E08093400899
:101FE00082E0809341086FCC9411A2CCE0919D08CF
:101FF000EE2309F49DCCF0E0E55BFE4F2081FDE08F
:102000004F9EC001112460964EAD5FAD6097480FA2
:10201000591F2A965FAF4EAF2A97BC01680D791DF4
:1020200024967FAF6EAF24970D966296AEADBFAD8E
:102030006297A80FB91F2C96BFAFAEAF2C97B5E033
:102040004B9EC0011124FC01E15CF74F1F01AE0162
:102050004F5F5F4F22965FAF4EAF229764966EAC94
:102060007FAC6497620E711C27FD7A942296AEAD08
:10207000BFAD22970D912296BFAFAEAF2297002E33
:10208000000C110B2A96CEACDFAC2A97C00ED11EE5
:102090007301B3E2EB0EF11CF10185AD823009F45E
:1020A0006EC0833009F490C08111DAC081E0809362
:1020B0000001F092C003E092BF03D092BE03C09231
:1020C000BD03878D0E94F2092C96EEADFFAD2C97D3
:1020D0000E0F1F1F41E0B801C30181960E946B09DA
:1020E00041E0B801C7010E946B0941E0B801C3019A
:1020F00085960E946B0941E0B801C30187960E9452
:102100006B0941E0B801C30189960E946B0993C035
:1021100094110ECCE0919D088FEF8E0F8E3030F42D
:10212000AE2FB0E0A55BBE4F8C9189838EEF8E0FF2
:102130008E3030F4AE2FB0E0A65BBE4F8C918A8318
:102140008DEF8E0F8E3030F4AE2FB0E0A75BBE4F18
:102150008C918B838CEF8E0F8E3030F4AE2FB0E0ED
:10216000A85BBE4F8C918C838BEF8E0F8E3008F066
:10217000DFCBF0E0E95BFE4F80818D83D9CB1092FD
:10218000000124962EAD3FAD2497020F131F53017B
:1021900030E2A30EB11CA301455D5F4F2E965FAFE9
:1021A0004EAF2E972E966EAD7FAD2E97A616B70624
:1021B00009F459C021E04BE0B801C5010E94F709BC
:1021C0007FEFA71AB70AEECF81E080930001F0926B
:1021D000C003E092BF03D092BE03C092BD03878DBF
:1021E0000E94F20924962EAD3FAD2497020F131FD3
:1021F000730130E2E30EF11C0034110528F44BE0CA
:10220000B801C7010E94C603B801665F7F4F603402
:10221000710520F44BE0C7010E94C60321E04BE0AA
:10222000B801C7010E94F70921E04BE0B801C301E2
:102230008A960E94F709BFEF2B1A3B0AEDE06E0E5B
:10224000711C22962EAD3FAD22974EAD5FAD241787
:10225000350709F00BCF81E080930001439455CB03
:1022600081E080930001F092C003E092BF03D0921E
:10227000BE03C092BD03D1015F968C910E94F2090A
:10228000DACF823009F4C1C108F0F5C0813009F419
:10229000A5C11091420883E1850D9AE1E2E1F1E0E8
:1022A000DE015B9601900D929A95E1F79AE1ECE2DE
:1022B000F1E0DE01119601900D929A95E1F7BE01D1
:1022C000655E7F4F24967FAF6EAF2497DE01119637
:1022D0002296BFAFAEAF22973FE3432E38E0532E96
:1022E000712C612C49E0242E812E912CE82EF12CAA
:1022F0005AE0352E2496EEADFFAD249781912496B9
:10230000FFAFEEAF249781502296AEADBFAD2297BE
:102310009D912296BFAFAEAF22972FEF290F829DDE
:10232000C02C112434E0923008F430E0C30E933016
:1023300009F09AC19EEF239DA02C1124B12CBFEF70
:10234000AB1ABB0AA80CB91CC90ECE0CDF2CD11CD1
:102350009091400889138AC180914108281386C151
:1023600080914308811182C1F301E155FE4F208124
:102370003181428101E0B501C6010E94CA05809108
:10238000410820914008389EC00111248F5D9D4F67
:10239000820F911DDC01EC91F0E0E15CF74F85814B
:1023A00000E124E635E040E0813019F420E935E031
:1023B00040E0B501C6010E94CA05FFEF4F1A5F0A4F
:1023C00023E0620E711C3EE46316710409F092CFA3
:1023D000640145E1C40ED11C8091400801E08111E7
:1023E00007C08091410822E235E040E0823019F0D8
:1023F00020E732E040E0B601C7010E94CA05C701EC
:10240000865B9F4F2091400801E0283009F03DC1D4
:1024100020914108223009F038C12EE335E040E038
:10242000B6010E94CA05103428F44BE5B401C70177
:102430000E94C60321E042E384010F5F1F4FB801F1
:10244000C70101970E94F70921E042E3B801C701E3
:10245000855A9F4F0E94F70980914308823008F403
:1024600018C1843060F5B4016450710901E02FE2B5
:1024700031E140E015C1843009F4D7C010E000E03C
:10248000853009F006CF20E040E263E270E0C80149
:102490000E94F7090F5F1F4F00381105A1F78091C7
:1024A0003F0800E08111D8C028E838E040E065E24C
:1024B00070E08DE190E00E94CA050E94890A809137
:1024C0004308813009F4F0C0823099F480914208C9
:1024D0008F5F8093420890919B08923028F09091F2
:1024E0009C089F5F90939C08803419F483E080934C
:1024F0004308E0903D08F0903E08E114F10491F5A6
:1025000025965FAD2597513009F4E2C0523009F4A9
:10251000EAC026966FAD26976051770B6B01279620
:102520007FAD2797713049F400E02CEA39E140E0B3
:1025300064E270E0C6010E94CA052896AFAD2897F4
:102540008A2F90E0FC01EE0FFF1FE80FF91FED5FEF
:10255000FD4F20813181428100E06DE270E0C601D3
:102560000E94CA0520919D088091CF039091D003CD
:10257000222329F080FD03C0215020939D0863E0B1
:1025800070E00E942A1D892B79F4E114F10409F40A
:10259000AFC0B1E0EB1AF108F0923E08E0923D08BE
:1025A000EF2811F41092BC03CD5ADF4F0FB6F89408
:1025B000DEBF0FBECDBFDF91CF911F910F91FF9076
:1025C000EF90DF90CF90BF90AF909F908F907F90D3
:1025D0006F905F904F903F902F90089580913F08AB
:1025E00000E081110AC020E236E040E060E370E0E4
:1025F00087E190E00E94CA0562CF28EC36E040E017
:1026000060E370E085E090E0F5CF80913F0800E066
:102610002CEB35E040E0882319F02EEE35E040E069
:1026200060E370E089E290E0E5CF0E94890A809142
:102630003F0800E0811108C028EB37E040E065E288
:1026400070E082E190E0D6CF28E138E040E065E23A
:1026500070E08AE090E0CECF22ED38E040E065E225
:1026600070E080E290E027CF90E065CEF2018581B6
:10267000F301811107C0E55AFE4F2081318142816B
:1026800001E097CEE155FE4FF8CF2CE832E040E074
:10269000C7CEB4016450710901E026E231E140E0A7
:1026A000C7018A5A9F4FA6CF8091420881508093DC
:1026B000420890919B08923028F090919C0891508C
:1026C00090939C08813209F014CF1092430811CFE7
:1026D00000E02CE739E140E06CE170E082E090E05E
:1026E0000E94CA0516CF00E024E939E140E0F4CFAA
:1026F0008091BC038F5F8093BC038C3908F454CF66
:102700000E94471C2EE531E040E050E00E94C71CCB
:102710006E5C7F4F8F4F9F4F70933E0860933D08D4
:1027200043CF0F93CF93DF9300D000D000D0CDB72D
:10273000DEB788E00E945509882319F084E0809371
:10274000DC0380E20E945509882359F080913F08FC
:10275000813039F410923F0860E080E590E00E94FB
:10276000A71C80E40E945509882361F080913F08EE
:10277000811108C081E080933F0861E080E590E02E
:102780000E94A71C84E00E945509882319F086E066
:102790008093DC03DE01119686E0FD0111928A959B
:1027A000E9F78091D7038111B5C0E091D803EA0F12
:1027B000FB2FF11D8091D90381508083E9818E2FF9
:1027C00090E0FC01EE0FFF1FE80FF91FED5AFC4FE0
:1027D00020813181428101E06BE070E08EE090E089
:1027E0000E94CA05EA818E2F90E0FC01EE0FFF1FC8
:1027F000E80FF91FE35EFC4F2081318142816BE0DD
:1028000070E08FE190E00E94CA05EB818E2F90E08E
:10281000FC01EE0FFF1FE80FF91FE951FD4F20816A
:10282000318142816BE070E080E390E00E94CA0554
:10283000EC818E2F90E0FC01EE0FFF1FE80FF91FD7
:10284000EF54FD4F2081318142816BE070E081E4E3
:1028500090E00E94CA05ED818E2F90E0FC01EE0F02
:10286000FF1FE80FF91FE558FD4F2081318142819C
:102870006BE070E082E590E00E94CA05EE818E2F49
:1028800090E0FC01EE0FFF1FE80FF91FEB5BFD4F1F
:102890002081318142816BE070E083E690E00E940C
:1028A000CA0528E331E140E06DE170E090E080E0AE
:1028B0000E94CA0580913F08882309F43EC08AE43B
:1028C00090E001E02EE131E140E06FE270E00E9433
:1028D000CA058091D903882399F081508093D90348
:1028E00081110EC00E94471C28EA30E040E050E011
:1028F0000E94C71C605E7F4F8F4F9F4F6093D7032E
:1029000026960FB6F894DEBF0FBECDBFDF91CF91F4
:102910000F91089581508093D70381114FCF0E946A
:10292000471C26E030E040E050E00E94C71C609366
:10293000D80383E18093D90341CF80E190E0C1CFF8
:10294000EF92FF920F931F93CF93DF9300D0CDB7F9
:10295000DEB7F82E162F042F8EE490E00E949F1C05
:10296000E82E8FE490E00E949F1C1A821982F110D9
:1029700006C09CE4E91203C0853409F450C06CE43D
:102980008EE490E00E94A71C65E48FE490E00E9432
:10299000A71C612F80E590E00E94A71CFF2009F48E
:1029A0004FC0111148C0BE016F5F7F4F81E590E0BD
:1029B0000E94E50ABE016F5F7F4F83E590E00E94B1
:1029C000E50ABE016F5F7F4F85E590E00E94E50A52
:1029D000BE016F5F7F4F87E590E00E94E50AFF2010
:1029E00039F1113029F5BE016F5F7F4F89E590E025
:1029F0000E94E50ABE016F5F7F4F8BE590E00E9469
:102A0000E50ABE016F5F7F4F8DE590E00E94E50A09
:102A1000BE016F5F7F4F8FE590E00E94E50A0F9047
:102A20000F90DF91CF911F910F91FF90EF9008953C
:102A30000111D9CFF4CF0111B6CF113081F7D3CF27
:102A40000111B1CFECCFEF92FF920F93CF93DF93B1
:102A5000CDB7DEB728970FB6F894DEBF0FBECDBF57
:102A60001A8219821C821B821E821D8218861F8276
:102A700080913F08BE016F5F7F4F8111E9C081E502
:102A800090E00E94D10ABE016D5F7F4F83E590E028
:102A90000E94D10ABE016B5F7F4F85E590E00E94E6
:102AA000D10ABE01695F7F4F87E590E00E94D10A9D
:102AB0006B817C81F12CE12C6115710559F0298124
:102AC0003A8144E6429FC001439F900D11240E9429
:102AD0002A1D7B0188E00E945509882319F082E0B5
:102AE0008093DC0384E00E946009882309F4C8C055
:102AF00080919F088F5F80939F08803431F440E07D
:102B000060913F0881E00E94A01480913F0800E09E
:102B100026E139E040E0882319F02AE13DE040E079
:102B200070E060E090E080E00E94CA058FE190E0F4
:102B30009093C0038093BF038EE090E09093BE0318
:102B40008093BD038B819C818436910510F40E9493
:102B5000A70B8B819C810A9710F40E94A70B4B81D5
:102B60005C8170E060E02AE085EA98E00E945B0BFF
:102B700084E590E09093C0038093BF038EE090E0E3
:102B80009093BE038093BD0384E6E816F10440F4FD
:102B90000E94A70B8AE0E816F10410F40E94A70B2C
:102BA000A70170E060E02AE085EA98E00E945B0BF4
:102BB0008FE190E09093C0038093BF0387E290E0A1
:102BC0009093BE038093BD038D819E8184369105D1
:102BD00010F40E94A70B8D819E810A9710F40E9429
:102BE000A70B4D815E8170E060E02AE085EA98E005
:102BF0000E945B0B84E590E09093C0038093BF0339
:102C000087E290E09093BE038093BD038F81988507
:102C10008436910510F40E94A70B8F8198850A973E
:102C200010F40E94A70B4F81588570E060E02AE005
:102C300085EA98E00E945B0B28960FB6F894DEBFF9
:102C40000FBECDBFDF91CF910F91FF90EF90089510
:102C500089E590E00E94D10ABE016D5F7F4F8BE550
:102C600090E00E94D10ABE016B5F7F4F8DE590E03E
:102C70000E94D10ABE01695F7F4F8FE590E016CFB9
:102C800010929F0842CF1F920F920FB60F921124FD
:102C90008F939F938091E1009091E100937F9093B7
:102CA000E10083FF0FC01092E90091E09093EB00E8
:102CB0001092EC0092E39093ED001092EA0398E0FA
:102CC0009093F00082FF22C093E09093E9009091EE
:102CD000F200992319F09AE39093E8009091CC03C5
:102CE000992341F09091CC0391509093CC03911192
:102CF00001C05D9A9091E903992341F09091E90315
:102D000091509093E903911101C0289A84FF18C053
:102D10008091E2008E7E81608093E2008091E100EC
:102D20008F7E8093E1008091CD038E7E80618093C1
:102D3000CD039F918F910F900FBE0F901F9018950C
:102D400080FFF7CF8091E2008E7E80618093E20069
:102D50008091E1008E7E8093E1008091CD038E7E94
:102D60008160E5CF1F920F920FB60F921124CF9280
:102D7000DF92EF92FF920F931F932F933F934F9306
:102D80005F936F937F938F939F93AF93BF93EF93D3
:102D9000FF93CF93DF93CDB7DEB76C97DEBFCDBF88
:102DA0001092E9008091E80083FF25C068E0CE0121
:102DB00045960E94D10482EF8093E8008D8987FFB9
:102DC00039C09091E80090FFFCCF982F907609F0E1
:102DD00034C19E894F89588D2F89F88C911131C04B
:102DE000803861F58091CE038093F1001092F1005C
:102DF0008EEF8093E8006C960FB6F894DEBF0FBE9E
:102E0000CDBFDF91CF91FF91EF91BF91AF919F9196
:102E10008F917F916F915F914F913F912F911F9172
:102E20000F91FF90EF90DF90CF900F900FBE0F901B
:102E30001F9018959EEF9093E800C7CF1092F10075
:102E4000D5CF913059F48111D3CF4130510581F65E
:102E50008091CE038D7F8093CE03CACF933049F407
:102E60008111C6CF4130510519F68091CE038260A1
:102E7000F2CF953041F48091E80080FFFCCF2068CC
:102E80002093E300B5CF963009F0A9C00B8D1C8DBF
:102E900022E01092E9001092CA031092C903F212C4
:102EA0002EC01092C8031092C7030E94A0041F8274
:102EB00099E09983FA8291E09E8390EA98879AEF4D
:102EC00099872091C9033091CA03275F3F4F3C8304
:102ED0002B838D831092E9001092CA031092C903CC
:102EE0001093C8030093C70349E050E0BE016F5F31
:102EF0007F4F80E00E947A040E94A00479CF109353
:102F0000C8030093C7030E943804DC0112960D9198
:102F10001C910115110509F451C1D801ED91FC91E5
:102F20000480F581E02DBE016B5E7F4FC8010995DD
:102F3000009709F03EC1F80100851185EACFF3E062
:102F4000FF120EC08F89882309F440C0823061F4DB
:102F500040E867E081E297E00E942E19811148CF96
:102F600081E28093EB0047CF813029F440E86BE0A9
:102F700085E197E0F1CF833099F70E943804DC01B6
:102F80001296ED90FC908E010F5F1F4F6801E114C7
:102F9000F10479F0D701ED91FC910680F781E02DE5
:102FA000B801C7010995080F111DF701E084F184EC
:102FB000EECFD8011C92F60101900020E9F731977D
:102FC000BF016C197D0940E0C601C6CF6FEF76E006
:102FD000FB01449150E080E80E947A0409CF9730C9
:102FE00009F4BECF983021F481E08093F10000CF46
:102FF000993009F0FDCE837009F0B2CFEAE8F3E032
:1030000081E031E096E32191222371F08093E90081
:103010003093EB00DF0111972C912093EC009093FB
:10302000ED008F5F873079F78EE78093EA0010928A
:10303000EA008F898093EA03DBCE8B8D9C8D109202
:10304000E9001092CA031092C9039093C8038093B9
:10305000C703898D811192C08E899D89913A49F467
:10306000813209F07DCF47E050E065E071E080E01B
:10307000B3CF913209F074CF833269F48F89988D80
:10308000B0E0A0E08093010190930201A0930301BE
:10309000B0930401ADCE803269F48091E80082FFE4
:1030A000FCCF67E085E091E00E94D1048BEF809334
:1030B000E8009ECE823209F09BCE8F8980930C016E
:1030C000EEEFFFE7859194918B3F9C4D51F1E0E04D
:1030D000F8E08091050190910601A0910701B0915F
:1030E0000801803B9440A105B105F1F480910C01E9
:1030F00080FD1AC0EE3F8AE0F80789F587E797E779
:1031000091838083809160008093CB0388E19BE072
:103110000FB6F894A895809360000FBE909360005E
:1031200067CEEEEFFAE0D5CF808191818737974760
:1031300009F05ECEA8958091600088618093600060
:103140008091CB0380936000EE3F2AE0F20789F084
:103150008091FE0A9091FF0A9183808349CE8081FD
:1031600091818737980751F29093FF0A8093FE0A66
:10317000C5CF1092FF0A1092FE0A3ACE0E94380480
:10318000DC0112960D911C910115110509F4E8CE90
:10319000D801ED91FC910190F081E02DBE016B5EB4
:1031A0007F4FC8010995811123CEF8010085118553
:1031B000EBCF181619060CF41BCED2CEF1E0FF129D
:1031C000BECE63E077E004CF0F920FB68F939F934C
:1031D000EF93FF938091C2038D5F8D3708F08D5779
:1031E0008093C203E3EDF3E080818E4F8083918171
:1031F0009F4F918382818F4F828383818F4F8383FF
:10320000E3ECF3E080818F5F808381818F4F818346
:1032100082818F4F828383818F4F83838FB18F60B1
:1032200066991C9B88278F3681F48091C103981B77
:10323000963068F0E0E0F8E087E78083818388E1FA
:1032400080936000F0936000FFCF9093C103FF91E3
:10325000EF919F918F910FBE0F901895EF92FF9273
:103260000F931F93CF93DF93F82E192FE62E042F81
:1032700081E0860F880F0E944C0483E00E944C047A
:10328000CF2DD12FEC0EFD2EF11CCE15DF05B9F0A0
:1032900007FF13C0FE0184910E944C04182F80E0A8
:1032A0000E944C04812321968111EFCFDF91CF91B1
:1032B0001F910F91FF90EF9008958881EDCF81E0ED
:1032C000F5CFEDEEF7E01382128288EE93E0A0E0F6
:1032D000B0E084839583A683B78384E993E09183E8
:1032E00080838FEF9FEF95878487E5EAF8E013826C
:1032F000128286EA93E091838083EFE3F8E0108204
:103300001182128281E2838310929A0810929B08A4
:1033100010929C0810929D0810929E0810929F088F
:1033200085E0E6E4F1E0A0EAB8E001900D928A952C
:10333000E1F70E94471C2EE531E040E050E00E949A
:10334000C71C6E5C7F4F8F4F9F4F70933E086093FA
:103350003D08089500D01F92CDB7DEB7789483E082
:1033600084BD83E085BD81E080936E00E1E8F0E0FC
:1033700083E08083E0E881E08083E1E983E080838B
:10338000E0E981E08083E1EC87E08083E3EC81E0A9
:103390008083E0EC82E08083E2EC81E08083EAE7F6
:1033A00087E08083806880831092EA031092CE03C6
:1033B0001092CD038091D70081608093D70080EA7E
:1033C0008093D80089B5806189BD89B5826089BD47
:1033D00009B400FEFDCF81E090E00E94C506809117
:1033E000D8008F7C80618093D8008091E000807F3E
:1033F0008093E0008091E1008E7E8093E1008DE07B
:103400008093E200559A209A81EC80937C0081EFB2
:1034100085B987EE84B982E38BB982EF8AB9769A4F
:103420006E9880EF81BB10BA80E58CBD81E08DBDC8
:1034300085E00E944A095F9A85E00E944A095C98EB
:10344000E9E2F7E085918EBD00000DB407FEFDCFE7
:10345000E633C1F75C9A81E88093640081E0809351
:10346000650080E80E9460098823A9F05C9885EADD
:103470008EBD00000DB407FEFDCF5C9A2E982F98EC
:103480002D988091640080628093640081E083BF06
:10349000889513BEFCCF84E00E946009882309F45C
:1034A00043C02D9884E80E9460098823D1F02D9AAA
:1034B00088EC0E944A092F9882E090E00E949F1CAD
:1034C0008F3F29F06FEF82E090E00E94B91C84EFFB
:1034D00091E00E94C5062F9A84E80E94600981113C
:1034E000FBCF84E10E9460098823D1F02D9A88ECFB
:1034F0000E944A092E9882E090E00E949F1C882337
:1035000029F060E082E090E00E94B91C84EF91E035
:103510000E94C5062E9A84E10E9460098111FBCFAA
:1035200088EC0E944A09B7CF2D9A80E180930D0163
:10353000809164008E7F8093640080917A00806423
:1035400080937A0080917A0086FDFCCF009178000C
:10355000109179000E945C07AB01BC01C801B0E08A
:10356000A0E0DC01992788278C019D01040F151F1D
:10357000261F371FC901B8012091640021602093E4
:103580006400611571058105910511F00E94961C7A
:103590005E9A5E9AE4E1F0E08591949188319549D4
:1035A00009F03FC0E6E1F0E08491E7E1F0E0E4916A
:1035B000F82FF093EC03E093EB0359988BEA0E9409
:1035C000A605599A41E060E080E00E94A01480E5E1
:1035D00090E00E949F1C80933F0886EAC82E83E1FA
:1035E000D82EE12CF12C95EA292E98E0392E21E1F4
:1035F000822E2AE0922EA12CB12C30E2432E512CA7
:10360000612C712C11E000E28091D103882381F0BC
:103610001092D10320E030E0232BB1F30E94000090
:10362000F1CF86E29FEF9093EC038093EB03C5CF3D
:103630009091D3038091D203292F281B822F2091B0
:103640000D01821738F48F5F821720F713BF88951A
:1036500013BEE0CF1093D1039093D203EFECF3E0CD
:10366000808191810196808391838091DB03809397
:10367000DA030E944D098093DB03E091DC03E8301C
:1036800088F4F0E0EA5BF44E0C943E1D4E1B501B98
:10369000631B721B751BA01BF51BF81B1093DC032F
:1036A0000E94240A5E98EDEEF3E080E098E000804E
:1036B0000EBC1111012C019780FDFDCF0192B9F7CD
:1036C0000DB45E9AA7CF33E03093DC030E94471C11
:1036D000A30192010E94C71C605F7F4F8F4F9F4FD5
:1036E0006093D7030E949113DDCF10929E08109231
:1036F0009F08E4E4F8E0119288E0EE35F807D9F786
:10370000EEE5F8E00083168E0183178E028310A287
:10371000038311A2048312A2359698E0EC37F907CF
:1037200089F710929A0810929B0810929C08E5E085
:10373000E093DC0380913F08882329F0813071F108
:103740000E94AD0BAFCF0E94471CA50194010E94BF
:10375000C71CAB01BC0196E0862FBA010E94441D34
:10376000842FB901625A784D8F4F0E94AD050E9497
:103770009805898320EA38E03B832A830E949805D4
:10378000EA81FB818193FB83EA832E163F06B1F722
:103790000E948C05F981F130B1F6D2CF0E94471C0E
:1037A000A70196010E94C71CAB01BC0196E0862FC1
:1037B000BA010E94441D842FB9016B537C498F4F7D
:1037C0000E94AD050E94980520EA38E03B832A83D9
:1037D0000E949805EA81FB818193FB83EA832E1680
:1037E0003F06B1F70E948C05ABCFF7E0F093DC0306
:1037F0000E94231557CF8F929F92AF92BF92CF9284
:10380000DF92EF92FF92CF93DF93EC016881798191
:103810008A819B81611571058105910521F464E21E
:1038200079ED8BE597E02DE133EF41E050E00E9428
:10383000C71C49015A019B01AC01A7EAB1E40E94EF
:10384000E61C6B017C01ACEEB4EFA50194010E9473
:10385000F41CC60ED71EE81EF91EF7FE06C081E056
:10386000C81AD108E10880E8F80AC882D982EA8239
:10387000FB82C701B6019F77DF91CF91FF90EF9058
:10388000DF90CF90BF90AF909F908F9008958F92D0
:103890009F92AF92BF92CF92DF92EF92FF92609190
:1038A0000E0170910F01809110019091110161152D
:1038B00071058105910521F464E279ED8BE597E0CE
:1038C0002DE133EF41E050E00E94C71C49015A014D
:1038D0009B01AC01A7EAB1E40E94E61C6B017C01EC
:1038E000ACEEB4EFA50194010E94F41CC60ED71EE5
:1038F000E81EF91EF7FE06C081E0C81AD108E108EB
:1039000080E8F80AC0920E01D0920F01E0921001F7
:10391000F0921101C701B6019F77FF90EF90DF9001
:10392000CF90BF90AF909F908F90089560930E01BD
:1039300070930F0180931001909311010895F999EC
:10394000FECF92BD81BDF89A992780B50895262FA4
:10395000F999FECF92BD81BDF89A019700B4021685
:1039600039F01FBA20BD0FB6F894FA9AF99A0FBE33
:103970000895262FF999FECF1FBA92BD81BD20BDB3
:103980000FB6F894FA9AF99A0FBE01960895052E8B
:1039900097FB1EF400940E94DE1C57FD07D00E9486
:1039A000F91C07FC03D04EF40C94DE1C5095409596
:1039B000309521953F4F4F4F5F4F089590958095DB
:1039C000709561957F4F8F4F9F4F08950E941B1DEB
:1039D000A59F900DB49F900DA49F800D911D112463
:1039E0000895B7FF0C94E61C0E94E61C821B930B03
:1039F0000895A1E21A2EAA1BBB1BFD010DC0AA1F30
:103A0000BB1FEE1FFF1FA217B307E407F50720F047
:103A1000A21BB30BE40BF50B661F771F881F991FC2
:103A20001A9469F760957095809590959B01AC010B
:103A3000BD01CF010895A29FB001B39FC001A39F14
:103A4000700D811D1124911DB29F700D811D1124D7
:103A5000911D0895AA1BBB1B51E107C0AA1FBB1FE4
:103A6000A617B70710F0A61BB70B881F991F5A950A
:103A7000A9F780959095BC01CD010895EE0FFF1F29
:103A80000590F491E02D0994699F9001899F402D44
:103A9000799F300D411D112497FF0895361B470B68
:063AA0000895F894FFCF29
:103AA60001FFFFFFFF00E100000000000010010021
:103AB60000000106040303040506080708090807B1
:103AC600090A0104020507050203060202030302AE
:103AD60001020202010202020303010101010201C5
:103AE6000103010301032020202020000102010020
:103AF600FFFEFF0001020100FFFEFF0000001800AC
:103B060000300000480000600000780000900000CF
:103B1600A80000C00000D80000F000000801002046
:103B26000100380100500100680100800100980181
:103B360000B00100C80100E00100F8010010020019
:103B46002802004002005802007002008C0200B2F7
:103B56000200CA0200E20200FA02001203002A036F
:103B6600004203005A03007203008A0300A2030006
:103B7600BA0300D20300EA03000204001A0400326A
:103B860004004A04006204007A0400920400AA04B5
:103B960000C20400DA0400F204000A05002205004F
:103BA6003E0500841800A31800C21800E1180000A2
:103BB60019001F19003E19005D19007C190094199F
:103BC6000010160411131814080E0F001203050630
:103BD60007090A0BFF1A19170215010D0C1BFF0026
:103BE600001205FAEC641600861600A81600CA161E
:103BF60000B81700DA1700FC17001E18004018005E
:103C06006218004018001E1800FC1700DA1700B8EA
:103C16001700CA1600A81600861600DC1500FE1549
:103C260000201600421600EC16000E170030170092
:103C360052170074170096170074170052170030B9
:103C460017000E1700EC1600421600201600FE158F
:103C560000541500761500981500BA1500B817001F
:103C6600DA1700FC17001E18004018006218004002
:103C760018001E1800FC1700DA1700B81700BA154E
:103C860000981500761500CC1400EE1400101500EF
:103C9600321500EC16000E1700301700521700748C
:103CA60017009617007417005217003017000E17EA
:103CB60000EC1600321500101500EE140044140036
:103CC600661400881400AA1400B81700DA1700FC5E
:103CD60017001E18004018006218004018001E1831
:103CE60000FC1700DA1700B81700AA1400881400A1
:103CF600661400BC1300DE1300001400221400EC4E
:103D060016000E170030170052170074170096178A
:103D1600007417005217003017000E1700EC16003B
:103D2600221400001400DE130000C1808100000090
:103D3600000000000B05D9062C052105720530058B
:103D46004E05000000008609DE04210A200A300024
:043D56000D0A000052
:00000001FF
