:100000000C949D030C94C5030C94C5030C94C50378
:100010000C94C5030C94C5030C94C5030C94C50340
:100020000C94C5030C94C5030C941A190C948919EB
:100030000C94C5030C94C5030C94C5030C94C50320
:100040000C94C5030C94C5030C94C5030C94C50310
:100050000C94C5030C94C5030C94C5030C94BB1BF2
:100060000C94C5030C94C5030C94C5030C94C503F0
:100070000C94C5030C94C5030C94C5030C94C503E0
:100080000C94C5030C94C5030C94C5030C94C503D0
:100090000C94C5030C94C5030C94C5030C94C503C0
:1000A0000C94C5030C94C5030C94C5030208D4D268
:1000B00005087F7F3E1C084120FE0105F1F1F1118A
:1000C000D1B1D111F1515151515151515151515160
:1000D0005151510000FF00007F7F09090F06007F8A
:1000E0007F19396F46007F7F4949414100266F499A
:1000F000497B3200266F49497B32FF0000FFFFFF3A
:10010000FEFFFEFF0279CD95A5CD790111111101F8
:10011000F9F901010000FF00007F7F09090F0600C7
:100120007F7F40404040007C7E0B0B7E7C00070FB1
:1001300078780F0700000000000000FF00001F3F5C
:100140003F33333333333E36363E363E363E363635
:100150003E36363E360000FF00003E7F41417F3E86
:10016000007F7F0E1C7F7F00000000000000000069
:100170000000000000000000000000003F40504070
:1001800040407846414159594141414159594141C5
:1001900041414141414100007F000001017F7F0159
:1001A00001007C7E0B0B7E7C007F7F09090F06001F
:1001B0007F7F49494141000000000000000000002D
:1001C00000003E5B4F5B3E3E6B4F6B3E1C3E7C3EF9
:1001D0001C183C7E3C181C577D571C1C5E7F5E1C07
:1001E00000183C1800FFE7C3E7FF0018241800FFC1
:1001F000E7DBE7FF30483A060E2629792926407FBB
:10020000050507407F05253F5A3CE73C5A7F3E1CC9
:100210001C08081C1C3E7F14227F22145F5F005FB5
:100220005F06097F017F006689956A606060606093
:1002300094A2FFA29408047E040810207E201008D7
:10024000082A1C08081C2A08081E101010100C1E72
:100250000C1E0C30383E3830060E3E0E06000000F4
:10026000000000005F00000007000700147F147FFB
:1002700014242A7F2A122313086462364956205018
:100280000008070300001C2241000041221C002A34
:100290001C7F1C2A08083E080800807030000808EF
:1002A000080808000060600020100804023E514960
:1002B000453E00427F400072494949462141494D2F
:1002C000331814127F1027454545393C4A494931B6
:1002D00041211109073649494936464949291E0035
:1002E00000140000004034000000081422411414DF
:1002F000141414004122140802015909063E415DFC
:10030000594E7C1211127C7F494949363E41414188
:10031000227F4141413E7F494949417F0909090105
:100320003E414151737F0808087F00417F41002012
:1003300040413F017F081422417F404040407F02FE
:100340001C027F7F0408107F3E4141413E7F090926
:1003500009063E4151215E7F09192946264949492E
:100360003203017F01033F4040403F1F2040201FD8
:100370003F4038403F63140814630304780403616A
:1003800059494D43007F414141020408102000417A
:1003900041417F0402010204404040404000030705
:1003A000080020545478407F28444438384444445A
:1003B00028384444287F385454541800087E0902D1
:1003C00018A4A49C787F0804047800447D40002091
:1003D00040403D007F1028440000417F40007C04E5
:1003E0007804787C080404783844444438FC1824A1
:1003F000241818242418FC7C080404084854545475
:100400002404043F44243C4040207C1C2040201C09
:100410003C4030403C44281028444C9090907C4410
:1004200064544C440008364100000077000000414D
:1004300036080002010204023C2623263C1EA1A12C
:1004400061123A4040207A38545455592155557913
:1004500041215454784121555478402054557940D5
:100460000C1E527212395555555939545454593934
:10047000555454580000457C410002457D4200011E
:10048000457C40F0292429F0F0282528F07C54559B
:1004900045002054547C547C0A097F49324949491B
:1004A000323248484832324A4848303A4141217A4B
:1004B0003A42402078009DA0A07D39444444393D13
:1004C0004040403D3C24FF2424487E4943662B2F76
:1004D000FC2F2BFF0929F620C0887E0903205454E5
:1004E00079410000447D413048484A32384040223A
:1004F0007A007A0A0A727D0D19317D2629292F2862
:10050000262929292630484D40203808080808089F
:10051000080808382F10C8ACBA2F102834FA000089
:100520007B000008142A142222142A1408950022A1
:100530000095AA005500AAAA55AA55AA000000FFD6
:1005400000101010FF00141414FF001010FF00FF23
:100550001010F010F0141414FC001414F700FF0035
:1005600000FF00FF1414F404FC141417101F1010E3
:100570001F101F1414141F00101010F000000000B2
:100580001F101010101F10101010F010000000FFAE
:10059000101010101010101010FF10000000FF14A9
:1005A0000000FF00FF00001F10170000FC04F414FF
:1005B000141710171414F404F40000FF00F71414B7
:1005C0001414141414F700F7141414171410101F33
:1005D000101F141414F4141010F010F000001F1069
:1005E0001F0000001F14000000FC140000F010F0B9
:1005F0001010FF10FF141414FF141010101F00002F
:100600000000F010FFFFFFFFFFF0F0F0F0F0FFFF41
:10061000FF0000000000FFFF0F0F0F0F0F384444D2
:1006200038447C2A2A3E147E02020606027E027E9E
:100630000263554941633844443C04407E201E20F7
:1006400006027E020299A5E7A5991C2A492A1C4C9C
:100650007201724C304A4D4D303048784830BC629F
:100660005A463D3E494949007E0101017E2A2A2A17
:100670002A2A44445F444440514A444040444A5139
:10068000400000FF0103E080FF000008086B6B08DA
:100690003612362436060F090F060000181800001F
:1006A000001010003040FF0101001F01011E001961
:1006B0001D1712003C3C3C3C0000000000D5F0E35C
:1006C000E3A1C881CFD9F1AF2000080B00020202DC
:1006D00000000904000001020200000524001001CE
:1006E0000524010101042402060524060001070572
:1006F000810310004009040100020A000000070500
:1007000002024000000705830240000004030904C0
:1007100012010002EF020140412336800001010274
:10072000030141726475696E6F204C4C430038625E
:100730006974434144450000381C11241FBECFEFAB
:10074000DAE0DEBFCDBF13E0A0E0B1E0E0EBFFE315
:1007500002C005900D92A631B107D9F728E0A6E1B5
:10076000B3E001C01D92AD30B207E1F713E0CDE96F
:10077000D3E004C02197FE010E94D01FCC39D107DD
:10078000C9F70E94811C0C94D61F0C940000480FDE
:10079000592F511D1416150684F5803891056CF5F6
:1007A00097FF02C090E080E04138510514F040E826
:1007B00050E0481BFB01E770FF2721E001C0220F3A
:1007C000EA95EAF777FF02C0695F7F4FFB0133E0EC
:1007D000F595E7953A95E1F7F695FE2FEE27F79513
:1007E000E795E80FF91FEF5AFC4F415030F0819127
:1007F000DF011197822B8C93F8CF0895FC01809133
:100800005003882311F13FB7F89482E08093E90008
:100810002091F200822F90E01816190614F481E05E
:1008200090E0882339F0289844E640934F034091A4
:10083000F1004083222339F02091F200211103C0FE
:100840002BE62093E8003FBF08958FEF9FEF0895B8
:100850002FB7F89483E08093E9009091E800892F06
:10086000807295FF04C09091F20080E4891B2FBF35
:1008700008958091470381110DC082E08093430366
:1008800084E080934403109246031092450381E074
:100890008093470383E493E00895CF93DF931F92FF
:1008A000CDB7DEB76983DC01ED91FC910280F38165
:1008B000E02D41E050E0BE016F5F7F4F09950F9042
:1008C000DF91CF91089583E08093E9008091F20059
:1008D000882319F08AE38093E80008950E94280491
:1008E00090E00895CF93DF931F92CDB7DEB7FC0160
:1008F0008485958597FD08C02FEF3FEF35872487C6
:100900000F90DF91CF910895CE0101960E94FE03D2
:10091000019719F4898190E0F3CF8FEF9FEFF0CF2B
:100920000F931F93CF93DF931F92CDB7DEB78C0148
:10093000FC018485958597FF0BC0CE0101960E942E
:10094000FE03019771F4898190E0F801958784870F
:10095000F801848595850F90DF91CF911F910F91BC
:1009600008958FEF9FEFF1CFFC018485958597FD6A
:100970000BC09FB7F89482E08093E9008091F20069
:100980009FBF90E0019608959FB7F89482E080930E
:10099000E9008091F2009FBF90E0089540913D03EF
:1009A00050913E0320913B0330913C034217530783
:1009B000B4F49091E8009570E1F39091E80092FD15
:1009C00019C08093F10080913D0390913E03019600
:1009D0008F739927892B19F48EEF8093E80080910B
:1009E0003D0390913E03019690933E0380933D0317
:1009F00081E0089580E00895DF92EF92FF920F93D7
:100A00001F93CF93DF93D82E8A01EB017B01E40E75
:100A1000F51ECE15DF0559F0D7FE12C0FE018491F8
:100A20000E94CE0421968111F4CF0FEF1FEFC80171
:100A3000DF91CF911F910F91FF90EF90DF9008957C
:100A40008881EECF0F931F93CF93DF931F92CDB783
:100A5000DEB782E0898342E450E06AEC76E080E829
:100A60000E94FC040E943904DC0112960D911C9135
:100A70000115110589F0D801ED91FC910280F381F7
:100A8000E02DBE016F5F7F4FC801099597FD04C03F
:100A9000F80100851185ECCF89810F90DF91CF910E
:100AA0001F910F910895615030F02091F100FC01E9
:100AB00020830196F8CF289884E680934F03089509
:100AC000AF92BF92CF92DF92EF92FF920F931F935C
:100AD000CF93DF936C017B018B01040F151FEB019A
:100AE0005E01AE18BF08C017D10759F06991D60151
:100AF000ED91FC910190F081E02DC6010995892BC3
:100B000079F7C501DF91CF911F910F91FF90EF9081
:100B1000DF90CF90BF90AF9008950DB407FEFDCF4A
:100B20008EB55A9A08950E949905982F0E949F05A4
:100B300008950DB407FEFDCF8EB51EBC08950C942C
:100B40008D050E949905982F0E94990508958EBDE4
:100B500000000DB407FEFDCF8EB50895CF92DF9251
:100B6000EF926B01E82E00902903D00C00902A032D
:100B7000E01C5A9883E00E94A7058E2D0E94A705CD
:100B80008D2D0E94A7058C2D0E94A7051EBCEF90FD
:100B9000DF90CF9008954F925F926F927F928F92E5
:100BA0009F92AF92BF92CF92DF92EF92FF920F93FC
:100BB0001F93CF93DF935C016B012901642EF02E0C
:100BC000842FB9010E94AE050E94A105782EC82F7E
:100BD000D92F0E949305AE014A0D5B1D1416150610
:100BE0000CF0E7C020E8A216B1040CF0E2C08C01C2
:100BF0009C012C0D3D1D121613060CF0DAC090E47A
:100C0000C916D1040CF0D5C0B7FE0BC088249924B6
:100C10008A189B08F72DF8194038510554F0F0E870
:100C200008C0F0E8FA19413851050CF4F72D912C61
:100C3000812CD7FE08C0EC2DE770E05C0134110573
:100C40003CF4E82F05C0E0E4EC1921343105CCF385
:100C5000A801495F5F4F57FF02C0495F5F4F83E0C4
:100C6000559547958A95E1F7F49E9001F59E300DD4
:100C70001124032E000C440BBE010D2E000C880B1A
:100C80000E94A61FA82FCB01880D991DA11D97FCBE
:100C9000AA95E4FE05C0880F991FAA1FCC0FDD1F7F
:100CA000462D92012C5F3F4F4F4F280F391F4A1F8F
:100CB000C60153E0959587955A95E1F761E0C1FC2F
:100CC00064E0C0FC660FC2FC6295DC01B695BA2FE9
:100CD000AA27B795A795AA0DBB1DA80DB91DAF5A98
:100CE000BC4F582F5A9883E08EBD80912903909174
:100CF0002A03830F941F0DB407FEFDCF9EBD0DB4D4
:100D000007FEFDCF8EBD0DB407FEFDCF2EBD2C0F0F
:100D10003D1F411D0DB407FEFDCF1EBCEE0C57302C
:100D200014F4089460FD8894E79472E001FD78E083
:100D300002FD729500FF76957A9511F0E8300CF07F
:100D40007FEF9F2F0EB41EBCE3FC0726872FE0FC2D
:100D5000802DE2FC0024069E6001E4FA36F4C8957A
:100D6000C89511240EB41EBCE0FC082E069E50301F
:100D700034F08C91E1FEC826C020C826CC92A05841
:100D8000BF4FE7FE06C08C91E1FED826D120D826C1
:100D9000DC921124AF57B0409A95A1F6A058BF4FEE
:100DA000AF1BB109E85053950DB45A9A1E160CF4B6
:100DB00099CFDF91CF911F910F91FF90EF90DF902E
:100DC000CF90BF90AF909F908F907F906F905F90EB
:100DD0004F900895FC010E948107319728F06851D7
:100DE0007C4F8F4F9F4FF9CFAB01FC010E948107D1
:100DF000641775078E079F07C8F308958F929F9217
:100E0000AF92BF92CF92DF92EF92FF920F931F9318
:100E1000CF93DF936C017B018A0180910E018823BF
:100E200009F45AC080915003882309F455C0809179
:100E3000420380FF05C08091E00082608093E00063
:100E4000E801B12C8AEFA82E93E0892E2AE3922E96
:100E5000209711F4BB20C9F10E942804811108C019
:100E6000AA94AA20C9F181E090E00E94EA06F0CF9E
:100E70008C171D0611F00CF08C2F9FB7F894809200
:100E8000E9002091E80025FD02C09FBFE1CF282F97
:100E900030E0C21BD30BF701815020F04191409309
:100EA000F100FACFE20EF31EBB2021F09092E80091
:100EB000B12CEBCF8091E80085FDE7CF9092E80060
:100EC000BB24B394209709F3F3CF5D9884E6809315
:100ED0004103101611063CF081E090E0F601938387
:100EE000828310E000E0C801DF91CF911F910F9144
:100EF000FF90EF90DF90CF90BF90AF909F908F903A
:100F00000895A5E2B3E02FB7F8947D918D919C915F
:100F100066B52FBFA89B05C06F3F18F47F5F8F4F4A
:100F20009F4F22E0660F771F881F991F2A95D1F7E0
:100F300008952F923F924F925F926F927F928F927D
:100F40009F92AF92BF92CF92DF92EF92FF920F9358
:100F50001F93CF93DF9300D000D01F92CDB7DEB7A1
:100F60005D834C835901EC2D452BD1F1402F50E08E
:100F7000162F17701983A3E075956795AA95E1F769
:100F8000262FDA01A80FB91FA038B10514F000E828
:100F9000081BA1E0FE2DF77009F4A0E0E694E694AA
:100FA000E694EA0EDB01AE0DB11D19971CF0F8E0D6
:100FB000EF2EE61ADB01B695BA2FAA27B795A795AB
:100FC0008A0F9B1F3981A32F330FBB0BE33009F42A
:100FD00035C1F0F4E13009F4EEC0E23009F453C059
:100FE0000F900F900F900F900F90DF91CF911F9166
:100FF0000F91FF90EF90DF90CF90BF90AF909F90B8
:101000008F907F906F905F904F903F902F900895BA
:10101000EA3F09F48CC0EB3F19F7E22FE61BEE150F
:10102000F8F6FC01EF5AFC4F6F01B12CA12CEC81BA
:10103000FD81A01608F0ACC0EA0DFB1D8490912C38
:101040000A2E02C0880C991C0A94E2F727FD07C0FB
:10105000F6017080F82DF0957F22F6017082F980FC
:10106000FF2051F0273044F4F601E058FF4F892C5F
:1010700080949080982090821FEFA11AB10A3FEFD0
:10108000C31AD30AD4CF66246A94712C098002C093
:10109000660C771C0A94E2F760947094572CE22F48
:1010A000E61BEE1508F09CCFFC01EF5AFC4F6F01D8
:1010B000B12CA12CEC81FD81A01650F5EA0DFB1D91
:1010C000E491F0E01F010A2E02C0220C331C0A94A6
:1010D000E2F727FD05C0F6019080962092289082C5
:1010E000F980FF2071F0273064F4460110E8810E8A
:1010F000911CF4014080E42DE5214E2E4328F4019B
:101100004082FFEFAF1ABF0A1FEFC11AD10AD2CF38
:10111000E40FF51FFD83EC8380589F4F2F5FBFCFF7
:10112000E40FF51FFD83EC8380589F4F2F5FE22F64
:10113000E61BEE1508F054CFFC01EF5AFC4F6F018F
:10114000B12CA12CEC81FD81A01650F7EA0DFB1DFE
:101150008490912C0A2E02C0880C991C0A94E2F704
:1011600027FD04C0F601708078287082F980FF2086
:1011700041F0273034F4F601E058FF4F8080982882
:1011800090821FEFA11AB10A3FEFC31AD30ADACF38
:10119000E40FF51FFD83EC8380589F4F2F5F3DCFF9
:1011A000EC81FD81E40FF51FFD83EC83A40EB51ED9
:1011B00080589F4F2F5FE22FE61BEE1508F010CFEF
:1011C000FC01EF5AFC4F6F01912C812C801640F7E7
:1011D000F501E80DF91D6490712C0A2E02C0660C11
:1011E000771C0A94E2F760947094EC81FD81E80D1D
:1011F000F91D4490512C0A2E02C0440C551C0A942F
:10120000E2F727FD08C0F6013080E32DE6213E2EEF
:101210003428F6013082F980FF2049F027303CF471
:10122000F601E058FF4F60807620752870821FEF2E
:10123000811A910A3FEFC31AD30AC8CFE02FF0E01A
:101240008F5A9C4FA0E8B0E06D01CE1ADF0A4E1B0A
:101250005F0B4A01880C991CE1E0F0E05F01098016
:1012600002C0AA0CBB1C0A94E2F7B02E402F5E2DE0
:10127000EC81FD81DC0186019401F980CF93DF933D
:10128000ED01EF96EF96229665908590FF2059F03C
:101290006A9C30018A9C400167302CF4C88090948D
:1012A000C920C728C99266233AF0CC908094C82000
:1012B000C628CD920C945D0911964A9529F75A9546
:1012C00051F04B2D63951124E20FF11DA00FB11DBC
:1012D000C00FD11DD9CFDF91CF91112481CE90E0E5
:1012E0000C94EA068FB18095827F669B88601C9B78
:1012F00084601F9B8160089590913803982329F49E
:1013000090913903982381E009F480E00895CF9308
:10131000C82F0E947209982F9C2381E09C1380E0C3
:10132000CF91089580389105B8F460347105A0F428
:1013300090E121E061FD24E060FD220F62FD229535
:10134000687F969FD0011124A80FAF5ABC4F0C9014
:10135000022A40FF02260C9208956F927F928F928C
:101360009F92AF92BF92CF92DF92EF92FF920F9334
:101370001F93CF93DF936D3089F0C0901F03D090FF
:1013800020036A30E1F4109222031092210388E0D6
:10139000C80ED11CD0922003C0921F0381E090E0C0
:1013A000DF91CF911F910F91FF90EF90DF90CF9041
:1013B000BF90AF909F908F907F906F9008956090B6
:1013C0000101E0902103F0902203E5E06E9FE0012F
:1013D0001124C354DE4F570100E010E0053029F01E
:1013E000CE010196FE011491EC01460188E0782EB1
:1013F000412F417010FD1BC0662021F0B401C501D2
:101400000E94920916957A94FFEF8F1A9F0A711025
:10141000EFCF0F5F8FEFA81AB80A0630F1F6E6E0BB
:10142000EE0EF11CF0922203E0922103B7CF462D7D
:10143000E5CF682F89E098E00C94AD09DF92EF9238
:10144000FF920F931F93CF93DF937C01D22E8B01DA
:10145000040F111DEB0177FF02C0D0E0C0E0C8010E
:101460000134110514F080E490E0C817D9073CF46A
:101470004D2DBE01C7010E9492092196F0CFDF9148
:10148000CF911F910F91FF90EF90DF900895EF9211
:10149000FF920F931F93CF93DF937C018B01C42F97
:1014A000D22F6034710510F40E94C703B8016D0F8C
:1014B000711D615071096034710520F44C2FC70112
:1014C0000E94C70321E04D2FB801C7010E941E0AE8
:1014D000C7018C0F911D21E04D2FB8010197DF91BD
:1014E000CF911F910F91FF90EF900C941E0ACF9215
:1014F000DF92EF92FF920F931F93CF93DF936B01D5
:10150000122FEC017C01E40EF11CCE15DF0544F432
:10151000202F412FB601CE010E941E0A2196F5CF41
:10152000DF91CF911F910F91FF90EF90DF90CF90BF
:101530000895089590E080E00895CF92EF920F9380
:10154000CF9380913803809590913903892319F0C6
:1015500082E080933A03E7EBF0E00491E8EBF0E0FF
:10156000E49022E0C22E30E020E049EB50E061E15F
:1015700070E080E290E00E94990780912B039091A7
:101580002C0360E370E00E94BC1F8831B8F4C1E115
:101590008C3008F0CEE1E0EBF0E00491E1EBF0E01C
:1015A000E49092E0C92E30E020E042EB50E069E1A7
:1015B00070E08BE590E00E94990704C0CFE184328F
:1015C00008F0C0E26C2F70E041E084E390E00E94FC
:1015D0009209C0FD12C0ECEAF0E00491EDEAF0E0FF
:1015E000E49082E0C82E30E020E04EEA50E06CE16A
:1015F00070E08DE290E00E949907CF910F91EF90FB
:10160000CF900895CF92DF92EF92FF920F93CF93F6
:10161000DF931092010184E0E82E88E0F82EC0E20A
:10162000D0E092E3C92ED12C01E02BE04BE060E347
:1016300070E0CE010E94770ACE01039690932203B8
:1016400080932103D0922003C0921F03F701819160
:101650007F010E94190A2D96C136D10529F781E034
:1016600080930101DF91CF910F91FF90EF90DF9078
:10167000CF900895CF92DF92EF92FF920F931F9336
:10168000CF93DF93CDB7DEB7A1970FB6F894DEBF47
:101690000FBECDBF9C0150E040E019A28E010F5D4E
:1016A0001F4F8AE0C82ED12CE12CF12CCA01B901C0
:1016B000A70196010E94751F605DF80162938F017A
:1016C000211531054105510589F790E080E03097FB
:1016D00061F001900020E9F73197AF01401B510BF9
:1016E000B80189E098E00E946005A1960FB6F894D1
:1016F000DEBF0FBECDBFDF91CF911F910F91FF9045
:10170000EF90DF90CF90089541E050E063E173E007
:1017100089E098E00C9460050F931F93CF93DF93BB
:101720008C01EB010E941B1F8883C80101960E9457
:101730001B1F8983CE01DF91CF911F910F910895D7
:10174000FF920F931F93CF93DF93EC018B01FB016B
:10175000F0800E941B1FF81621F06F2DCE010E9411
:10176000351FF801F1802196CE010E941B1FF8164B
:1017700021F06F2DCE010E94351FC801DF91CF915E
:101780001F910F91FF900895CF93DF9300D000D069
:10179000CDB7DEB71A8219821C821B82BE016F5F31
:1017A0007F4F81111EC083E590E00E948C0B8981E0
:1017B0009A8101969A838983BE016F5F7F4F83E58B
:1017C00090E00E94A00BBE016D5F7F4F85E590E029
:1017D0000E94A00B0F900F900F900F90DF91CF9170
:1017E00008958BE590E00E948C0B89819A81019687
:1017F0009A838983BE016F5F7F4F8BE590E00E94E3
:10180000A00BBE016D5F7F4F8DE590E0E1CF2F9281
:101810003F924F925F926F927F928F929F92AF9280
:10182000BF92CF92DF92EF92FF920F931F93CF93CD
:10183000DF93CDB7DEB7CD54D1090FB6F894DEBF34
:101840000FBECDBF8091A1079091A207892B61F4B3
:1018500080910001813009F45AC060F0823009F4AF
:101860006CC0833009F476C0C12C00E010E0D12CAC
:10187000F12C1FC060911E0325E0629FB00111246E
:10188000072E000C880B6A53734E8F4F0E94AE05D3
:101890000E949905F82E0E949905C82E0E9499056C
:1018A000D82E0E949905182F0E949905082F0E9492
:1018B0008D0584E00E948709882309F456C0809131
:1018C00003088F5F80930308803419F485E08093C8
:1018D000020880910208823009F495C008F048C0DF
:1018E000813009F45FC080E20E947C09882309F4FA
:1018F0006FC18091A507882309F461C1833008F086
:1019000067C18091A40781115EC188E05FC16091C9
:101910001E0335E0639FB0011124072E000C880BD5
:101920006654764E8F4F0E94AE050E949905F82EA0
:101930000E949905C82EC194B1CFF0901E038F2D3F
:1019400066E00E94B01F192F16951D5FC12C00E0A4
:10195000D12CAFCF80911E0390E9F92EF81A66E0E2
:101960000E94B01F192F1695F1CF10920308B1CF26
:10197000843009F414C1853009F0B5CF88E00E94A5
:101980007C09811105C084E00E947C098823A9F0AC
:101990008091FF07882321F08091A3070E94C40B48
:1019A00087E0B7C088E00E947C09811104C084E010
:1019B0000E947C098111109202088091A1079091E8
:1019C000A207892B09F024C480910001813009F419
:1019D000EDC308F4C2C3843008F01AC4812F90E02C
:1019E000FC01EE0FFF1FE80FF91FE45BFE4F2081A3
:1019F00031814281E12C00E06DE270E0AF2DA05119
:101A0000BB0BCD0103C488E00E947C09811105C095
:101A100084E00E947C09882381F2A090FF07E09077
:101A2000A3071DAE1CAE1BAE1AAE1EAA1DAA1C8EAD
:101A30001B8E1A821982B12CAA0CBB1CBE01645CDD
:101A40007F4FE1106CC081E590E00E948C0BBE01DD
:101A5000665C7F4F83E590E00E948C0BBE016B5C5F
:101A60007F4F85E590E00E948C0BBE01655E7F4F45
:101A700087E590E00E948C0BBE016F5F7F4FC50130
:101A80008F599F4F0E948C0B8CAD9DAD01969DAFE1
:101A90008CAF8AAD9BAD01969BAF8AAF8DA99EA9F5
:101AA00001969EAB8DAB29813A812F5F3F4F3A83E0
:101AB00029832B8D3C8D2817390710F49C8F8B8F31
:101AC000BE01645C7F4FE1104AC081E590E00E9456
:101AD000A00BBE01665C7F4F83E590E00E94A00BE7
:101AE000BE016B5C7F4F85E590E00E94A00BBE01BC
:101AF000655E7F4F87E590E00E94A00BBE016F5F9F
:101B00007F4FC5018F599F4F0E94A00B8091FF0707
:101B10008F5F8093340386E080933A034ECF89E54C
:101B200090E00E948C0BBE01665C7F4F8BE590E0DD
:101B30000E948C0BBE016B5C7F4F8DE590E00E9494
:101B40008C0BBE01655E7F4F8FE590E00E948C0B91
:101B5000BE016F5F7F4FC50183599F4F93CF89E5CA
:101B600090E00E94A00BBE01665C7F4F8BE590E089
:101B70000E94A00BBE016B5C7F4F8DE590E00E9440
:101B8000A00BBE01655E7F4F8FE590E00E94A00B29
:101B9000BE016F5F7F4FC50183599F4FB5CF88E06E
:101BA0000E947C09811106C084E00E947C09882380
:101BB00009F403CF8091A3070E94C40BACCF80919E
:101BC000A407882311F0815001C089E08093A40705
:101BD00080E40E947C09882371F08091A507882306
:101BE00009F491C0833038F48091A407883008F458
:101BF0008FC01092A40780E80E948709882359F0BB
:101C00008091A707833038F08091000887FF03C0D8
:101C10008F5F8093000880E80E947C09882359F038
:101C20008091A707811107C08091A507811174C019
:101C300082E08093A70780E10E948709882391F0C2
:101C40008091A707833070F080910008E091FF0732
:101C5000F0E0EC55FE4F908198170CF074C0815065
:101C60008093000880E10E947C09882361F08091C4
:101C7000A707811108C08091A507882309F467C0D0
:101C8000813009F473C084E00E947C098823A9F0A4
:101C9000E091FE07EE2389F0E150E093FE0780918A
:101CA000FF0745E0849FC00111248D55984FE80F30
:101CB000F92FF11D80E2878F15AE88E00E947C0924
:101CC000882309F47ACEA091A407A11151C0809174
:101CD000A507823009F017C2E091FE07EE2309F450
:101CE0006CCEE150E093FE078091FF0755E0859FA1
:101CF000C00111248D55984FE80FF92FF11D80E296
:101D0000878F15AE5ACE8091A407893008F071CF25
:101D10008F5F8093A4076FCF813091F0823009F0FC
:101D20008ACF8091A407893039F481E08093A50798
:101D300088E08093A4077FCF81E08093A5077BCFC5
:101D40001092A50778CF81E08093A7078BCF809171
:101D5000A407893039F481E08093A50788E0809357
:101D6000A40791CF81E08093A5078DCF82E0FBCFC0
:101D7000A83009F0C8C19091A507923009F0C3C1FD
:101D8000E091FF076E2F70E095E0E99FF0011124CC
:101D900030E020E0D901AE0FBF1FAD55B84F5F96C0
:101DA0009C91903209F409CE2F5F3F4F25303105C9
:101DB00089F7DF01AE53B84F3D012E01B5E34B0E5D
:101DC000511CFE0131965F014E01FAE38F0E911C0A
:101DD000950144E058E0D20191E0F301E1903F0128
:101DE000ED92FA01E190AF01F901E1929F01F30157
:101DF000958FA815B90589F7A50124965FAE4EAE5B
:101E000024972496EEADFFAD249721912496FFAF41
:101E1000EEAF2497FA019191AF01291380E0249647
:101E20002EAD3FAD2497A217B30759F78823C9F009
:101E300085E0869FF001879FF00D1124ED55F84F46
:101E400082E085AF86AF87AFDF01A05CBF4F8C9388
:101E5000EF5BFF4F80838093020883E1809301084A
:101E6000ACCDEDA88091A307882339F1813009F426
:101E70004FC04E01B0E28B0E911C0E9499051E01CD
:101E8000EBE12E0E311C31010E949905D3018D9397
:101E90003D01A815B905C1F78B8DE81638F0E81299
:101EA00060C09C8D8EA9891708F05BC00E948D05CB
:101EB00081E0809302088FE0D1CF4E2D4154550B25
:101EC0002AE1249FB001259F700D11248EA9815411
:101ED000990B680F791F072E000C880B6751704F04
:101EE0008F4F660F771F881F0E94AE050E94A105C5
:101EF0004C010E948D0586E0889DB001899D700D82
:101F0000112480E06E59754D8F4F0E94AE05B1CF00
:101F1000AE2DA154BB0B2AE12A9FB0012B9F700D5F
:101F200011248EA98154990B680F791F072E000C7C
:101F3000880B63577D4E8F4F660F771F881F0E9457
:101F4000AE050E94A1054C010E948D0586E0889D8A
:101F5000B001899D700D112480E0685379498F4F3D
:101F6000D4CFD201F10191918D91981386CFE615CE
:101F7000F705C9F78090FF07B5E08B9E400111245B
:101F800094012D55384FF20181E090E042E050E29B
:101F90007191D5016D915D01761308C0D901A80F2B
:101FA000B91FDC964C93D50111975C93019686304E
:101FB000910571F7E4E0F8E05401B5E2AB1AB1081D
:101FC00073E060E2D2014D912D018191082E000C49
:101FD000990B48171906E1F090E080E0D901A80FAD
:101FE000B91FDD964C91423009F477C041E050E0D2
:101FF0004C0F5D1F480F591FD101EC90DA017C9006
:10200000E7106BC0DF01AA0DBB1D7C93DA016C9356
:10201000BFEF2B1A3B0A24964EAD5FAD24974416B2
:10202000550681F690E080E079E0A72E78E0B72EA3
:10203000E4E0EE2ED901A80FB91FDD964C91DD9793
:102040004130B9F4E5E3F0E0EC0FFD1FE80FF91FB4
:10205000408150E0E4E0F8E06191062E000C770B3F
:102060004617570719F4DD96EC92DD97AE16BF06BA
:1020700099F7019685309105E9F690E080E0F90145
:10208000E80FF91F45AD413059F4E5E3F0E0EC0FFE
:10209000FD1FE80FF91FE081F0E0E959F84F408398
:1020A00001968530910559F7F401E052F84F80E030
:1020B00091E02191243019F4DF0111979C938F5FF7
:1020C0008530B9F783E0809302088091FF0785305F
:1020D00051F484E08093020870CC0196853091051C
:1020E00009F07CCF95CF1092FE0791E0980F909366
:1020F000FF07923008F461CC93EF899F802D112463
:10210000809300085ACC8091FE07853008F055CCAA
:10211000E091FF0755E0E59FF0011124ED55F84FE0
:10212000E80FF11D2091A5079AE0299F9001112445
:102130002A573E4FA20FB32FB11D9C919F5B978FE3
:102140008F5F8093FE07853009F037CC88E080935D
:10215000A40782E08093A50730CC0023A9F0A02F2C
:10216000A150BB0BFD01EE0FFF1FEA0FFB1FE05953
:10217000FE4F208131814281E12C00E06CE170E072
:1021800082E090E00E94CB05EF2DE051FF0B5F0154
:10219000F1E0DF122AC0E12C00E024EA39E140E05E
:1021A00064E270E0C5010E94CB051FC00023A9F0C6
:1021B000202F2150330BF901EE0FFF1FE20FF31F09
:1021C000E059FE4F208131814281E12C00E06CE139
:1021D00070E08AE690E00E94CB0588E890E05C0120
:1021E000AF18B10831E0D316B1F2812F90E0FC01B5
:1021F000EE0FFF1FE80FF91FE45BFE4F20813181D6
:102200004281E12C00E06DE270E0C5010E94CB0547
:1022100020900008D12CFE013196FFAFEEAF022CCA
:10222000000C330891012E5F3F4F2A963FAF2EAF2F
:102230002A97A101425051092C965FAF4EAF2C97BF
:102240008C2D0C2C000C990B2E969FAF8EAF2E97D9
:10225000DE0116962296BFAFAEAF22979091FF0790
:10226000809102089D1508F41BC1EEADFFAD25E07D
:1022700011922A95E9F7813029F0823009F48BC058
:1022800020E00AC09D11FCCFE0910108EE23C1F3CC
:10229000F0E0EA58FE4F20813DE0D39EC0011124BA
:1022A0002A964EAD5FAD2A97480F591F26965FAF0D
:1022B0004EAF2697DC01A20DB31D2496BFAFAEAF83
:1022C00024970D962C96EEADFFAD2C97E80FF91FD5
:1022D0002896FFAFEEAF2897F5E0DF9EC0011124EE
:1022E000AC014D55584F3A01CE0101962C012E9666
:1022F000EEACFFAC2E97E20EF11C27FDFA94D20152
:102300000D912D01002E000C110B26968EAC9FAC6A
:102310002697800E911E5701B3E2AB0EB11CF3015C
:1023200085AD823009F46EC0833009F488C0811114
:10233000B3C081E080930101B0922203A0922103F7
:102340009092200380921F03878D0E94190A28967D
:10235000EEADFFAD28970E0F1F1F41E0B801C7017A
:1023600081960E94920941E0B801C5010E9492093C
:1023700041E0B801C70185960E94920941E0B80189
:10238000C70187960E94920941E0B801C70189966A
:102390000E9492096EC09D1173CFE09101088FEFEA
:1023A0008E0F8E3030F4AE2FB0E0AA58BE4F8C9115
:1023B00089838EEF8E0F8E3030F4AE2FB0E0AB58A5
:1023C000BE4F8C918A838DEF8E0F8E3030F4AE2FFE
:1023D000B0E0AC58BE4F8C918B838CEF8E0F8E305B
:1023E00030F4AE2FB0E0AD58BE4F8C918C838BEFA4
:1023F0008E0F8E3008F044CFF0E0EE58FE4F808113
:102400008D833ECF1092010124966EAD7FAD24974F
:10241000600F711F01E02BE04BE0C70180960E9426
:10242000770AB0922203A092210390922003809217
:102430001F03D3015F968C910E94190A1AC081E094
:1024400080930101B0922203A09221039092200375
:1024500080921F03878D0E94190A24966EAD7FAD6E
:102460002497600F711F2BE04BE0C70180960E94FC
:10247000470ABFEF6B1A7B0AEDE0EE0EF11C2296C5
:102480002EAD3FAD22972415350509F038CF81E0F8
:1024900080930101D394E2CE81E080930101C1CF0A
:1024A000823009F49FC108F00FC1813009F482C164
:1024B0003091A60725963FAF25978AE1E3E1F1E049
:1024C000DE015B9601900D928A95E1F78AE1EDE2DB
:1024D000F1E0DE01119601900D928A95E1F7432E0D
:1024E000512C12014FEF241A340A83E18C0DA82ECF
:1024F000B12C650151E0C51AD10800E022E34DE599
:10250000B101C6010E94770ACE014B9628969FAF73
:102510008EAF2897DE0111962A96BFAFAEAF2A97ED
:10252000E3EAF7E02496FFAFEEAF249710E02AE04D
:10253000F22E2896AEADBFAD28978D912896BFAFED
:10254000AEAF289781502A96EEADFFAD2A979191B4
:102550002A96FFAFEEAF2A972FEF290FF9E08F9F52
:10256000802C112434E0923008F430E0830E933054
:1025700009F06AC19EEF2F9D602C1124712C3FEF52
:10258000631A730A640C751C890E8A0C9B2C911CAF
:102590009091A40789135AC18091A507281356C1A9
:1025A0008091A707811152C1EE24E394012F2EE4FC
:1025B00032E040E0B301C4010E94CB058091A50741
:1025C0002091A407F89EC00111248A579E4F820FC4
:1025D000911DDC01EC91F0E0ED55F84F858190E123
:1025E000E92E00E02CE934E040E0813019F428ECD9
:1025F00034E040E0B301C4010E94CB051F5F249684
:102600002EAD3FAD24972F5F3F4F24963FAF2EAFA7
:1026100024971A3109F08DCF420135E1830E911CC8
:102620008091A407EE24E39400E0811107C080911B
:10263000A5072AE534E040E0823019F02CE032E0D2
:1026400040E0B401C5010E94CB05C501865B9F4FE8
:102650002091A407EE24E39400E0283009F008C19B
:102660002091A507223009F003C126E734E040E0BD
:10267000B4010E94CB0525964FAD2597403428F430
:102680004BE5B201C5010E94C70321E042E3B1015D
:10269000C6010E941E0A21E042E3B101C501855A2C
:1026A0009F4F0E941E0A8091A707823008F4E4C061
:1026B000843048F5B20164507109EE24E39400E0DF
:1026C0002FE538E040E0E1C0843009F49CC085305B
:1026D00009F0EECE00E020E240E863E270E090E036
:1026E00080E00E94770A8091A307E12C8111A3C0AA
:1026F00020EC37E040E065E270E08DE190E00E9480
:10270000CB050E94020B8091A707813009F4C1C05C
:10271000823099F48091A6078F5F8093A6079091ED
:10272000FF07923028F0909100089F5F9093000877
:10273000803419F483E08093A707209101088091E9
:102740002B0390912C03222329F080FD03C02150FC
:102750002093010863E070E00E94BC1F892B81F484
:102760008091A1079091A207009709F4A6C0019754
:102770009093A2078093A107892B11F410921E0356
:10278000C35BDF4F0FB6F894DEBF0FBECDBFDF9146
:10279000CF911F910F91FF90EF90DF90CF90BF905E
:1027A000AF909F908F907F906F905F904F903F90F1
:1027B0002F9008958091A307E12C00E081110AC0B9
:1027C00028E535E040E060E370E087E190E00E94BA
:1027D000CB0599CF20E036E040E060E370E085E093
:1027E00090E0F5CF8091A307E12C00E024EF34E0E6
:1027F00040E0882319F026E235E040E060E370E035
:1028000089E290E0E4CF0E94020B8091A307E12CC3
:1028100000E0811108C020EF36E040E065E270E0A2
:1028200082E190E0D4CF20E537E040E065E270E05F
:102830008AE090E0CCCF00E02AE038E040E065E2BA
:1028400070E080E290E05BCF90E095CE2496EEAD14
:10285000FFAD24978581EE24E394012F20E030E042
:1028600040E0882309F4C6CE2EE432E040E0C2CE38
:1028700028E232E040E0FCCEB20164507109EE245F
:10288000E39400E026E538E040E0C5018A5A9F4F16
:102890009ECF8091A60781508093A6079091FF0755
:1028A000923028F090910008915090930008813266
:1028B00009F043CF1092A70740CF809100018130EB
:1028C000F1F108F1823009F454C0833009F058CF97
:1028D00080911E038F5F80931E03813908F450CFCF
:1028E0000E94C31E2CE434E040E050E00E94431FED
:1028F00060577E4F8F4F9F4F7093A2076093A10741
:10290000109200013DCF80911E038F5F80931E03C4
:102910008C3908F435CF0E94C31E2CE434E040E02B
:1029200050E00E94431F60577E4F8F4F9F4F709320
:10293000A2076093A10782E08093000121CF8091DC
:102940001E038F5F80931E038C3908F419CF0E94F9
:10295000C31E2CE434E040E050E00E94431F605767
:102960007E4F8F4F9F4F7093A2076093A10783E024
:10297000E3CF80911E038F5F80931E03813908F49B
:10298000FFCE0E94C31E2CE434E040E050E00E94E1
:10299000431F60577E4F8F4F9F4F7093A2076093E6
:1029A000A10781E0C9CFEF920F93CF93DF9300D0BF
:1029B00000D000D0CDB7DEB788E00E947C09882324
:1029C00019F084E080933A0380E20E947C09882316
:1029D00059F08091A307813039F41092A30760E089
:1029E00080E590E00E94231F80E40E947C098823F8
:1029F00061F08091A307811108C081E08093A30753
:102A000061E080E590E00E94231F84E00E947C0941
:102A1000882331F087E08093340386E080933A0383
:102A2000DE01119686E0FD0111928A95E9F7809109
:102A300035038111BAC0E0913603EA0FFB2FF11D77
:102A40008091370381508083E9818E2F90E0FC01D3
:102A5000EE0FFF1FE80FF91FE854FD4F2081318171
:102A60004281EE24E39400E06BE070E08EE090E0C1
:102A70000E94CB05EA818E2F90E0FC01EE0FFF1F34
:102A8000E80FF91FEE57FD4F2081318142816BE045
:102A900070E08FE190E00E94CB05EB818E2F90E0FB
:102AA000FC01EE0FFF1FE80FF91FE45BFD4F2081D3
:102AB000318142816BE070E080E390E00E94CB05C1
:102AC000EC818E2F90E0FC01EE0FFF1FE80FF91F45
:102AD000EA5EFD4F2081318142816BE070E081E44C
:102AE00090E00E94CB05ED818E2F90E0FC01EE0F6F
:102AF000FF1FE80FF91FE052FE4F20813181428114
:102B00006BE070E082E590E00E94CB05EE818E2FB5
:102B100090E0FC01EE0FFF1FE80FF91FE655FE4F96
:102B20002081318142816BE070E083E690E00E9479
:102B3000CB0522EF30E140E06DE170E090E080E015
:102B40000E94CB058091A307882309F441C08AE441
:102B500090E0EE24E39400E02EE438E040E06FE201
:102B600070E00E94CB0580913703882399F0815053
:102B70008093370381110EC00E94C31E28EA30E003
:102B800040E050E00E94431F605E7F4F8F4F9F4F99
:102B90006093350326960FB6F894DEBF0FBECDBF07
:102BA000DF91CF910F91EF9008958150809335037D
:102BB00081114ACF0E94C31E26E030E040E050E081
:102BC0000E94431F6093360383E1809337033CCF19
:102BD00080E190E0BECFDF92EF92FF920F931F93C0
:102BE000CF93DF9300D0CDB7DEB7D82E162F042FAA
:102BF0008EE490E00E941B1FF82E8FE490E00E946C
:102C00001B1F1A821982D11006C09CE4F91203C05E
:102C1000843409F473C06CE48EE490E00E94231FB6
:102C200064E48FE490E00E94231F612F80E590E030
:102C30000E94231FDD2009F46BC0112319F000232B
:102C400009F469C0BE016F5F7F4F81E590E00E948B
:102C5000A00BBE016F5F7F4F83E590E00E94A00B49
:102C6000BE016F5F7F4F85E590E00E94A00BBE0123
:102C70006F5F7F4F87E590E00E94A00B81E6E82E12
:102C8000F12CBE016F5F7F4FC7010E94A00B82E055
:102C9000E80EF11C9DE6E916F10499F7DD2061F1DB
:102CA000113051F5BE016F5F7F4F89E590E00E94C2
:102CB000A00BBE016F5F7F4F8BE590E00E94A00BE1
:102CC000BE016F5F7F4F8DE590E00E94A00BBE01BB
:102CD0006F5F7F4F8FE590E00E94A00B0DE610E044
:102CE000BE016F5F7F4FC8010E94A00B0E5F1F4F98
:102CF00009371105A9F702C00111D4CF0F900F9029
:102D0000DF91CF911F910F91FF90EF90DF90089589
:102D1000011198CFF3CF113089F7C4CF2F923F9292
:102D20004F925F926F927F928F929F92AF92BF92DB
:102D3000CF92DF92EF92FF920F931F93CF93DF9387
:102D4000CDB7DEB761970FB6F894DEBF0FBECDBF2B
:102D50001F821E82198618861B861A861D861C866F
:102D60008091A3079E012A5F3F4F3901B90181116C
:102D70006CC081E590E00E948C0BBE01685F7F4FC4
:102D800083E590E00E948C0BBE01665F7F4F85E576
:102D900090E00E948C0BBE01645F7F4F87E590E05E
:102DA0000E948C0B68857985D12CC12C6115710529
:102DB00059F02E813F8144E6429FC001439F900D10
:102DC00011240E94BC1F6B0188E00E947C098823AB
:102DD00041F080913303882309F44FC0813009F416
:102DE00050C084E00E948709882309F44EC0809176
:102DF00003088F5F80930308803431F440E06091D2
:102E0000A30781E00E94EB1580913303882309F426
:102E10003FC0813009F4D4C061960FB6F894DEBF8C
:102E20000FBECDBFDF91CF911F910F91FF90EF901B
:102E3000DF90CF90BF90AF909F908F907F906F90DA
:102E40005F904F903F902F90089589E590E00E9409
:102E50008C0BBE01685F7F4F8BE590E00E948C0B6E
:102E6000BE01665F7F4F8DE590E00E948C0BBE0136
:102E7000645F7F4F8FE590E093CF81E080933303D1
:102E8000B0CF82E080933A03ACCF10920308BCCF5E
:102E90008091A307E12C00E0811185C028E638E08D
:102EA00040E070E060E090E080E00E94CB0520E729
:102EB00039E040E068E070E090E080E00E94CB05FF
:102EC0008FE190E090932203809321038EE090E0C5
:102ED0009093200380931F038885998584369105FC
:102EE00010F40E94840B888599850A9710F40E943B
:102EF000840B888599850E943A0B84E590E0909335
:102F00002203809321038EE090E09093200380932E
:102F10001F0334E6C316D10440F40E94840B8AE0F8
:102F2000C816D10410F40E94840BC6010E943A0B0B
:102F30008FE190E0909322038093210387E290E059
:102F40009093200380931F038A859B858436910587
:102F500010F40E94840B8A859B850A9710F40E94C6
:102F6000840B8A859B850E943A0B84E590E09093C0
:102F700022038093210387E290E0909320038093C3
:102F80001F038C859D858436910510F40E94840B67
:102F90008C859D850A9710F40E94840B8C859D85F5
:102FA0000E943A0B39CF2CEE38E040E070E060E050
:102FB00090E080E00E94CB0524EF3CE040E07ACF37
:102FC0008091A307E12C00E028E638E040E0882368
:102FD00019F02CEE38E040E070E060E090E080E036
:102FE0000E94CB05E12C00E028E730E140E068E0FA
:102FF00070E090E080E00E94CB056FE0A62EB12C3F
:10300000CC24C394D12C55245A945C0C8091A307F2
:103010001A821982882329F0813009F441C010E016
:103020002BC051E6E52EF12C912C812C10E000E014
:10303000412CBE016F5F7F4FC7010E948C0B8981BD
:103040009A810817190708F48C01541001C04C012B
:10305000439492E0E90EF11CE6E04E12EACF01152E
:103060001105E9F2FEE6F89DC001F99D900D1124CD
:10307000B8010E94BC1F162F8091A3071A821982E3
:103080008823B9F1F12CE12C813009F05CC0BE013C
:103090006F5F7F4FC601880F991F85599F4F31C0C1
:1030A0004DE6E42EF12C912C812C10E000E0412C17
:1030B000BE016F5F7F4FC7010E948C0B89819A818F
:1030C0000817190708F48C01541001C04C014394EF
:1030D00022E0E20EF11C36E04312EACF01151105A1
:1030E00009F49DCFEEE6E89DC001E99D900D112405
:1030F000BFCFBE016F5F7F4FC601880F991F815AF6
:103100009F4F0E948C0BE980FA8086E1F0E1EF1678
:10311000F7E2FF0608F088C082E128EEE21623E01D
:10312000F20608F081C08EE034E6E316F10408F000
:103130007BC08AE0E816F10408F075C086E0E1146F
:10314000F10409F071C020903403312CC214D3046F
:1031500009F052C0412F111101C041E027E0B50133
:103160008CE090E00E94470AE114F104C9F1FE01ED
:103170003196C7016AE070E00E94BC1F81937B0119
:10318000E615F705B1F725019FEF491A590A7F8621
:103190006E86912C812C80E0E12FE950FF0BF98B9A
:1031A000E88BEE85FF850291FF87EE87011102C053
:1031B000882379F088E0E82EC214D30449F5809181
:1031C0002B0390912C038F719927E12C813100F50D
:1031D00081E0F4E08F0E911C24E18216910409F73E
:1031E0003FEFC31AD30A88E0A80EB11C97E0C916B6
:1031F000D10409F008CF10CE412F111101C041E0D8
:1032000001E027E0B5018CE090E00E94770AACCFA6
:1032100020ED30E140E0B20188899989880D991D3F
:103220000E94CB05D5CF8AE0181708F08CCF11E0AB
:10323000180F89CF1F920F920FB60F9211248F9300
:103240009F938091E1009091E100937F9093E10042
:1032500083FF0FC01092E90091E09093EB00109271
:10326000EC0092E39093ED001092500398E090935D
:10327000F00082FF22C093E09093E9009091F20069
:10328000992319F09AE39093E800909141039923D0
:1032900041F090914103915090934103911101C0ED
:1032A0005D9A90914F03992341F090914F03915073
:1032B00090934F03911101C0289A84FF18C0809108
:1032C000E2008E7E81608093E2008091E1008F7E3B
:1032D0008093E100809142038E7E8061809342035F
:1032E0009F918F910F900FBE0F901F90189580FFA8
:1032F000F7CF8091E2008E7E80618093E200809122
:10330000E1008E7E8093E100809142038E7E816099
:10331000E5CF1F920F920FB60F921124CF92DF923A
:10332000EF92FF920F931F932F933F934F935F93CF
:103330006F937F938F939F93AF93BF93EF93FF937D
:10334000CF93DF93CDB7DEB76C97DEBFCDBF1092C2
:10335000E9008091E80083FF25C068E0CE01459632
:103360000E94530582EF8093E8008D8987FF39C062
:103370009091E80090FFFCCF982F907609F034C12F
:103380009E894F89588D2F89F88C911131C08038D2
:1033900061F5809140038093F1001092F1008EEF6F
:1033A0008093E8006C960FB6F894DEBF0FBECDBFD9
:1033B000DF91CF91FF91EF91BF91AF919F918F914D
:1033C0007F916F915F914F913F912F911F910F913D
:1033D000FF90EF90DF90CF900F900FBE0F901F9057
:1033E00018959EEF9093E800C7CF1092F100D5CFCB
:1033F000913059F48111D3CF4130510581F680913C
:1034000040038D7F80934003CACF933049F48111EC
:10341000C6CF4130510519F6809140038260F2CF4A
:10342000953041F48091E80080FFFCCF2068209324
:10343000E300B5CF963009F0A9C00B8D1C8D22E0BA
:103440001092E90010923E0310923D03F2122EC03A
:1034500010923C0310923B030E9422051F8299E0C8
:103460009983FA8291E09E8390EA98879AEF9987F0
:1034700020913D0330913E03275F3F4F3C832B83D8
:103480008D831092E90010923E0310923D03109339
:103490003C0300933B0349E050E0BE016F5F7F4F68
:1034A00080E00E94FC040E94220579CF10933C0327
:1034B00000933B030E943904DC0112960D911C918C
:1034C0000115110509F451C1D801ED91FC91048059
:1034D000F581E02DBE016B5E7F4FC8010995009715
:1034E00009F03EC1F80100851185EACFF3E0FF1233
:1034F0000EC08F89882309F440C0823061F440E80F
:1035000068E08EE297E00E94051C811148CF81E2BD
:103510008093EB0047CF813029F440E86BE082E2F2
:1035200097E0F1CF833099F70E943904DC011296BD
:10353000ED90FC908E010F5F1F4F6801E114F104C4
:1035400079F0D701ED91FC910680F781E02DB8016B
:10355000C7010995080F111DF701E084F184EECF32
:10356000D8011C92F60101900020E9F73197BF01C4
:103570006C197D0940E0C601C6CF6CE077E0FB0125
:10358000449150E080E80E94FC0409CF973009F490
:10359000BECF983021F481E08093F10000CF9930C4
:1035A00009F0FDCE837009F0B2CFEFEEF2E081E0DA
:1035B00031E096E32191222371F08093E90030936A
:1035C000EB00DF0111972C912093EC009093ED001C
:1035D0008F5F873079F78EE78093EA001092EA00D8
:1035E0008F8980935003DBCE8B8D9C8D1092E900E8
:1035F00010923E0310923D0390933C0380933B0353
:10360000898D811192C08E899D89913A49F48132C8
:1036100009F07DCF47E050E067E071E080E0B3CF94
:10362000913209F074CF833269F48F89988DB0E0BC
:10363000A0E08093030190930401A0930501B0934F
:103640000601ADCE803269F48091E80082FFFCCFA4
:1036500067E087E091E00E9453058BEF8093E800DC
:103660009ECE823209F09BCE8F8980930E01EEEFC1
:10367000FFE7859194918B3F9C4D51F1E0E0F8E09C
:103680008091070190910801A0910901B0910A0170
:10369000803B9440A105B105F1F480910E0180FDBD
:1036A0001AC0EE3F8AE0F80789F587E797E791832C
:1036B00080838091600080933F0388E19BE00FB698
:1036C000F894A895809360000FBE9093600067CE39
:1036D000EEEFFAE0D5CF808191818737974709F0E7
:1036E0005ECEA89580916000886180936000809193
:1036F0003F0380936000EE3F2AE0F20789F080915B
:10370000FE0A9091FF0A9183808349CE8081918146
:103710008737980751F29093FF0A8093FE0AC5CF2E
:103720001092FF0A1092FE0A3ACE0E943904DC0180
:1037300012960D911C910115110509F4E8CED801DE
:10374000ED91FC910190F081E02DBE016B5E7F4F09
:10375000C8010995811123CEF80100851185EBCFB1
:10376000181619060CF41BCED2CEF1E0FF12BECE15
:1037700060E177E004CF0F920FB68F939F93EF93A2
:10378000FF93809124038D5F8D3708F08D578093D0
:103790002403EFE2F3E080818E4F808391819F4F7D
:1037A000918382818F4F828383818F4F8383E5E270
:1037B000F3E080818F5F808381818F4F818382815D
:1037C0008F4F828383818F4F83838FB18F60669900
:1037D0001C9B88278F3681F480912303981B963099
:1037E00068F0E0E0F8E087E78083818388E18093F8
:1037F0006000F0936000FFCF90932303FF91EF915F
:103800009F918F910FBE0F901895EF92FF920F939B
:103810001F93CF93DF93F82E192FE62E042F81E00C
:10382000860F880F0E94CE0483E00E94CE04CF2D25
:10383000D12FEC0EFD2EF11CCE15DF05B9F007FFE0
:1038400013C0FE0184910E94CE04182F80E00E94D4
:10385000CE04812321968111EFCFDF91CF911F916B
:103860000F91FF90EF9008958881EDCF81E0F5CF23
:10387000E1E5F7E01382128288EE93E0A0E0B0E089
:1038800084839583A683B78389EF92E091838083B5
:103890008FEF9FEF95878487E9E0F8E0138212822B
:1038A0008BE093E091838083E3EAF7E0108211825A
:1038B000128281E283831092FE071092FF0710921A
:1038C000000810920108109202081092030885E087
:1038D000E7E4F1E0A4E0B8E001900D928A95E1F709
:1038E0000E94C31E2CE434E040E050E00E94431FDD
:1038F00060577E4F8F4F9F4F7093A2076093A10731
:103900000895789483E084BD83E085BD81E0809351
:103910006E00E1E8F0E083E08083E0E881E080830E
:10392000E1E983E08083E0E981E08083E1EC87E006
:103930008083E3EC81E08083E0EC82E08083E2EC52
:1039400081E08083EAE787E080838068808310924B
:10395000500310924003109242038091D70081607F
:103960008093D70080EA8093D80089B5806189BDB3
:1039700089B5826089BD09B400FEFDCF81E090E089
:103980000E94EA068091D8008F7C80618093D800E5
:103990008091E000807F8093E0008091E1008E7E46
:1039A0008093E1008DE08093E200559A209A80ECAC
:1039B00080937C0081EF85B987E684B985E38BB974
:1039C0008FE38AB9769A6E9882EF81BB10BA80E550
:1039D0008CBD81E08DBD85E00E946F09599A85E01C
:1039E0000E946F095C98EDEBF6E085918EBD0000BA
:1039F0000DB407FEFDCFEA3CC1F75C9A81E88093E5
:103A0000640081E08093650080E80E948709882334
:103A1000A9F05C9885EA8EBD00000DB407FEFDCFCD
:103A20005C9A2E9858982D988091640080628093BB
:103A3000640081E083BF889513BEFCCF84E00E94C0
:103A40008709882309F443C02D9884E80E948709D8
:103A50008823D1F02D9A88EC0E946F09589882E053
:103A600090E00E941B1F8F3F29F06FEF82E090E0F3
:103A70000E94351F84EF91E00E94EA06589A84E87C
:103A80000E9487098111FBCF84E10E948709882366
:103A9000D1F02D9A88EC0E946F092E9882E090E078
:103AA0000E941B1F882329F060E082E090E00E94C2
:103AB000351F84EF91E00E94EA062E9A84E10E946D
:103AC00087098111FBCF88EC0E946F09B7CF2D9A2F
:103AD00080E180930201809164008E7F8093640076
:103AE00080917A00806480937A0080917A0086FDCC
:103AF000FCCFC0917800D09179000E948107AB0182
:103B0000BC01CE01B0E0A0E0DC01992788278C0140
:103B10009D01040F151F261F371FC901B8012091F1
:103B20006400216020936400611571058105910591
:103B300011F00E94121F5B9A5B9AE4E1F0E085911C
:103B400094918831954909F044C0E6E1F0E0849110
:103B5000E7E1F0E0E491F82FF0932A03E0932903E2
:103B60005A988BEA0E94A7055A9A41E060E080E0EB
:103B70000E94EB1580E590E00E941B1F8093A30735
:103B8000992493942BE2E22E23E0F22E31E5C32E0A
:103B900033E0D32E40EEA42E47E0B42E50E2452E63
:103BA000512C612C712C00E010E0D1E067E0262E52
:103BB000C0E285E0382E93E0892E80912D03882382
:103BC00079F010922D0301151105B9F30E94000040
:103BD000EFCF83E29FEF90932A0380932903C0CF16
:103BE00090912F0380912E03292F281B822F209143
:103BF0000201821738F48F5F821728F793BE8895E9
:103C000013BEE1CFD0932D0390932E03F701808153
:103C10009181019680839183809139038093380349
:103C20000E94720980933903E0913A03E83088F4E6
:103C3000F0E0E35EF14E0C94D01F251E271E391EC6
:103C4000471E4A1E6D1E701E741ED0933A030E94BA
:103C50009D0A5B98F60180E098E000800EBC911010
:103C6000012C019780FDFDCF0192B9F70DB45B9A4D
:103C7000AACF80923A030E94C31EA30192010E9420
:103C8000431F605F7F4F8F4F9F4F609335030E94AC
:103C9000D314DFCF1092020810920308E8EAF7E08D
:103CA000119237E0E23CF307D9F7E2ECF7E0C0838A
:103CB000168EC183178EC28310A2C38311A2C48340
:103CC00012A23596AE16BF0691F71092FE0710921B
:103CD000FF071092000830923A030E94070CB9CFF8
:103CE0001092330320923A030E948E16B2CF8F9225
:103CF0009F92AF92BF92CF92DF92EF92FF92CF93BB
:103D0000DF93EC01688179818A819B81611571055E
:103D10008105910521F464E279ED8BE597E02DE1D1
:103D200033EF41E050E00E94431F49015A019B01DB
:103D3000AC01A7EAB1E40E94621F6B017C01ACEE0A
:103D4000B4EFA50194010E94701FC60ED71EE81E95
:103D5000F91EF7FE06C081E0C81AD108E10880E824
:103D6000F80AC882D982EA82FB82C701B6019F772E
:103D7000DF91CF91FF90EF90DF90CF90BF90AF9009
:103D80009F908F9008958F929F92AF92BF92CF9203
:103D9000DF92EF92FF9260910F017091100180917C
:103DA000110190911201611571058105910521F4B0
:103DB00064E279ED8BE597E02DE133EF41E050E0EF
:103DC0000E94431F49015A019B01AC01A7EAB1E4DB
:103DD0000E94621F6B017C01ACEEB4EFA50194015F
:103DE0000E94701FC60ED71EE81EF91EF7FE06C001
:103DF00081E0C81AD108E10880E8F80AC0920F01F2
:103E0000D0921001E0921101F0921201C701B601A7
:103E10009F77FF90EF90DF90CF90BF90AF909F90F3
:103E20008F90089560930F0170931001809311019A
:103E3000909312010895F999FECF92BD81BDF89A31
:103E4000992780B50895262FF999FECF92BD81BD9F
:103E5000F89A019700B4021639F01FBA20BD0FB6C8
:103E6000F894FA9AF99A0FBE0895262FF999FECF81
:103E70001FBA92BD81BD20BD0FB6F894FA9AF99A87
:103E80000FBE01960895052E97FB1EF400940E9424
:103E90005A1F57FD07D00E94751F07FC03D04EF430
:103EA0000C945A1F50954095309521953F4F4F4F98
:103EB0005F4F089590958095709561957F4F8F4FD6
:103EC0009F4F08950E94971FA59F900DB49F900D3E
:103ED000A49F800D911D11240895B7FF0C94621FBB
:103EE0000E94621F821B930B0895A1E21A2EAA1B47
:103EF000BB1BFD010DC0AA1FBB1FEE1FFF1FA2179A
:103F0000B307E407F50720F0A21BB30BE40BF50B96
:103F1000661F771F881F991F1A9469F7609570951F
:103F2000809590959B01AC01BD01CF010895A29FA2
:103F3000B001B39FC001A39F700D811D1124911D7D
:103F4000B29F700D811D1124911D0895DB01582F22
:103F50000E94971F529F800DA49F800D11240895E9
:103F6000991B79E004C0991F961708F0961B881FCB
:103F70007A95C9F780950895AA1BBB1B51E107C02C
:103F8000AA1FBB1FA617B70710F0A61BB70B881FE9
:103F9000991F5A95A9F780959095BC01CD01089578
:103FA000EE0FFF1F0590F491E02D0994F894FFCFD8
:103FB000030110FFFFFFFF00E1000000000000010F
:103FC00000000001060403030405060807080908A9
:103FD00007090A010402050705020306020203039A
:103FE00002010202020102020203030101010102B5
:103FF000010103010301034252494E453E18005D91
:1040000018007C1800BA1800D91800F81800171901
:10401000003619007419008C19009B1800551900FE
:104020007419008C19000001020100FFFEFF00015D
:10403000020100FFFEFF10160411131814080E0FE2
:10404000001203050607090A0BFF1A1917021501CA
:104050000D0C1BFF00001205FAEC1E1600401600A6
:10406000621600841600721700941700B61700D865
:104070001700FA17001C1800FA1700D81700B61717
:104080000094170072170084160062160040160094
:10409000961500B81500DA1500FC1500A61600C824
:1040A0001600EA16000C17002E17005017002E17E6
:1040B000000C1700EA1600C81600A61600FC150032
:1040C000DA1500B815000E150030150052150074F1
:1040D0001500721700941700B61700D81700FA17CA
:1040E000001C1800FA1700D81700B6170094170024
:1040F000721700741500521500301500861400A8C0
:104100001400CA1400EC1400A61600C81600EA1623
:10411000000C17002E17005017002E17000C170068
:10412000EA1600C81600A61600EC1400CA1400A86F
:104130001400FE13002014004214006414007217CF
:1041400000941700B61700D81700FA17001C1800C3
:10415000FA1700D81700B6170094170072170064FA
:104160001400421400201400761300981300BA13B0
:1041700000DC1300A61600C81600EA16000C170093
:104180002E17005017002E17000C1700EA1600C853
:104190001600A61600DC1300BA130098130000C125
:1041A0008081000000000000004D04FE066E0463E4
:1041B00004B4047204900400000000AD0960059A84
:0641C0000A990A3000001C
:00000001FF
