:100000000C949C030C94C4030C94C4030C94C4037C
:100010000C94C4030C94C4030C94C4030C94C40344
:100020000C94C4030C94C4030C9422160C949116E3
:100030000C94C4030C94C4030C94C4030C94C40324
:100040000C94C4030C94C4030C94C4030C94C40314
:100050000C94C4030C94C4030C94C4030C94C318F0
:100060000C94C4030C94C4030C94C4030C94C403F4
:100070000C94C4030C94C4030C94C4030C94C403E4
:100080000C94C4030C94C4030C94C4030C94C403D4
:100090000C94C4030C94C4030C94C4030C94C403C4
:1000A0000C94C4030C94C4030C94C4030208D4D26B
:1000B00005087F7F3E1C084120FE0105F1F1F1118A
:1000C000D1B1D111F1515151515151515151515160
:1000D0005151510000FF00007F7F09090F06007F8A
:1000E0007F19396F46007F7F4949414100266F499A
:1000F000497B3200266F49497B32FF0000FFFFFF3A
:10010000FEFFFEFF0279CD95A5CD790111111101F8
:10011000F9F901010000FF00007F7F09090F0600C7
:100120007F7F40404040007C7E0B0B7E7C00070FB1
:1001300078780F0700000000000000FF00001F3F5C
:100140003F33333333333E36363E363E363E363635
:100150003E36363E360000FF00003E7F41417F3E86
:10016000007F7F0E1C7F7F00000000000000000069
:100170000000000000000000000000003F40504070
:1001800040407846414159594141414159594141C5
:1001900041414141414100007F000001017F7F0159
:1001A00001007C7E0B0B7E7C007F7F09090F06001F
:1001B0007F7F49494141000000000000000000002D
:1001C00000003E5B4F5B3E3E6B4F6B3E1C3E7C3EF9
:1001D0001C183C7E3C181C577D571C1C5E7F5E1C07
:1001E00000183C1800FFE7C3E7FF0018241800FFC1
:1001F000E7DBE7FF30483A060E2629792926407FBB
:10020000050507407F05253F5A3CE73C5A7F3E1CC9
:100210001C08081C1C3E7F14227F22145F5F005FB5
:100220005F06097F017F006689956A606060606093
:1002300094A2FFA29408047E040810207E201008D7
:10024000082A1C08081C2A08081E101010100C1E72
:100250000C1E0C30383E3830060E3E0E06000000F4
:10026000000000005F00000007000700147F147FFB
:1002700014242A7F2A122313086462364956205018
:100280000008070300001C2241000041221C002A34
:100290001C7F1C2A08083E080800807030000808EF
:1002A000080808000060600020100804023E514960
:1002B000453E00427F400072494949462141494D2F
:1002C000331814127F1027454545393C4A494931B6
:1002D00041211109073649494936464949291E0035
:1002E00000140000004034000000081422411414DF
:1002F000141414004122140802015909063E415DFC
:10030000594E7C1211127C7F494949363E41414188
:10031000227F4141413E7F494949417F0909090105
:100320003E414151737F0808087F00417F41002012
:1003300040413F017F081422417F404040407F02FE
:100340001C027F7F0408107F3E4141413E7F090926
:1003500009063E4151215E7F09192946264949492E
:100360003203017F01033F4040403F1F2040201FD8
:100370003F4038403F63140814630304780403616A
:1003800059494D43007F414141020408102000417A
:1003900041417F0402010204404040404000030705
:1003A000080020545478407F28444438384444445A
:1003B00028384444287F385454541800087E0902D1
:1003C00018A4A49C787F0804047800447D40002091
:1003D00040403D007F1028440000417F40007C04E5
:1003E0007804787C080404783844444438FC1824A1
:1003F000241818242418FC7C080404084854545475
:100400002404043F44243C4040207C1C2040201C09
:100410003C4030403C44281028444C9090907C4410
:1004200064544C440008364100000077000000414D
:1004300036080002010204023C2623263C1EA1A12C
:1004400061123A4040207A38545455592155557913
:1004500041215454784121555478402054557940D5
:100460000C1E527212395555555939545454593934
:10047000555454580000457C410002457D4200011E
:10048000457C40F0292429F0F0282528F07C54559B
:1004900045002054547C547C0A097F49324949491B
:1004A000323248484832324A4848303A4141217A4B
:1004B0003A42402078009DA0A07D39444444393D13
:1004C0004040403D3C24FF2424487E4943662B2F76
:1004D000FC2F2BFF0929F620C0887E0903205454E5
:1004E00079410000447D413048484A32384040223A
:1004F0007A007A0A0A727D0D19317D2629292F2862
:10050000262929292630484D40203808080808089F
:10051000080808382F10C8ACBA2F102834FA000089
:100520007B000008142A142222142A1408950022A1
:100530000095AA005500AAAA55AA55AA000000FFD6
:1005400000101010FF00141414FF001010FF00FF23
:100550001010F010F0141414FC001414F700FF0035
:1005600000FF00FF1414F404FC141417101F1010E3
:100570001F101F1414141F00101010F000000000B2
:100580001F101010101F10101010F010000000FFAE
:10059000101010101010101010FF10000000FF14A9
:1005A0000000FF00FF00001F10170000FC04F414FF
:1005B000141710171414F404F40000FF00F71414B7
:1005C0001414141414F700F7141414171410101F33
:1005D000101F141414F4141010F010F000001F1069
:1005E0001F0000001F14000000FC140000F010F0B9
:1005F0001010FF10FF141414FF141010101F00002F
:100600000000F010FFFFFFFFFFF0F0F0F0F0FFFF41
:10061000FF0000000000FFFF0F0F0F0F0F384444D2
:1006200038447C2A2A3E147E02020606027E027E9E
:100630000263554941633844443C04407E201E20F7
:1006400006027E020299A5E7A5991C2A492A1C4C9C
:100650007201724C304A4D4D303048784830BC629F
:100660005A463D3E494949007E0101017E2A2A2A17
:100670002A2A44445F444440514A444040444A5139
:10068000400000FF0103E080FF000008086B6B08DA
:100690003612362436060F090F060000181800001F
:1006A000001010003040FF0101001F01011E001961
:1006B0001D1712003C3C3C3C0000000000D5F08DB2
:1006C00014A1C881CFD9F1AF2000080B00020202AB
:1006D00000000904000001020200000524001001CE
:1006E0000524010101042402060524060001070572
:1006F000810310004009040100020A000000070500
:1007000002024000000705830240000004030904C0
:1007100012010002EF020140412336800001010274
:10072000030141726475696E6F204C4C4300417245
:100730006475626F7900401911241FBECFEFDAE0B3
:10074000DEBFCDBF13E0A0E0B1E0E4E6FAE302C013
:1007500005900D92A63BB107D9F728E0A6EBB3E0D0
:1007600001C01D92AB3AB207E1F713E0CCE9D3E048
:1007700004C02197FE010E941D1DCB39D107C9F786
:100780000E9489190C94301D0C940000480F592FB9
:10079000511D1416150684F5803891056CF597FFE8
:1007A00002C090E080E04138510514F040E850E08C
:1007B000481BFB01E770FF2721E001C0220FEA95EB
:1007C000EAF777FF02C0695F7F4FFB0133E0F595E1
:1007D000E7953A95E1F7F695FE2FEE27F795E79521
:1007E000E80FF91FE151FC4F415030F08191DF01DA
:1007F0001197822B8C93F8CF0895FC018091EC0324
:10080000882311F13FB7F89482E08093E9002091AA
:10081000F200822F90E01816190614F481E090E09F
:10082000882339F0289844E64093EB034091F10087
:100830004083222339F02091F200211103C02BE6DE
:100840002093E8003FBF08958FEF9FEF08952FB7E3
:10085000F89483E08093E9009091E800892F8072FA
:1008600095FF04C09091F20080E4891B2FBF08958A
:100870008091E30381110DC082E08093DF0384E067
:100880008093E0031092E2031092E10381E08093F1
:10089000E3038FED93E00895CF93DF931F92CDB7DD
:1008A000DEB76983DC01ED91FC910280F381E02DDC
:1008B00041E050E0BE016F5F7F4F09950F90DF91DF
:1008C000CF91089583E08093E9008091F20088231E
:1008D00019F08AE38093E80008950E94270490E0CD
:1008E0000895CF93DF931F92CDB7DEB7FC018485C7
:1008F000958597FD08C02FEF3FEF358724870F9030
:10090000DF91CF910895CE0101960E94FD030197DA
:1009100019F4898190E0F3CF8FEF9FEFF0CF0F9321
:100920001F93CF93DF931F92CDB7DEB78C01FC01ED
:100930008485958597FF0BC0CE0101960E94FD032B
:10094000019771F4898190E0F80195878487F80117
:10095000848595850F90DF91CF911F910F91089518
:100960008FEF9FEFF1CFFC018485958597FD0BC03C
:100970009FB7F89482E08093E9008091F2009FBFD6
:1009800090E0019608959FB7F89482E08093E90083
:100990008091F2009FBF90E008954091D90350915B
:1009A000DA032091D7033091D80342175307B4F4E8
:1009B0009091E8009570E1F39091E80092FD19C0E4
:1009C0008093F1008091D9039091DA0301968F739F
:1009D0009927892B19F48EEF8093E8008091D90331
:1009E0009091DA0301969093DA038093D90381E022
:1009F000089580E00895DF92EF92FF920F931F9386
:100A0000CF93DF93D82E8A01EB017B01E40EF51E14
:100A1000CE15DF0559F0D7FE12C0FE0184910E9469
:100A2000CD0421968111F4CF0FEF1FEFC801DF91A4
:100A3000CF911F910F91FF90EF90DF9008958881E3
:100A4000EECF0F931F93CF93DF931F92CDB7DEB7F7
:100A500082E0898342E450E06AEC76E080E80E941C
:100A6000FB040E943804DC0112960D911C910115C3
:100A7000110589F0D801ED91FC910280F381E02D00
:100A8000BE016F5F7F4FC801099597FD04C0F80153
:100A900000851185ECCF89810F90DF91CF911F9157
:100AA0000F910895615030F02091F100FC012083F6
:100AB0000196F8CF289884E68093EB030895AF92CF
:100AC000BF92CF92DF92EF92FF920F931F93CF933B
:100AD000DF936C017B018B01040F151FEB015E019D
:100AE000AE18BF08C017D10759F06991D601ED9132
:100AF000FC910190F081E02DC6010995892B79F7D1
:100B0000C501DF91CF911F910F91FF90EF90DF9082
:100B1000CF90BF90AF9008950DB407FEFDCF8EB576
:100B2000599A08950E949805982F0E949E0508954D
:100B30000DB407FEFDCF8EB51EBC08950C948C0538
:100B40000E949805982F0E94980508958EBD000078
:100B50000DB407FEFDCF8EB50895CF92DF92EF92D0
:100B60006B01E82E0090ED03D00C0090EE03E01C2A
:100B7000599883E00E94A6058E2D0E94A6058D2D12
:100B80000E94A6058C2D0E94A6051EBCEF90DF904A
:100B9000CF9008954F925F926F928F929F92AF92F3
:100BA000BF92CF92DF92EF920F931F93CF93DF9379
:100BB0004C015B012901642E842FB9010E94AD050F
:100BC0000E94A005182FEC010E949205282FDE013B
:100BD000A80DB91D1A161B060CF0C1C080E88816B6
:100BE00091040CF0BCC0422F592FFA01EA0DFB1DF5
:100BF0001E161F060CF0B3C080E4A816B1040CF05A
:100C0000AEC097FE0BC06627772768197909312F88
:100C1000361BA038B10554F030E808C030E8381968
:100C2000A138B1050CF4312F70E060E0B7FEA6C02A
:100C3000413451051CF02A2D2770205C6B01072ED2
:100C4000000CEE0804FF05C0CC0CDD1CEE1CCC0F24
:100C5000DD1F84E0480E511C611CC40CD51CE61C31
:100C6000D50183E0B595A7958A95E1F711E0A1FC40
:100C700014E0A0FC110FA2FC1295FD01F695FE2FC9
:100C8000EE27F795E795E80DF91DE60FF71FE151FF
:100C9000FC4F599883E08EBD8091ED039091EE0357
:100CA0008D0D9E1D0DB407FEFDCF9EBD0DB407FE3C
:100CB000FDCF8EBD0DB407FEFDCFCEBCCC0EDD1E2C
:100CC000E11C0DB407FEFDCF1EBC000FA73014F4CD
:100CD000089410FD88940795B2E041FFB8E042FF08
:100CE000B29540FFBB0FBA9528300CF0BFEF932FA1
:100CF0000EB41EBC03FD00948B2F00FD802D02FD61
:100D00000024019EB00104FB36F4C895C895112457
:100D10000EB41EBC00FD082E019EA03034F0808170
:100D200001FF6827602168276083E058FF4F07FFB5
:100D300006C0808101FF78277121782770831124F4
:100D4000EF57F0409A95A1F6E058FF4FE31BF109E9
:100D50002850A3950DB4599A12160CF49ACFDF912E
:100D6000CF911F910F91EF90DF90CF90BF90AF90F8
:100D70009F908F906F905F904F900895E134F105B0
:100D80000CF45CCF20E42A1959CFFC010E945C07C7
:100D9000319728F068517C4F8F4F9F4FF9CFAB01AF
:100DA000FC010E945C07641775078E079F07C8F354
:100DB00008958F929F92AF92BF92CF92DF92EF925F
:100DC000FF920F931F93CF93DF936C017B018A01F6
:100DD00080910D01882309F45AC08091EC03882387
:100DE00009F455C08091DE0380FF05C08091E000CA
:100DF00082608093E000E801B12C8AEFA82E93E096
:100E0000892E2AE3922E209711F4BB20C9F10E946B
:100E10002704811108C0AA94AA20C9F181E090E0BA
:100E20000E94C506F0CF8C171D0611F00CF08C2F18
:100E30009FB7F8948092E9002091E80025FD02C058
:100E40009FBFE1CF282F30E0C21BD30BF7018150A9
:100E500020F041914093F100FACFE20EF31EBB2047
:100E600021F09092E800B12CEBCF8091E80085FD55
:100E7000E7CF9092E800BB24B394209709F3F3CF17
:100E80005D9884E68093DD03101611063CF081E046
:100E900090E0F6019383828310E000E0C801DF91C7
:100EA000CF911F910F91FF90EF90DF90CF90BF9067
:100EB000AF909F908F900895A5ECB3E02FB7F89472
:100EC0007D918D919C9166B52FBFA89B05C06F3F0A
:100ED00018F47F5F8F4F9F4F22E0660F771F881FA8
:100EE000991F2A95D1F708952F923F924F925F92C2
:100EF0006F927F928F929F92AF92BF92CF92DF922A
:100F0000EF92FF920F931F93CF93DF9300D000D007
:100F10001F92CDB7DEB75D834C835901EC2D452B75
:100F2000D1F1402F50E0162F17701983A3E075956B
:100F30006795AA95E1F7262FDA01A80FB91FA03807
:100F4000B10514F000E8081BA1E0FE2DF77009F4CC
:100F5000A0E0E694E694E694EA0EDB01AE0DB11D46
:100F600019971CF0F8E0EF2EE61ADB01B695BA2FC0
:100F7000AA27B795A7958A0F9B1F3981A32F330FF7
:100F8000BB0BE33009F435C1F0F4E13009F4EEC0F5
:100F9000E23009F453C00F900F900F900F900F9014
:100FA000DF91CF911F910F91FF90EF90DF90CF9045
:100FB000BF90AF909F908F907F906F905F904F9079
:100FC0003F902F900895EA3F09F48CC0EB3F19F74A
:100FD000E22FE61BEE15F8F6FC01E151FC4F6F0124
:100FE000B12CA12CEC81FD81A01608F0ACC0EA0D5B
:100FF000FB1D8490912C0A2E02C0880C991C0A9427
:10100000E2F727FD07C0F6017080F82DF0957F22EA
:10101000F6017082F980FF2051F0273044F4F60188
:10102000E058FF4F892C80949080982090821FEF89
:10103000A11AB10A3FEFC31AD30AD4CF66246A9427
:10104000712C098002C0660C771C0A94E2F7609448
:101050007094572CE22FE61BEE1508F09CCFFC0194
:10106000E151FC4F6F01B12CA12CEC81FD81A01648
:1010700050F5EA0DFB1DE491F0E01F010A2E02C0BD
:10108000220C331C0A94E2F727FD05C0F60190807C
:10109000962092289082F980FF2071F0273064F426
:1010A000460110E8810E911CF4014080E42DE521F9
:1010B0004E2E4328F4014082FFEFAF1ABF0A1FEF04
:1010C000C11AD10AD2CFE40FF51FFD83EC838058FB
:1010D0009F4F2F5FBFCFE40FF51FFD83EC83805838
:1010E0009F4F2F5FE22FE61BEE1508F054CFFC0157
:1010F000E151FC4F6F01B12CA12CEC81FD81A016B8
:1011000050F7EA0DFB1D8490912C0A2E02C0880C2A
:10111000991C0A94E2F727FD04C0F6017080782834
:101120007082F980FF2041F0273034F4F601E05856
:10113000FF4F8080982890821FEFA11AB10A3FEFDD
:10114000C31AD30ADACFE40FF51FFD83EC8380586E
:101150009F4F2F5F3DCFEC81FD81E40FF51FFD8395
:10116000EC83A40EB51E80589F4F2F5FE22FE61B25
:10117000EE1508F010CFFC01E151FC4F6F01912CEE
:10118000812C801640F7F501E80DF91D6490712C53
:101190000A2E02C0660C771C0A94E2F760947094E1
:1011A000EC81FD81E80DF91D4490512C0A2E02C0FE
:1011B000440C551C0A94E2F727FD08C0F601308064
:1011C000E32DE6213E2E3428F6013082F980FF20FF
:1011D00049F027303CF4F601E058FF4F608076205C
:1011E000752870821FEF811A910A3FEFC31AD30A44
:1011F000C8CFE02FF0E081519C4FA0E8B0E06D0136
:10120000CE1ADF0A4E1B5F0B4A01880C991CE1E0E5
:10121000F0E05F01098002C0AA0CBB1C0A94E2F74F
:10122000B02E402F5E2DEC81FD81DC018601940102
:10123000F980CF93DF93ED01EF96EF9622966590BC
:101240008590FF2059F06A9C30018A9C40016730EC
:101250002CF4C8809094C920C728C99266233AF01C
:10126000CC908094C820C628CD920C943809119651
:101270004A9529F75A9551F04B2D63951124E20FA9
:10128000F11DA00FB11DC00FD11DD9CFDF91CF919E
:10129000112481CE90E00C94C5068FB18095807F9B
:1012A000669B88601C9B846008959091D40398236A
:1012B00029F49091D503982381E009F480E0089502
:1012C000CF93C82F0E944D09982F9C2381E09C1337
:1012D00080E0CF91089580389105B8F460347105AD
:1012E000A0F490E121E061FD24E060FD220F62FDA9
:1012F0002295687F969FD0011124A80FA151BC4F61
:101300000C90022A40FF02260C9208956F927F9261
:101310008F929F92AF92BF92CF92DF92EF92FF9205
:101320000F931F93CF93DF936D3089F0C090BF036D
:10133000D090C0036A30E1F41092C2031092C1034E
:1013400088E0C80ED11CD092C003C092BF0381E0D8
:1013500090E0DF91CF911F910F91FF90EF90DF9080
:10136000CF90BF90AF909F908F907F906F90089597
:1013700060900001E090C103F090C203E5E06E9F31
:10138000E0011124C354DE4F570100E010E00530A6
:1013900029F0CE010196FE011491EC01460188E08E
:1013A000782E412F417010FD1BC0662021F0B40142
:1013B000C5010E946B0916957A94FFEF8F1A9F0A58
:1013C0007110EFCF0F5F8FEFA81AB80A0630F1F651
:1013D000E6E0EE0EF11CF092C203E092C103B7CF3B
:1013E000462DE5CF682F87EA98E00C948609DF92B6
:1013F000EF92FF920F931F93CF93DF937C01D22E36
:101400008B01040F111DEB0177FF02C0D0E0C0E09B
:10141000C8010134110514F080E490E0C817D90721
:101420003CF44D2DBE01C7010E946B092196F0CFFF
:10143000DF91CF911F910F91FF90EF90DF90089572
:10144000089590E080E00895CF92EF920F93CF93AC
:101450008091D40380959091D503892319F082E07F
:101460008093D603E7EBF0E00491E8EBF0E0E49042
:1014700022E0C22E30E020E049EB50E061E170E074
:1014800080E290E00E9474078091C9039091CA03A2
:1014900060E370E00E94091D8831B8F4C1E18C302E
:1014A00008F0CEE1E0EBF0E00491E1EBF0E0E49055
:1014B00092E0C92E30E020E042EB50E069E170E0BC
:1014C0008BE590E00E94740704C0CFE1843208F0FD
:1014D000C0E26C2F70E041E084E390E00E946B0971
:1014E000C0FD12C0ECEAF0E00491EDEAF0E0E49017
:1014F00082E0C82E30E020E04EEA50E06CE170E07F
:101500008DE290E00E947407CF910F91EF90CF9001
:101510000895AF92BF92CF92DF92EF92FF920F9316
:101520001F93CF93DF931092000182EAE82E88E0A8
:10153000F82EC3E2D0E092E3C92ED12C8E010350E5
:1015400011095E0188E0A80EB11C0A151B0551F0B7
:1015500021E04BE060E370E0C8010E94F7090F5FF3
:101560001F4FF3CFD093C203C093C103D092C003E7
:10157000C092BF03F70181917F010E94F2092D966D
:10158000C436D105D9F681E080930001DF91CF9177
:101590001F910F91FF90EF90DF90CF90BF90AF9091
:1015A00008958F929F92AF92BF920F931F93CF9304
:1015B000DF93CDB7DEB7A1970FB6F894DEBF0FBEAD
:1015C000CDBF19A2423008F44AE08E010F5D1F4FD3
:1015D000842E912CB12CA12CA50194010E94D81C21
:1015E000E62FB901CA01EA3044F5E05DD801EE9377
:1015F0008D01232B242B252B79F790E080E0109789
:1016000069F0FD0101900020E9F73197AF014A1B15
:101610005B0BBD0187EA98E00E945F05A1960FB6BB
:10162000F894DEBF0FBECDBFDF91CF911F910F9118
:10163000BF90AF909F908F900895E95CD7CF41E025
:1016400050E064EB73E087EA98E00C945F050F9339
:101650001F93CF93DF938C01EB010E947E1C888344
:10166000C80101960E947E1C8983CE01DF91CF9133
:101670001F910F910895FF920F931F93CF93DF93C4
:10168000EC018B01FB01F0800E947E1CF81621F01A
:101690006F2DCE010E94981CF801F1802196CE0199
:1016A0000E947E1CF81621F06F2DCE010E94981C1E
:1016B000C801DF91CF911F910F91FF900895CF93B3
:1016C000DF9300D000D0CDB7DEB71A8219821C821A
:1016D0001B82BE016F5F7F4F81111EC083E590E0CA
:1016E0000E94270B89819A8101969A838983BE0182
:1016F0006F5F7F4F83E590E00E943B0BBE016D5F03
:101700007F4F85E590E00E943B0B0F900F900F906C
:101710000F90DF91CF9108958BE590E00E94270B09
:1017200089819A8101969A838983BE016F5F7F4F79
:101730008BE590E00E943B0BBE016D5F7F4F8DE516
:1017400090E0E1CF2F923F924F925F926F927F9203
:101750008F929F92AF92BF92CF92DF92EF92FF92C1
:101760000F931F93CF93DF93CDB7DEB7C355D10946
:101770000FB6F894DEBF0FBECDBF80913F089091A9
:101780004008892B09F052C06091BE0325E0629F9A
:10179000B0011124072E000C880B765E8F4F0E943B
:1017A000AD050E94980526968FAF26970E94980552
:1017B000482E41940E94980527968FAF27970E9444
:1017C000980528968FAF28970E94980525968FAF89
:1017D00025970E948C0584E00E9460098823A1F16E
:1017E0008091A1088F5F8093A108803419F485E06F
:1017F0008093A0088091A008823009F47FC038F55A
:101800008130D1F180E20E945509882309F42AC170
:1018100080914308882309F41CC1833008F022C159
:1018200080914208811119C188E01AC1412C259686
:101830001FAE259728961FAE289727961FAE27978D
:1018400026961FAE2697C7CF1092A108D3CF84301B
:1018500009F4EFC08530B1F688E00E945509811186
:1018600005C084E00E945509882389F080919D0875
:10187000882309F4AAC0E8C088E00E9455098111B4
:1018800004C084E00E94550981111092A008809143
:101890009E08512CBE016F5F7F4F7DAF6CAF882ECD
:1018A000880F9908C401029660969FAF8EAF60972B
:1018B000D40112976296BFAFAEAF6297E42DF0E00D
:1018C0006496FFAFEEAF64979E012A5F3F4F3FAF34
:1018D0002EAF90919D088091A008951508F4B6C48C
:1018E000ACADBDADE5E01D92EA95E9F7813009F4B4
:1018F00060C3823009F4F1C320E066C388E00E942F
:101900005509811106C084E00E945509882309F415
:10191000BECF109141081BAE1AAE1EAA1DAA1C8E86
:101920001B8E1A821982BE01665C7F4F111151C055
:1019300081E590E00E94270BBE016B5C7F4F83E541
:1019400090E00E94270BBE01655E7F4F85E590E029
:101950000E94270BBE016F5F7F4F87E590E00E94DA
:10196000270B8AAD9BAD01969BAF8AAF8DA99EA92F
:1019700001969EAB8DAB8B8D9C8D01969C8F8B8F32
:1019800029813A812817390710F49A838983BE0187
:10199000665C7F4F111135C081E590E00E943B0BE2
:1019A000BE016B5C7F4F83E590E00E943B0BBE0164
:1019B000655E7F4F85E590E00E943B0BBE016F5F47
:1019C0007F4F87E590E00E943B0B86E08093D60333
:1019D0005ECF89E590E00E94270BBE016B5C7F4FD4
:1019E0008BE590E00E94270BBE01655E7F4F8DE581
:1019F00090E00E94270BBE016F5F7F4F8FE590E064
:101A0000AECF89E590E00E943B0BBE016B5C7F4F3F
:101A10008BE590E00E943B0BBE01655E7F4F8DE53C
:101A200090E00E943B0BBE016F5F7F4F8FE590E01F
:101A3000CACF88E00E945509811106C084E00E9447
:101A40005509882309F423CF809141080E945F0B38
:101A5000BCCF80914208882311F0815001C089E0F9
:101A60008093420880E40E945509882371F0809198
:101A70004308882309F48EC0833038F480914208EB
:101A8000883008F48CC01092420880E80E946009F7
:101A9000882359F080914508833038F080919E0862
:101AA00087FF03C08F5F80939E0880E80E945509DE
:101AB000882359F080914508811107C0809143081F
:101AC000811171C082E08093450880E10E94600925
:101AD00010919D08882389F080914508833068F033
:101AE00080919E08E12FF0E0EB5BFD4F908198170D
:101AF0000CF070C0815080939E0880E10E945509CF
:101B0000882361F080914508811108C080914308C5
:101B1000882309F463C0813009F46FC084E00E9417
:101B20005509882399F0E0919C08EE2379F0E15063
:101B3000E0939C0835E0139FC00111248F5B974F01
:101B4000E80FF92FF11D80E2878F15AE88E00E9423
:101B50005509882309F49BCEA0914208A1114FC0DA
:101B600080914308823009F0FCC1E0919C08EE238B
:101B700009F48DCE8FEF8E0F80939C0845E0149F63
:101B8000F0011124EF5BF74FE80FF11D80E2878F22
:101B900015AE7DCE80914208893008F074CF8F5FFA
:101BA0008093420872CF813091F0823009F08DCF5E
:101BB00080914208893039F481E08093430888E0BD
:101BC0008093420882CF81E0809343087ECF1092B9
:101BD00043087BCF81E0809345088FCF80914208F6
:101BE000893039F481E08093430888E0809342088B
:101BF00095CF81E08093430891CF82E0FBCFA8305E
:101C000009F0AFC190914308923009F0AAC1612F49
:101C100070E055E0159FF0011124DF01A05AB74F85
:101C20004D018E010B5C1F4F7E01BAE3EB0EF11CE0
:101C30009E012F5F3F4F42EA58E0D801580191E0E2
:101C4000F401D1904F01DD92FA01D190AF01F90179
:101C5000D1929F01F401958FAE15BF0589F7AE01B2
:101C60004F5F5F4F6801F60121916F01FA01919179
:101C7000AF01291380E0CA16DB06A9F78823C9F053
:101C800085E0869FF001879FF00D1124EF5BF74FF1
:101C900082E085AF86AF87AFDF01A05CBF4F8C933A
:101CA000EF5BFF4F80838093A00883E180939F08C0
:101CB000EECD5DA880914108882339F1813009F487
:101CC00050C03E0150E2650E711C0E9498057E01D5
:101CD0006BE1E60EF11C47010E949805D4018D933B
:101CE0004D016A167B06C1F78B8D581638F05812D5
:101CF00061C09C8D8EA9891708F05CC00E948C057C
:101D000081E08093A0088FE0D1CF252D2154330BA3
:101D1000C9012AE1289FB001299F700D11248EA9C5
:101D20008154990B680F791F072E000C880B645F94
:101D30007F4E8F4F660F771F881F0E94AD050E9450
:101D4000A0057C010E948C0586E08E9DB0018F9DD0
:101D5000700D112480E06855754D8F4F0E94AD05C0
:101D6000B0CF452D4154550B2AE1249FB001259F4A
:101D7000700D11248EA98154990B680F791F072EBD
:101D8000000C880B60557D4E8F4F660F771F881FA4
:101D90000E94AD050E94A0057C010E948C0586E092
:101DA0008E9DB0018F9D700D112480E0615F784998
:101DB0008F4FD4CFD801F70191918D91981385CF92
:101DC000E815F905C9F780919D08B5E08B9FC00122
:101DD0001124AC014F5B574FFE013196380121E0D1
:101DE00030E0A2E09A2EB0E28B2ED3017D913D012E
:101DF000619176130BC0BA01620F731FDB01DC9691
:101E00009C92BF0161507109DB018C922F5F3F4FA3
:101E10002630310551F772EA272E78E0372E4C0133
:101E2000B5E28B1A9108E3E06E2EF0E27F2EF80106
:101E300061918F01D1012D911D01022E000C330BF8
:101E400062171306E9F0DE01119630E020E0BA01D6
:101E5000620F731FFB0165AD623009F46AC0F701C0
:101E600070816C91761365C0D101A80DB91D6C927B
:101E700061E070E06C0F7D1F260F371FD9017C9247
:101E8000BFEFEB1AFB0A0C151D0589F630E020E0C8
:101E900064E0F62E8A01020F131FF80165AD613070
:101EA000A9F4F501E20FF31F608170E0E2EAF8E0C7
:101EB000A1910A2E000CBB0B6A177B0719F4D801FD
:101EC000DD96FC92B8E0E73AFB0791F72F5F3F4FB2
:101ED00025303105F9F630E020E0FA01E20FF31F7A
:101EE00065AD613041F4F501E20FF31FE081F0E0F0
:101EF000EB5FF74F60832F5F3F4F2530310569F768
:101F0000FC01E258F74F80E091E02191243019F470
:101F1000DF0111979C938F5F8530B9F783E0809341
:101F2000A00880919D08853061F484E08093A0082A
:101F3000AECC2F5F3F4F11962530310509F087CF8A
:101F40009FCF10929C0891E0980F90939D0892303B
:101F500008F49DCC93EF899F802D112480939E08D7
:101F600096CC80919C08853008F091CC25E0129F9A
:101F7000F0011124EF5BF74FE80FF11D20914308AA
:101F80004AE0249F90011124295D3D4FA20FB32FF9
:101F9000B11D9C919F5B978F8F5F80939C088530CC
:101FA00009F075CC88E08093420882E08093430872
:101FB0006ECC9511A1CCE0919F08EE2309F49CCC46
:101FC000F0E0E55BFE4F2081FDE05F9EC001112443
:101FD00060964EAD5FAD6097480F591F2C965FAF6E
:101FE0004EAF2C97BC01680D791D24967FAF6EAF64
:101FF00024970D966296AEADBFAD6297A80FB91F3C
:102000002E96BFAFAEAF2E97B5E05B9EC0011124F8
:10201000FC01EF5BF74F1F01AE014F5F5F4F229650
:102020005FAF4EAF229764966EAC7FAC6497620E42
:10203000711C27FD7A942296AEADBFAD22970D910B
:102040002296BFAFAEAF2297002E000C110B2C963C
:10205000CEACDFAC2C97C00ED11E7301B3E2EB0EF9
:10206000F11CF10185AD823009F46EC0833009F4B2
:1020700090C08111DAC081E080930001F092C20328
:10208000E092C103D092C003C092BF03878D0E942B
:10209000F2092E96EEADFFAD2E970E0F1F1F41E0F9
:1020A000B801C30181960E946B0941E0B801C701E4
:1020B0000E946B0941E0B801C30185960E946B093B
:1020C00041E0B801C30187960E946B0941E0B80165
:1020D000C30189960E946B0993C095110DCCE091C4
:1020E0009F088FEF8E0F8E3030F4AE2FB0E0A55BDF
:1020F000BE4F8C9189838EEF8E0F8E3030F4AE2FD1
:10210000B0E0A65BBE4F8C918A838DEF8E0F8E3030
:1021100030F4AE2FB0E0A75BBE4F8C918B838CEF79
:102120008E0F8E3030F4AE2FB0E0A85BBE4F8C9196
:102130008C838BEF8E0F8E3008F0DECBF0E0E95B06
:10214000FE4F80818D83D8CB1092000124962EAD56
:102150003FAD2497020F131F530130E2A30EB11CB1
:10216000A301455D5F4F2A965FAF4EAF2A972A962F
:102170006EAD7FAD2A976A157B0509F459C021E041
:102180004BE0B801C5010E94F7097FEFA71AB70A13
:10219000EECF81E080930001F092C203E092C10390
:1021A000D092C003C092BF03878D0E94F20924968B
:1021B0002EAD3FAD2497020F131F730130E2E30EE3
:1021C000F11C0034110528F44BE0B801C7010E944E
:1021D000C603B801665F7F4F6034710520F44BE0A1
:1021E000C7010E94C60321E04BE0B801C7010E946D
:1021F000F70921E04BE0B801C3018A960E94F70974
:10220000BFEF2B1A3B0AEDE06E0E711C22962EAD2D
:102210003FAD22974EAD5FAD2417350709F00BCFC8
:1022200081E080930001539454CB81E080930001BE
:10223000F092C203E092C103D092C003C092BF03E8
:10224000D1015F968C910E94F209DACF823009F4B5
:10225000C3C108F0F5C0813009F4A7C1109144084A
:1022600083E1840D9AE1E2E1F1E0DE015B96019009
:102270000D929A95E1F79AE1ECE2F1E0DE01119618
:1022800001900D929A95E1F7BE01655E7F4F24960D
:102290007FAF6EAF2497DE0111962296BFAFAEAF2F
:1022A000229731E4432E38E0532E712C612C49E003
:1022B000242E812E912CE82EF12C5AE0352E2496D6
:1022C000EEADFFAD249781912496FFAFEEAF24973A
:1022D00081502296AEADBFAD22979D912296BFAFA1
:1022E000AEAF22972FEF290F829DC02C112434E02E
:1022F000923008F430E0C30E933009F09CC19EEF99
:10230000239DA02C1124B12CBFEFAB1ABB0AA80C43
:10231000B91CC90ECE0CDF2CD11C90914208891338
:102320008CC180914308281388C180914508811190
:1023300084C1F301E155FE4F20813181428101E0EA
:10234000B501C6010E94CA05809143082091420848
:10235000389EC0011124895D9D4F820F911DDC01C3
:10236000EC91F0E0EF5BF74F858100E124E635E08A
:1023700040E0813019F420E935E040E0B501C601C4
:102380000E94CA05FFEF4F1A5F0A23E0620E711C1C
:102390003EE46316710409F092CF640145E1C40E76
:1023A000D11C8091420801E0811107C0809143084F
:1023B00022E235E040E0823019F020E732E040E0F0
:1023C000B601C7010E94CA05C701865B9F4F2091D5
:1023D000420801E0283009F03FC120914308223033
:1023E00009F03AC12EE335E040E0B6010E94CA058B
:1023F000103428F44BE5B401C7010E94C60321E064
:1024000042E384010F5F1F4FB801C70101970E948B
:10241000F70921E042E3B801C701855A9F4F0E94A6
:10242000F70980914508823008F41AC1843060F5BC
:10243000B4016450710901E02FE231E140E017C1BD
:10244000843009F4D9C010E000E0853009F006CFEF
:1024500020E040E263E270E0C8010E94F7090F5FEC
:102460001F4F00381105A1F78091410800E081114C
:10247000DAC028E838E040E065E270E08DE190E005
:102480000E94CA050E94890A80914508813009F49A
:10249000F2C0823099F4809144088F5F80934408A1
:1024A00090919D08923028F090919E089F5F9093A4
:1024B0009E08803419F483E080934508E0903F083B
:1024C000F0904008E114F104A1F525965FAD259741
:1024D000513009F4E4C0523009F4ECC088E890E0CF
:1024E0006C0126966FAD2697C61AD10827967FAD48
:1024F0002797713049F400E02AEE39E140E064E2C8
:1025000070E0C6010E94CA052896AFAD28978A2FB1
:1025100090E0FC01EE0FFF1FE80FF91FED5FFD4F8C
:1025200020813181428100E06DE270E0C6010E94AD
:10253000CA0520919F088091C9039091CA03222364
:1025400029F080FD03C0215020939F0863E070E0D4
:102550000E94091D892B79F4E114F10409F4AFC03C
:10256000B1E0EB1AF108F0924008E0923F08EF2842
:1025700011F41092BE03CD5ADF4F0FB6F894DEBFB0
:102580000FBECDBFDF91CF911F910F91FF90EF90C4
:10259000DF90CF90BF90AF909F908F907F906F9083
:1025A0005F904F903F902F9008958091410800E0F8
:1025B00081110AC020E236E040E060E370E087E18C
:1025C00090E00E94CA0560CF28EC36E040E060E36E
:1025D00070E085E090E0F5CF8091410800E02CEBC1
:1025E00035E040E0882319F02EEE35E040E060E36E
:1025F00070E089E290E0E5CF0E94890A809141086D
:1026000000E0811108C028EB37E040E065E270E0AF
:1026100082E190E0D6CF28E138E040E065E270E06A
:102620008AE090E0CECF22ED38E040E065E270E055
:1026300080E290E025CF90E063CEF2018581F30146
:10264000811107C0E55AFE4F20813181428101E0AE
:1026500095CEE155FE4FF8CF2CE832E040E0C5CEF4
:10266000B4016450710901E026E231E140E0C701A4
:102670008A5A9F4FA6CF8091440881508093440886
:1026800090919D08923028F090919E0891509093DF
:102690009E08813209F012CF109245080FCF00E05A
:1026A0002AEB39E140E06CE170E08AE690E00E94BC
:1026B000CA0514CF00E022ED39E140E0F4CF80916B
:1026C000BE038F5F8093BE038C3908F454CF0E9401
:1026D000261C2EE531E040E050E00E94A61C6E5C16
:1026E0007F4F8F4F9F4F7093400860933F0843CFB9
:1026F0000F93CF93DF9300D000D000D0CDB7DEB7DB
:1027000088E00E945509882319F084E08093D6035D
:1027100080E20E945509882359F080914108813058
:1027200039F41092410860E080E590E00E94861C38
:1027300080E40E945509882361F08091410881114D
:1027400008C081E08093410861E080E590E00E944C
:10275000861C84E00E945509882319F086E0809346
:10276000D603DE01119686E0FD0111928A95E9F704
:102770008091D1038111B5C0E091D203EA0FFB2F04
:10278000F11D8091D30381508083E9818E2F90E0E9
:10279000FC01EE0FFF1FE80FF91FE75AFC4F2081E5
:1027A0003181428101E06BE070E08EE090E00E94B8
:1027B000CA05EA818E2F90E0FC01EE0FFF1FE80FA3
:1027C000F91FED5DFC4F2081318142816BE070E0AB
:1027D0008FE190E00E94CA05EB818E2F90E0FC0112
:1027E000EE0FFF1FE80FF91FE351FD4F20813181EC
:1027F00042816BE070E080E390E00E94CA05EC81CA
:102800008E2F90E0FC01EE0FFF1FE80FF91FE95437
:10281000FD4F2081318142816BE070E081E490E0E6
:102820000E94CA05ED818E2F90E0FC01EE0FFF1F84
:10283000E80FF91FEF57FD4F2081318142816BE096
:1028400070E082E590E00E94CA05EE818E2F90E054
:10285000FC01EE0FFF1FE80FF91FE55BFD4F208124
:10286000318142816BE070E083E690E00E94CA050E
:1028700028E331E140E06DE170E090E080E00E940B
:10288000CA0580914108882309F43EC08AE490E09B
:1028900001E02EE131E140E06FE270E00E94CA0504
:1028A0008091D303882399F081508093D3038111C1
:1028B0000EC00E94261C28EA30E040E050E00E9452
:1028C000A61C605E7F4F8F4F9F4F6093D10326966B
:1028D0000FB6F894DEBF0FBECDBFDF91CF910F9141
:1028E000089581508093D10381114FCF0E94261CFF
:1028F00026E030E040E050E00E94A61C6093D20346
:1029000083E18093D30341CF80E190E0C1CFEF9288
:10291000FF920F931F93CF93DF9300D0CDB7DEB715
:10292000F82E162F042F8EE490E00E947E1CE82ED5
:102930008FE490E00E947E1C1A821982F11006C07A
:102940009CE4E91203C0853409F450C06CE48EE4C1
:1029500090E00E94861C65E48FE490E00E94861C53
:10296000612F80E590E00E94861CFF2009F44FC093
:10297000111148C0BE016F5F7F4F81E590E00E945A
:102980003B0BBE016F5F7F4F83E590E00E943B0BE6
:10299000BE016F5F7F4F85E590E00E943B0BBE015B
:1029A0006F5F7F4F87E590E00E943B0BFF2039F17E
:1029B000113029F5BE016F5F7F4F89E590E00E94DD
:1029C0003B0BBE016F5F7F4F8BE590E00E943B0B9E
:1029D000BE016F5F7F4F8DE590E00E943B0BBE0113
:1029E0006F5F7F4F8FE590E00E943B0B0F900F9041
:1029F000DF91CF911F910F91FF90EF9008950111FA
:102A0000D9CFF4CF0111B6CF113081F7D3CF011157
:102A1000B1CFECCFEF92FF920F93CF93DF93CDB76F
:102A2000DEB728970FB6F894DEBF0FBECDBF1A826F
:102A300019821C821B821E821D8218861F82809131
:102A40004108BE016F5F7F4F8111E1C081E590E0D9
:102A50000E94270BBE016D5F7F4F83E590E00E94CF
:102A6000270BBE016B5F7F4F85E590E00E94270B2F
:102A7000BE01695F7F4F87E590E00E94270B6B8165
:102A80007C81F12CE12C6115710559F029813A8185
:102A900044E6429FC001439F900D11240E94091DEE
:102AA0007B0188E00E945509882319F082E0809319
:102AB000D60384E00E946009882309F4C0C0809195
:102AC000A1088F5F8093A108803431F440E06091C9
:102AD000410881E00E9487148091410800E026E1CE
:102AE00039E040E0882319F02AE13DE040E070E061
:102AF00060E090E080E00E94CA058FE190E0909352
:102B0000C2038093C1038EE090E09093C003809352
:102B1000BF038B819C818436910510F40E941F0BAA
:102B20008B819C810A9710F40E941F0B6B817C8122
:102B300090E080E04AE00E94D10A84E590E0909322
:102B4000C2038093C1038EE090E09093C003809312
:102B5000BF0384E6E816F10440F40E941F0B8AE0EC
:102B6000E816F10410F40E941F0BB70190E080E01A
:102B70004AE00E94D10A8FE190E09093C2038093D3
:102B8000C10387E290E09093C0038093BF038D81DF
:102B90009E818436910510F40E941F0B8D819E81C9
:102BA0000A9710F40E941F0B6D817E8190E080E0F7
:102BB0004AE00E94D10A84E590E09093C20380939A
:102BC000C10387E290E09093C0038093BF038F819D
:102BD00098858436910510F40E941F0B8F8198858B
:102BE0000A9710F40E941F0B6F81788590E080E0B7
:102BF0004AE00E94D10A28960FB6F894DEBF0FBEB5
:102C0000CDBFDF91CF910F91FF90EF90089589E5AF
:102C100090E00E94270BBE016D5F7F4F8BE590E037
:102C20000E94270BBE016B5F7F4F8DE590E00E94F5
:102C3000270BBE01695F7F4F8FE590E01ECF10929A
:102C4000A1084ACF1F920F920FB60F9211248F93B3
:102C50009F938091E1009091E100937F9093E10038
:102C600083FF0FC01092E90091E09093EB00109267
:102C7000EC0092E39093ED001092EC0398E09093B7
:102C8000F00082FF22C093E09093E9009091F2005F
:102C9000992319F09AE39093E8009091DD0399232A
:102CA00041F09091DD0391509093DD03911101C0AB
:102CB0005D9A9091EB03992341F09091EB03915031
:102CC0009093EB03911101C0289A84FF18C0809162
:102CD000E2008E7E81608093E2008091E1008F7E31
:102CE0008093E1008091DE038E7E80618093DE031D
:102CF0009F918F910F900FBE0F901F90189580FF9E
:102D0000F7CF8091E2008E7E80618093E200809117
:102D1000E1008E7E8093E1008091DE038E7E8160F3
:102D2000E5CF1F920F920FB60F921124CF92DF9230
:102D3000EF92FF920F931F932F933F934F935F93C5
:102D40006F937F938F939F93AF93BF93EF93FF9373
:102D5000CF93DF93CDB7DEB76C97DEBFCDBF1092B8
:102D6000E9008091E80083FF25C068E0CE01459628
:102D70000E94520582EF8093E8008D8987FF39C059
:102D80009091E80090FFFCCF982F907609F034C125
:102D90009E894F89588D2F89F88C911131C08038C8
:102DA00061F58091DC038093F1001092F1008EEFC9
:102DB0008093E8006C960FB6F894DEBF0FBECDBFCF
:102DC000DF91CF91FF91EF91BF91AF919F918F9143
:102DD0007F916F915F914F913F912F911F910F9133
:102DE000FF90EF90DF90CF900F900FBE0F901F904D
:102DF00018959EEF9093E800C7CF1092F100D5CFC1
:102E0000913059F48111D3CF4130510581F6809131
:102E1000DC038D7F8093DC03CACF933049F48111AA
:102E2000C6CF4130510519F68091DC038260F2CFA4
:102E3000953041F48091E80080FFFCCF206820931A
:102E4000E300B5CF963009F0A9C00B8D1C8D22E0B0
:102E50001092E9001092DA031092D903F2122EC0F8
:102E60001092D8031092D7030E9421051F8299E087
:102E70009983FA8291E09E8390EA98879AEF9987E6
:102E80002091D9033091DA03275F3F4F3C832B8396
:102E90008D831092E9001092DA031092D9031093F7
:102EA000D8030093D70349E050E0BE016F5F7F4F26
:102EB00080E00E94FB040E94210579CF1093D80383
:102EC0000093D7030E943804DC0112960D911C91E7
:102ED0000115110509F451C1D801ED91FC9104804F
:102EE000F581E02DBE016B5E7F4FC801099500970B
:102EF00009F03EC1F80100851185EACFF3E0FF1229
:102F00000EC08F89882309F440C0823061F440E804
:102F100067E08EE297E00E940D19811148CF81E2AF
:102F20008093EB0047CF813029F440E86BE082E2E8
:102F300097E0F1CF833099F70E943804DC011296B4
:102F4000ED90FC908E010F5F1F4F6801E114F104BA
:102F500079F0D701ED91FC910680F781E02DB80161
:102F6000C7010995080F111DF701E084F184EECF28
:102F7000D8011C92F60101900020E9F73197BF01BA
:102F80006C197D0940E0C601C6CF6CE077E0FB011B
:102F9000449150E080E80E94FB0409CF973009F487
:102FA000BECF983021F481E08093F10000CF9930BA
:102FB00009F0FDCE837009F0B2CFE0E9F3E081E0E3
:102FC00031E096E32191222371F08093E900309360
:102FD000EB00DF0111972C912093EC009093ED0012
:102FE0008F5F873079F78EE78093EA001092EA00CE
:102FF0008F898093EC03DBCE8B8D9C8D1092E90042
:103000001092DA031092D9039093D8038093D703D8
:10301000898D811192C08E899D89913A49F48132BE
:1030200009F07DCF47E050E066E071E080E0B3CF8B
:10303000913209F074CF833269F48F89988DB0E0B2
:10304000A0E08093020190930301A0930401B09348
:103050000501ADCE803269F48091E80082FFFCCF9B
:1030600067E086E091E00E9452058BEF8093E800D4
:103070009ECE823209F09BCE8F8980930D01EEEFB8
:10308000FFE7859194918B3F9C4D51F1E0E0F8E092
:103090008091060190910701A0910801B09109016A
:1030A000803B9440A105B105F1F480910D0180FDB4
:1030B0001AC0EE3F8AE0F80789F587E797E7918322
:1030C0008083809160008093DB0388E19BE00FB6F2
:1030D000F894A895809360000FBE9093600067CE2F
:1030E000EEEFFAE0D5CF808191818737974709F0DD
:1030F0005ECEA89580916000886180936000809189
:10310000DB0380936000EE3F2AE0F20789F08091B4
:10311000FE0A9091FF0A9183808349CE808191813C
:103120008737980751F29093FF0A8093FE0AC5CF24
:103130001092FF0A1092FE0A3ACE0E943804DC0177
:1031400012960D911C910115110509F4E8CED801D4
:10315000ED91FC910190F081E02DBE016B5E7F4FFF
:10316000C8010995811123CEF80100851185EBCFA7
:10317000181619060CF41BCED2CEF1E0FF12BECE0B
:1031800060E177E004CF0F920FB68F939F93EF9398
:10319000FF938091C4038D5F8D3708F08D57809326
:1031A000C403EDECF3E080818E4F808391819F4FCB
:1031B000918382818F4F828383818F4F8383E5EC5C
:1031C000F3E080818F5F808381818F4F8183828153
:1031D0008F4F828383818F4F83838FB18F606699F6
:1031E0001C9B88278F3681F48091C303981B9630EF
:1031F00068F0E0E0F8E087E78083818388E18093EE
:103200006000F0936000FFCF9093C303FF91EF91B4
:103210009F918F910FBE0F901895EF92FF920F9391
:103220001F93CF93DF93F82E192FE62E042F81E002
:10323000860F880F0E94CD0483E00E94CD04CF2D1D
:10324000D12FEC0EFD2EF11CCE15DF05B9F007FFD6
:1032500013C0FE0184910E94CD04182F80E00E94CB
:10326000CD04812321968111EFCFDF91CF911F9162
:103270000F91FF90EF9008958881EDCF81E0F5CF19
:10328000EFEEF7E01382128288EE93E0A0E0B0E068
:1032900084839583A683B7838AE993E091838083AF
:1032A0008FEF9FEF95878487E7EAF8E01382128219
:1032B0008CEA93E091838083E1E4F8E0108211824C
:1032C000128281E2838310929C0810929D081092D2
:1032D0009E0810929F081092A0081092A10885E005
:1032E000E6E4F1E0A2EAB8E001900D928A95E1F7F8
:1032F0000E94261C2EE531E040E050E00E94A61C12
:103300006E5C7F4F8F4F9F4F7093400860933F08D4
:10331000089500D01F92CDB7DEB7789483E084BDC6
:1033200083E085BD81E080936E00E1E8F0E083E01A
:103330008083E0E881E08083E1E983E08083E0E965
:1033400081E08083E1EC87E08083E3EC81E08083AF
:10335000E0EC82E08083E2EC81E08083EAE787E0D2
:103360008083806880831092EC031092DC031092BB
:10337000DE038091D70081608093D70080EA80933C
:10338000D80089B5806189BD89B5826089BD09B4DD
:1033900000FEFDCF81E090E00E94C5068091D8003C
:1033A0008F7C80618093D8008091E000807F809343
:1033B000E0008091E1008E7E8093E1008DE08093BB
:1033C000E200559A209A81EC80937C0081EF85B9C8
:1033D00087EE84B982E38BB982EF8AB9769A6E98C8
:1033E00080EF81BB10BA80E58CBD81E08DBD85E0AA
:1033F0000E944A095F9A85E00E944A095C98EDEBB9
:10340000F6E085918EBD00000DB407FEFDCFEA3CCD
:10341000C1F75C9A81E88093640081E08093650045
:1034200080E80E9460098823A9F05C9885EA8EBD37
:1034300000000DB407FEFDCF5C9A2E982F982D98B2
:103440008091640080628093640081E083BF8895EE
:1034500013BEFCCF84E00E946009882309F443C0B6
:103460002D9884E80E9460098823D1F02D9A88EC79
:103470000E944A092F9882E090E00E947E1C8F3FB4
:1034800029F06FEF82E090E00E94981C84EF91E0B9
:103490000E94C5062F9A84E80E9460098111FBCF23
:1034A00084E10E9460098823D1F02D9A88EC0E9463
:1034B0004A092E9882E090E00E947E1C882329F021
:1034C00060E082E090E00E94981C84EF91E00E940E
:1034D000C5062E9A84E10E9460098111FBCF88EC19
:1034E0000E944A09B7CF2D9A80E180930101809113
:1034F00064008E7F8093640080917A008064809362
:103500007A0080917A0086FDFCCF009178001091BE
:1035100079000E945C07AB01BC01C801B0E0A0E0EB
:10352000DC01992788278C019D01040F151F261F98
:10353000371FC901B8012091640021602093640005
:10354000611571058105910511F00E94751C5E9A47
:103550005E9AE4E1F0E0859194918831954909F013
:103560003FC0E6E1F0E08491E7E1F0E0E491F82F7C
:10357000F093EE03E093ED0359988BEA0E94A605C1
:10358000599A41E060E080E00E94871480E590E075
:103590000E947E1C8093410886EAC82E83E1D82EC3
:1035A000E12CF12C97EA292E98E0392E21E1822E88
:1035B0002AE0922EA12CB12C30E2432E512C612C0A
:1035C000712C11E000E28091CB03882381F01092EE
:1035D000CB0320E030E0232BB1F30E940000F1CFB9
:1035E00083E29FEF9093EE038093ED03C5CF90911C
:1035F000CD038091CC03292F281B822F209101011C
:10360000821738F48F5F821720F713BF889513BE97
:10361000E0CF1093CB039093CC03E9ECF3E08081EF
:1036200091810196808391838091D5038093D40307
:103630000E944D098093D503E091D603E83088F4C9
:10364000F0E0EB5DF44E0C941D1D2D1B2F1B421B57
:10365000511B541B7F1BD41BD71B1093D6030E94F6
:10366000240A5E98EFEEF3E080E098E000800EBC64
:103670001111012C019780FDFDCF0192B9F70DB416
:103680005E9AA7CF33E03093D6030E94261CA30195
:1036900092010E94A61C605F7F4F8F4F9F4F6093E7
:1036A000D1030E947813DDCF1092A0081092A108D8
:1036B000E6E4F8E0119288E0E036F807D9F7E0E6B2
:1036C000F8E00083168E0183178E028310A2038315
:1036D00011A2048312A2359698E0EE37F90789F714
:1036E00010929C0810929D0810929E08E5E0E093CD
:1036F000D60380914108882329F0813071F10E941E
:10370000A20BAFCF0E94261CA50194010E94A61C0B
:10371000AB01BC0196E0862FBA010E94231D842FC5
:10372000B9016855754D8F4F0E94AD050E949805EF
:10373000898322EA38E03B832A830E949805EA8144
:10374000FB818193FB83EA832E163F06B1F70E942B
:103750008C05F981F130B1F6D2CF0E94261CA70169
:1037600096010E94A61CAB01BC0196E0862FBA010F
:103770000E94231D842FB901615F78498F4F0E94F9
:10378000AD050E94980522EA38E03B832A830E9417
:103790009805EA81FB818193FB83EA832E163F061D
:1037A000B1F70E948C05ABCFF7E0F093D6030E94EF
:1037B0000A1557CF8F929F92AF92BF92CF92DF920E
:1037C000EF92FF92CF93DF93EC01688179818A8138
:1037D0009B81611571058105910521F464E279ED04
:1037E0008BE597E02DE133EF41E050E00E94A61C0D
:1037F00049015A019B01AC01A7EAB1E40E94C51C32
:103800006B017C01ACEEB4EFA50194010E94D31CC6
:10381000C60ED71EE81EF91EF7FE06C081E0C81AC4
:10382000D108E10880E8F80AC882D982EA82FB82DE
:10383000C701B6019F77DF91CF91FF90EF90DF90A6
:10384000CF90BF90AF909F908F9008958F929F924E
:10385000AF92BF92CF92DF92EF92FF9260910E01F2
:1038600070910F0180911001909111016115710506
:103870008105910521F464E279ED8BE597E02DE176
:1038800033EF41E050E00E94A61C49015A019B0120
:10389000AC01A7EAB1E40E94C51C6B017C01ACEE4F
:1038A000B4EFA50194010E94D31CC60ED71EE81EDA
:1038B000F91EF7FE06C081E0C81AD108E10880E8C9
:1038C000F80AC0920E01D0920F01E0921001F0921E
:1038D0001101C701B6019F77FF90EF90DF90CF9065
:1038E000BF90AF909F908F90089560930E0170935A
:1038F0000F0180931001909311010895F999FECF63
:1039000092BD81BDF89A992780B50895262FF9991F
:10391000FECF92BD81BDF89A019700B4021639F02E
:103920001FBA20BD0FB6F894FA9AF99A0FBE0895FF
:10393000262FF999FECF1FBA92BD81BD20BD0FB6CB
:10394000F894FA9AF99A0FBE01960895052E97FBFE
:103950001EF400940E94BD1C57FD07D00E94D81C85
:1039600007FC03D04EF40C94BD1C50954095309547
:1039700021953F4F4F4F5F4F0895909580957095DB
:1039800061957F4F8F4F9F4F08950E94FA1CA59F0E
:10399000900DB49F900DA49F800D911D112408954A
:1039A000B7FF0C94C51C0E94C51C821B930B089585
:1039B000A1E21A2EAA1BBB1BFD010DC0AA1FBB1F33
:1039C000EE1FFF1FA217B307E407F50720F0A21BA5
:1039D000B30BE40BF50B661F771F881F991F1A9412
:1039E00069F760957095809590959B01AC01BD013C
:1039F000CF010895A29FB001B39FC001A39F700D96
:103A0000811D1124911DB29F700D811D1124911DE6
:103A10000895AA1BBB1B51E107C0AA1FBB1FA61715
:103A2000B70710F0A61BB70B881F991F5A95A9F767
:103A300080959095BC01CD010895EE0FFF1F059074
:103A4000F491E02D0994699F9001899F402D799F01
:103A5000300D411D112497FF0895361B470B089523
:043A6000F894FFCF08
:103A64000110FFFFFFFF00E1000000000000010063
:103A740000000106040303040506080708090807F3
:103A8400090A0104020507050203060202030302F0
:103A94000102020201020202030301010101020107
:103AA4000103010301032020202020000102010062
:103AB400FFFEFF0001020100FFFEFF0000001800EE
:103AC4000030000048000060000078000090000012
:103AD400A80000C00000D80000F000000801002089
:103AE40001003801005001006801008001009801C4
:103AF40000B00100C80100E00100F801001002005C
:103B04002802004002005802007002008C0200B239
:103B14000200CA0200E20200FA02001203002A03B1
:103B2400004203005A03007203008A0300A2030048
:103B3400BA0300D20300EA03000204001A040032AC
:103B440004004A04006204007A0400920400AA04F7
:103B540000C20400DA0400F204000A050022050091
:103B64003E0500841800A31800C218000019001FA5
:103B740019003E19005D19007C1900BA1900D21908
:103B840000E118009B190010160411131814080EF4
:103B94000F001203050607090A0BFF1A191702156D
:103BA400010D0C1BFF00001205FAEC6416008616CA
:103BB40000A81600CA1600B81700DA1700FC170090
:103BC4001E18004018006218004018001E1800FC5F
:103BD4001700DA1700B81700CA1600A816008616D0
:103BE40000DC1500FE1500201600421600EC16003D
:103BF4000E17003017005217007417009617007440
:103C040017005217003017000E1700EC160042166A
:103C140000201600FE1500541500761500981500B6
:103C2400BA1500B81700DA1700FC17001E18004078
:103C340018006218004018001E1800FC1700DA175C
:103C440000B81700BA1500981500761500CC1400BA
:103C5400EE1400101500321500EC16000E1700309B
:103C640017005217007417009617007417005217A4
:103C7400003017000E1700EC160032150010150066
:103C8400EE1400441400661400881400AA1400B84A
:103C94001700DA1700FC17001E18004018006218FD
:103CA400004018001E1800FC1700DA1700B81700AF
:103CB400AA1400881400661400BC1300DE1300006C
:103CC4001400221400EC16000E17003017005217CF
:103CD400007417009617007417005217003017006D
:103CE4000E1700EC1600221400001400DE1300006E
:103CF400C18081000000000000004C04D9066D045E
:103D04006204B30471048F040000000086095F0597
:063D1400210A200A300024
:00000001FF
