:100000000C949C030C94C4030C94C4030C94C4037C
:100010000C94C4030C94C4030C94C4030C94C40344
:100020000C94C4030C94C4030C9435170C94A417BB
:100030000C94C4030C94C4030C94C4030C94C40324
:100040000C94C4030C94C4030C94C4030C94C40314
:100050000C94C4030C94C4030C94C4030C94D619DC
:100060000C94C4030C94C4030C94C4030C94C403F4
:100070000C94C4030C94C4030C94C4030C94C403E4
:100080000C94C4030C94C4030C94C4030C94C403D4
:100090000C94C4030C94C4030C94C4030C94C403C4
:1000A0000C94C4030C94C4030C94C4030208D4D26B
:1000B00005087F7F3E1C084120FE0105F1F1F1118A
:1000C000D1B1D111F1515151515151515151515160
:1000D0005151510000FF00007F7F09090F06007F8A
:1000E0007F19396F46007F7F4949414100266F499A
:1000F000497B3200266F49497B32FF0000FFFFFF3A
:10010000FEFFFEFF0279CD95A5CD790111111101F8
:10011000F9F901010000FF00007F7F09090F0600C7
:100120007F7F40404040007C7E0B0B7E7C00070FB1
:1001300078780F0700000000000000FF00001F3F5C
:100140003F33333333333E36363E363E363E363635
:100150003E36363E360000FF00003E7F41417F3E86
:10016000007F7F0E1C7F7F00000000000000000069
:100170000000000000000000000000003F40504070
:1001800040407846414159594141414159594141C5
:1001900041414141414100007F000001017F7F0159
:1001A00001007C7E0B0B7E7C007F7F09090F06001F
:1001B0007F7F49494141000000000000000000002D
:1001C00000003E5B4F5B3E3E6B4F6B3E1C3E7C3EF9
:1001D0001C183C7E3C181C577D571C1C5E7F5E1C07
:1001E00000183C1800FFE7C3E7FF0018241800FFC1
:1001F000E7DBE7FF30483A060E2629792926407FBB
:10020000050507407F05253F5A3CE73C5A7F3E1CC9
:100210001C08081C1C3E7F14227F22145F5F005FB5
:100220005F06097F017F006689956A606060606093
:1002300094A2FFA29408047E040810207E201008D7
:10024000082A1C08081C2A08081E101010100C1E72
:100250000C1E0C30383E3830060E3E0E06000000F4
:10026000000000005F00000007000700147F147FFB
:1002700014242A7F2A122313086462364956205018
:100280000008070300001C2241000041221C002A34
:100290001C7F1C2A08083E080800807030000808EF
:1002A000080808000060600020100804023E514960
:1002B000453E00427F400072494949462141494D2F
:1002C000331814127F1027454545393C4A494931B6
:1002D00041211109073649494936464949291E0035
:1002E00000140000004034000000081422411414DF
:1002F000141414004122140802015909063E415DFC
:10030000594E7C1211127C7F494949363E41414188
:10031000227F4141413E7F494949417F0909090105
:100320003E414151737F0808087F00417F41002012
:1003300040413F017F081422417F404040407F02FE
:100340001C027F7F0408107F3E4141413E7F090926
:1003500009063E4151215E7F09192946264949492E
:100360003203017F01033F4040403F1F2040201FD8
:100370003F4038403F63140814630304780403616A
:1003800059494D43007F414141020408102000417A
:1003900041417F0402010204404040404000030705
:1003A000080020545478407F28444438384444445A
:1003B00028384444287F385454541800087E0902D1
:1003C00018A4A49C787F0804047800447D40002091
:1003D00040403D007F1028440000417F40007C04E5
:1003E0007804787C080404783844444438FC1824A1
:1003F000241818242418FC7C080404084854545475
:100400002404043F44243C4040207C1C2040201C09
:100410003C4030403C44281028444C9090907C4410
:1004200064544C440008364100000077000000414D
:1004300036080002010204023C2623263C1EA1A12C
:1004400061123A4040207A38545455592155557913
:1004500041215454784121555478402054557940D5
:100460000C1E527212395555555939545454593934
:10047000555454580000457C410002457D4200011E
:10048000457C40F0292429F0F0282528F07C54559B
:1004900045002054547C547C0A097F49324949491B
:1004A000323248484832324A4848303A4141217A4B
:1004B0003A42402078009DA0A07D39444444393D13
:1004C0004040403D3C24FF2424487E4943662B2F76
:1004D000FC2F2BFF0929F620C0887E0903205454E5
:1004E00079410000447D413048484A32384040223A
:1004F0007A007A0A0A727D0D19317D2629292F2862
:10050000262929292630484D40203808080808089F
:10051000080808382F10C8ACBA2F102834FA000089
:100520007B000008142A142222142A1408950022A1
:100530000095AA005500AAAA55AA55AA000000FFD6
:1005400000101010FF00141414FF001010FF00FF23
:100550001010F010F0141414FC001414F700FF0035
:1005600000FF00FF1414F404FC141417101F1010E3
:100570001F101F1414141F00101010F000000000B2
:100580001F101010101F10101010F010000000FFAE
:10059000101010101010101010FF10000000FF14A9
:1005A0000000FF00FF00001F10170000FC04F414FF
:1005B000141710171414F404F40000FF00F71414B7
:1005C0001414141414F700F7141414171410101F33
:1005D000101F141414F4141010F010F000001F1069
:1005E0001F0000001F14000000FC140000F010F0B9
:1005F0001010FF10FF141414FF141010101F00002F
:100600000000F010FFFFFFFFFFF0F0F0F0F0FFFF41
:10061000FF0000000000FFFF0F0F0F0F0F384444D2
:1006200038447C2A2A3E147E02020606027E027E9E
:100630000263554941633844443C04407E201E20F7
:1006400006027E020299A5E7A5991C2A492A1C4C9C
:100650007201724C304A4D4D303048784830BC629F
:100660005A463D3E494949007E0101017E2A2A2A17
:100670002A2A44445F444440514A444040444A5139
:10068000400000FF0103E080FF000008086B6B08DA
:100690003612362436060F090F060000181800001F
:1006A000001010003040FF0101001F01011E001961
:1006B0001D1712003C3C3C3C0000000000D5F08DB2
:1006C00014A1C881CFD9F1AF2000080B00020202AB
:1006D00000000904000001020200000524001001CE
:1006E0000524010101042402060524060001070572
:1006F000810310004009040100020A000000070500
:1007000002024000000705830240000004030904C0
:1007100012010002EF020140412336800001010274
:10072000030141726475696E6F204C4C4300417245
:100730006475626F7900531A11241FBECFEFDAE09F
:10074000DEBFCDBF13E0A0E0B1E0ECE7FCE302C008
:1007500005900D92AE3BB107D9F728E0AEEBB3E0C0
:1007600001C01D92A33BB207E1F713E0CCE9D3E04F
:1007700004C02197FE010E94291ECB39D107C9F779
:100780000E949A1A0C943C1E0C940000480F592F9A
:10079000511D1416150684F5803891056CF597FFE8
:1007A00002C090E080E04138510514F040E850E08C
:1007B000481BFB01E770FF2721E001C0220FEA95EB
:1007C000EAF777FF02C0695F7F4FFB0133E0F595E1
:1007D000E7953A95E1F7F695FE2FEE27F795E79521
:1007E000E80FF91FE950FC4F415030F08191DF01D3
:1007F0001197822B8C93F8CF0895FC018091F4031C
:10080000882311F13FB7F89482E08093E9002091AA
:10081000F200822F90E01816190614F481E090E09F
:10082000882339F0289844E64093F3034091F1007F
:100830004083222339F02091F200211103C02BE6DE
:100840002093E8003FBF08958FEF9FEF08952FB7E3
:10085000F89483E08093E9009091E800892F8072FA
:1008600095FF04C09091F20080E4891B2FBF08958A
:100870008091EB0381110DC082E08093E70384E057
:100880008093E8031092EA031092E90381E08093D9
:10089000EB0387EE93E00895CF93DF931F92CDB7DC
:1008A000DEB76983DC01ED91FC910280F381E02DDC
:1008B00041E050E0BE016F5F7F4F09950F90DF91DF
:1008C000CF91089583E08093E9008091F20088231E
:1008D00019F08AE38093E80008950E94270490E0CD
:1008E0000895CF93DF931F92CDB7DEB7FC018485C7
:1008F000958597FD08C02FEF3FEF358724870F9030
:10090000DF91CF910895CE0101960E94FD030197DA
:1009100019F4898190E0F3CF8FEF9FEFF0CF0F9321
:100920001F93CF93DF931F92CDB7DEB78C01FC01ED
:100930008485958597FF0BC0CE0101960E94FD032B
:10094000019771F4898190E0F80195878487F80117
:10095000848595850F90DF91CF911F910F91089518
:100960008FEF9FEFF1CFFC018485958597FD0BC03C
:100970009FB7F89482E08093E9008091F2009FBFD6
:1009800090E0019608959FB7F89482E08093E90083
:100990008091F2009FBF90E008954091E103509153
:1009A000E2032091DF033091E00342175307B4F4D0
:1009B0009091E8009570E1F39091E80092FD19C0E4
:1009C0008093F1008091E1039091E20301968F738F
:1009D0009927892B19F48EEF8093E8008091E10329
:1009E0009091E20301969093E2038093E10381E00A
:1009F000089580E00895DF92EF92FF920F931F9386
:100A0000CF93DF93D82E8A01EB017B01E40EF51E14
:100A1000CE15DF0559F0D7FE12C0FE0184910E9469
:100A2000CD0421968111F4CF0FEF1FEFC801DF91A4
:100A3000CF911F910F91FF90EF90DF9008958881E3
:100A4000EECF0F931F93CF93DF931F92CDB7DEB7F7
:100A500082E0898342E450E06AEC76E080E80E941C
:100A6000FB040E943804DC0112960D911C910115C3
:100A7000110589F0D801ED91FC910280F381E02D00
:100A8000BE016F5F7F4FC801099597FD04C0F80153
:100A900000851185ECCF89810F90DF91CF911F9157
:100AA0000F910895615030F02091F100FC012083F6
:100AB0000196F8CF289884E68093F3030895AF92C7
:100AC000BF92CF92DF92EF92FF920F931F93CF933B
:100AD000DF936C017B018B01040F151FEB015E019D
:100AE000AE18BF08C017D10759F06991D601ED9132
:100AF000FC910190F081E02DC6010995892B79F7D1
:100B0000C501DF91CF911F910F91FF90EF90DF9082
:100B1000CF90BF90AF9008950DB407FEFDCF8EB576
:100B2000599A08950E949805982F0E949E0508954D
:100B30000DB407FEFDCF8EB51EBC08950C948C0538
:100B40000E949805982F0E94980508958EBD000078
:100B50000DB407FEFDCF8EB50895CF92DF92EF92D0
:100B60006B01E82E0090F503D00C0090F603E01C1A
:100B7000599883E00E94A6058E2D0E94A6058D2D12
:100B80000E94A6058C2D0E94A6051EBCEF90DF904A
:100B9000CF9008954F925F926F928F929F92AF92F3
:100BA000BF92CF92DF92EF920F931F93CF93DF9379
:100BB0004C015B012901642E842FB9010E94AD050F
:100BC0000E94A005182FEC010E949205282FDE013B
:100BD000A80DB91D1A161B060CF0C2C080E88816B5
:100BE00091040CF0BDC0422F592FFA01EA0DFB1DF4
:100BF0001E161F060CF0B4C080E4A816B1040CF059
:100C0000AFC097FE0BC06627772768197909312F87
:100C1000361BA038B10554F030E808C030E8381968
:100C2000A138B1050CF4312F70E060E0B7FEA7C029
:100C3000413451051CF02A2D2770205C6B01072ED2
:100C4000000CEE0804FF05C0CC0CDD1CEE1CCC0F24
:100C5000DD1F84E0480E511C611CC40CD51CE61C31
:100C6000D50183E0B595A7958A95E1F711E0A1FC40
:100C700014E0A0FC110FA2FC1295FD01F695FE2FC9
:100C8000EE27F795E795E80DF91DE60FF71FE950F8
:100C9000FC4F599883E08EBD8091F5039091F60347
:100CA0008D0D9E1D0DB407FEFDCF9EBD0DB407FE3C
:100CB000FDCF8EBD0DB407FEFDCFCEBCCC0EDD1E2C
:100CC000E11C0DB407FEFDCF1EBC000FA73014F4CD
:100CD000089410FD88940795B2E041FDB8E042FD0C
:100CE000B29540FFB695BA9511F028300CF0BFEFE1
:100CF000932F0EB41EBC03FD0B268B2F00FD802D01
:100D000002FD0024019EB00104FB36F4C895C8958D
:100D100011240EB41EBC00FD082E019EA03034F03C
:100D2000808101FF6827602168276083E058FF4FBA
:100D300007FF06C0808101FF782771217827708323
:100D40001124EF57F0409A95A1F6E058FF4FE31BAE
:100D5000F1092850A3950DB4599A12160CF499CFA5
:100D6000DF91CF911F910F91EF90DF90CF90BF90C7
:100D7000AF909F908F906F905F904F900895E13467
:100D8000F1050CF45BCF20E42A1958CFFC010E9436
:100D90005D07319728F068517C4F8F4F9F4FF9CFF7
:100DA000AB01FC010E945D07641775078E079F0762
:100DB000C8F308958F929F92AF92BF92CF92DF9225
:100DC000EF92FF920F931F93CF93DF936C017B0100
:100DD0008A0180910E01882309F45AC08091F4039E
:100DE000882309F455C08091E60380FF05C08091F7
:100DF000E00082608093E000E801B12C8AEFA82E29
:100E000093E0892E2AE3922E209711F4BB20C9F19A
:100E10000E942704811108C0AA94AA20C9F181E088
:100E200090E00E94C606F0CF8C171D0611F00CF062
:100E30008C2F9FB7F8948092E9002091E80025FD5F
:100E400002C09FBFE1CF282F30E0C21BD30BF701B8
:100E5000815020F041914093F100FACFE20EF31E51
:100E6000BB2021F09092E800B12CEBCF8091E800FC
:100E700085FDE7CF9092E800BB24B394209709F357
:100E8000F3CF5D9884E68093E503101611063CF0DD
:100E900081E090E0F6019383828310E000E0C801D6
:100EA000DF91CF911F910F91FF90EF90DF90CF9046
:100EB000BF90AF909F908F900895ADECB3E02FB7A7
:100EC000F8947D918D919C9166B52FBFA89B05C02C
:100ED0006F3F18F47F5F8F4F9F4F22E0660F771FA1
:100EE000881F991F2A95D1F708952F923F924F920C
:100EF0005F926F927F928F929F92AF92BF92CF92AA
:100F0000DF92EF92FF920F931F93CF93DF9300D066
:100F100000D01F92CDB7DEB75D834C835901EC2D15
:100F2000452BD1F1402F50E0162F17701983A3E005
:100F300075956795AA95E1F7262FDA01A80FB91FD5
:100F4000A038B10514F000E8081BA1E0FE2DF770F1
:100F500009F4A0E0E694E694E694EA0EDB01AE0D17
:100F6000B11D19971CF0F8E0EF2EE61ADB01B695DB
:100F7000BA2FAA27B795A7958A0F9B1F3981A32F50
:100F8000330FBB0BE33009F435C1F0F4E13009F461
:100F9000EEC0E23009F453C00F900F900F900F9005
:100FA0000F90DF91CF911F910F91FF90EF90DF9005
:100FB000CF90BF90AF909F908F907F906F905F90F9
:100FC0004F903F902F900895EA3F09F48CC0EB3F7B
:100FD00019F7E22FE61BEE15F8F6FC01E950FC4F7D
:100FE0006F01B12CA12CEC81FD81A01608F0ACC0E2
:100FF000EA0DFB1D8490912C0A2E02C0880C991CCE
:101000000A94E2F727FD07C0F6017080F82DF095ED
:101010007F22F6017082F980FF2051F0273044F4DE
:10102000F601E058FF4F892C8094908098209082A0
:101030001FEFA11AB10A3FEFC31AD30AD4CF662417
:101040006A94712C098002C0660C771C0A94E2F73E
:1010500060947094572CE22FE61BEE1508F09CCF9D
:10106000FC01E950FC4F6F01B12CA12CEC81FD81FA
:10107000A01650F5EA0DFB1DE491F0E01F010A2EC9
:1010800002C0220C331C0A94E2F727FD05C0F601CA
:101090009080962092289082F980FF2071F027306E
:1010A00064F4460110E8810E911CF4014080E42DA7
:1010B000E5214E2E4328F4014082FFEFAF1ABF0A0C
:1010C0001FEFC11AD10AD2CFE40FF51FFD83EC83C5
:1010D00080589F4F2F5FBFCFE40FF51FFD83EC8338
:1010E00080589F4F2F5FE22FE61BEE1508F054CF7C
:1010F000FC01E950FC4F6F01B12CA12CEC81FD816A
:10110000A01650F7EA0DFB1D8490912C0A2E02C008
:10111000880C991C0A94E2F727FD04C0F601708040
:1011200078287082F980FF2041F0273034F4F601EE
:10113000E058FF4F8080982890821FEFA11AB10AD3
:101140003FEFC31AD30ADACFE40FF51FFD83EC8318
:1011500080589F4F2F5F3DCFEC81FD81E40FF51F3D
:10116000FD83EC83A40EB51E80589F4F2F5FE22FA6
:10117000E61BEE1508F010CFFC01E950FC4F6F01A3
:10118000912C812C801640F7F501E80DF91D649033
:10119000712C0A2E02C0660C771C0A94E2F7609448
:1011A0007094EC81FD81E80DF91D4490512C0A2EBC
:1011B00002C0440C551C0A94E2F727FD08C0F60152
:1011C0003080E32DE6213E2E3428F6013082F9806E
:1011D000FF2049F027303CF4F601E058FF4F6080D3
:1011E0007620752870821FEF811A910A3FEFC31A8B
:1011F000D30AC8CFE02FF0E089509C4FA0E8B0E0C0
:101200006D01CE1ADF0A4E1B5F0B4A01880C991C38
:10121000E1E0F0E05F01098002C0AA0CBB1C0A9467
:10122000E2F7B02E402F5E2DEC81FD81DC018601BE
:101230009401F980CF93DF93ED01EF96EF9622961C
:1012400065908590FF2059F06A9C30018A9C40018E
:1012500067302CF4C8809094C920C728C9926623AF
:101260003AF0CC908094C820C628CD920C943909CD
:1012700011964A9529F75A9551F04B2D63951124F3
:10128000E20FF11DA00FB11DC00FD11DD9CFDF910D
:10129000CF91112481CE90E00C94C6068FB1809539
:1012A000807F669B88601C9B846008959091DC031E
:1012B000982329F49091DD03982381E009F480E0DC
:1012C0000895CF93C82F0E944E09982F9C2381E048
:1012D0009C1380E0CF91089580389105B8F4603474
:1012E0007105A0F490E121E061FD24E060FD220F92
:1012F00062FD2295687F969FD0011124A80FA95006
:10130000BC4F0C90022A40FF02260C9208956F9267
:101310007F928F929F92AF92BF92CF92DF92EF9285
:10132000FF920F931F93CF93DF936D3089F0C0909E
:10133000C703D090C8036A30E1F41092CA03109238
:10134000C90388E0C80ED11CD092C803C092C7035D
:1013500081E090E0DF91CF911F910F91FF90EF908E
:10136000DF90CF90BF90AF909F908F907F906F90C5
:10137000089560900101E090C903F090CA03E5E090
:101380006E9FE0011124C354DE4F570100E010E0CE
:10139000053029F0CE010196FE011491EC014601C1
:1013A00088E0782E412F417010FD1BC0662021F08F
:1013B000B401C5010E946C0916957A94FFEF8F1A4B
:1013C0009F0A7110EFCF0F5F8FEFA81AB80A06308F
:1013D000F1F6E6E0EE0EF11CF092CA03E092C903CA
:1013E000B7CF462DE5CF682F8FEA98E00C94870998
:1013F000DF92EF92FF920F931F93CF93DF937C01C5
:10140000D22E8B01040F111DEB0177FF02C0D0E03B
:10141000C0E0C8010134110514F080E490E0C81761
:10142000D9073CF44D2DBE01C7010E946C092196DD
:10143000F0CFDF91CF911F910F91FF90EF90DF9050
:101440000895089590E080E00895CF92EF920F9371
:10145000CF938091DC0380959091DD03892319F06F
:1014600082E08093DE03E7EBF0E00491E8EBF0E04C
:10147000E49022E0C22E30E020E049EB50E061E150
:1014800070E080E290E00E9475078091D103909116
:10149000D20360E370E00E94151E8831B8F4C1E108
:1014A0008C3008F0CEE1E0EBF0E00491E1EBF0E00D
:1014B000E49092E0C92E30E020E042EB50E069E198
:1014C00070E08BE590E00E94750704C0CFE18432A4
:1014D00008F0C0E26C2F70E041E084E390E00E94ED
:1014E0006C09C0FD12C0ECEAF0E00491EDEAF0E016
:1014F000E49082E0C82E30E020E04EEA50E06CE15B
:1015000070E08DE290E00E947507CF910F91EF900F
:10151000CF900895AF92BF92CF92DF92EF92FF9259
:101520000F931F93CF93DF93109201018AEAE82E65
:1015300088E0F82EC3E2D0E092E3C92ED12C8E01D0
:10154000035011095E0188E0A80EB11C0A151B05A5
:1015500051F021E04BE060E370E0C8010E94F8091F
:101560000F5F1F4FF3CFD093CA03C093C903D0922C
:10157000C803C092C703F70181917F010E94F3095C
:101580002D96C436D105D9F681E080930101DF9113
:10159000CF911F910F91FF90EF90DF90CF90BF9070
:1015A000AF9008958F929F92AF92BF920F931F9327
:1015B000CF93DF93CDB7DEB7A1970FB6F894DEBF18
:1015C0000FBECDBF19A2423008F44AE08E010F5D74
:1015D0001F4F842E912CB12CA12CA50194010E94A7
:1015E000D81DE62FB901CA01EA3044F5E05DD80103
:1015F000EE938D01232B242B252B79F790E080E0AF
:10160000109769F0FD0101900020E9F73197AF01D3
:101610004A1B5B0BBD018FEA98E00E945F05A19613
:101620000FB6F894DEBF0FBECDBFDF91CF911F91F3
:101630000F91BF90AF909F908F900895E95CD7CFA6
:1016400041E050E06BEB73E08FEA98E00C945F05AB
:101650000F931F93CF93DF938C01EB010E947E1DAC
:101660008883C80101960E947E1D8983CE01DF9187
:10167000CF911F910F910895FF920F931F93CF93D6
:10168000DF93EC018B01FB01F0800E947E1DF816B8
:1016900021F06F2DCE010E94981DF801F180219656
:1016A000CE010E947E1DF81621F06F2DCE010E9402
:1016B000981DC801DF91CF911F910F91FF90089560
:1016C000CF93DF9300D000D0CDB7DEB71A82198256
:1016D0001C821B82BE016F5F7F4F81111EC083E59C
:1016E00090E00E94280B89819A8101969A838983D0
:1016F000BE016F5F7F4F83E590E00E943C0BBE010F
:101700006D5F7F4F85E590E00E943C0B0F900F903E
:101710000F900F90DF91CF9108958BE590E00E949C
:10172000280B89819A8101969A838983BE016F5F14
:101730007F4F8BE590E00E943C0BBE016D5F7F4FB9
:101740008DE590E0E1CFCF92DF92EF92FF926B01B7
:101750007C01C114D104E104F10441F00E94261D72
:10176000A70196010E94A61D6B017C01C701B6016D
:10177000FF90EF90DF90CF9008952F923F924F927D
:101780005F926F927F928F929F92AF92BF92CF9211
:10179000DF92EF92FF920F931F93CF93DF93CDB71A
:1017A000DEB7C155D1090FB6F894DEBF0FBECDBF6D
:1017B0008091470890914808892B61F4809100013D
:1017C000813009F45EC070F0823009F46EC083305D
:1017D00009F47AC023961FAE239700E010E0E12CB5
:1017E000F12C21C06091C60325E0629FB001112455
:1017F000072E000C880B645F724E8F4F0E94AD0560
:101800000E949805F82E0E94980523968FAF239783
:101810000E949805E82E0E949805182F0E949805AE
:10182000082F0E948C0584E00E946109882309F436
:1018300056C08091A9088F5F8093A908803419F45D
:1018400085E08093A8088091A808823009F490C0B0
:1018500008F048C0813009F45BC080E20E9456095C
:10186000882309F438C180914B08882309F42AC1E0
:10187000833008F030C180914A08811127C188E087
:1018800028C16091C60335E0639FB0011124072E83
:10189000000C880B765E8F4F0E94AD050E94980564
:1018A000F82E0E9498058195B0CFF090C6038F2D39
:1018B00066E00E94091E192F16951D5F23961FAE24
:1018C000239700E0E12CAFCF8091C60390E9F92E79
:1018D000F81A66E00E94091E192F1695EFCF109294
:1018E000A908B1CF843009F4DDC0853009F0B5CF47
:1018F00088E00E945609811105C084E00E945609C3
:10190000882389F08091A508882309F497C0D5C061
:1019100088E00E945609811104C084E00E945609A3
:1019200081111092A8088091470890914808892B4E
:1019300009F0F5C380910001813009F4C0C308F4B7
:1019400097C3843008F0EBC3812F90E0FC01EE0FC9
:10195000FF1FE80FF91FE45BFE4F208131814281B8
:1019600000E06DE270E0AF2DA051BB0BCD01D5C3FF
:1019700088E00E945609811105C084E00E94560942
:10198000882389F2D09049081BAE1AAE1EAA1DAA60
:101990001C8E1B8E1A821982BE01665C7F4FD1108D
:1019A00051C081E590E00E94280BBE016B5C7F4F27
:1019B00083E590E00E94280BBE01655E7F4F85E5C0
:1019C00090E00E94280BBE016F5F7F4F87E590E09B
:1019D0000E94280B8AAD9BAD01969BAF8AAF8DA963
:1019E0009EA901969EAB8DAB8B8D9C8D01969C8F95
:1019F0008B8F29813A812817390710F49A838983BC
:101A0000BE01665C7F4FD11035C081E590E00E9439
:101A10003C0BBE016B5C7F4F83E590E00E943C0B6A
:101A2000BE01655E7F4F85E590E00E943C0BBE01E4
:101A30006F5F7F4F87E590E00E943C0B86E08093CC
:101A4000DE0371CF89E590E00E94280BBE016B5C3C
:101A50007F4F8BE590E00E94280BBE01655E7F4FB3
:101A60008DE590E00E94280BBE016F5F7F4F8FE5F0
:101A700090E0AECF89E590E00E943C0BBE016B5C2C
:101A80007F4F8BE590E00E943C0BBE01655E7F4F6F
:101A90008DE590E00E943C0BBE016F5F7F4F8FE5AC
:101AA00090E0CACF88E00E945609811106C084E008
:101AB0000E945609882309F436CF809149080E9474
:101AC000600BBCCF80914A08882311F0815001C07F
:101AD00089E080934A0880E40E945609882371F0C7
:101AE00080914B08882309F491C0833038F48091A9
:101AF0004A08883008F48FC010924A0880E80E9493
:101B00006109882359F080914D08833038F0809125
:101B1000A60887FF03C08F5F8093A60880E80E9415
:101B20005609882359F080914D08811107C0809192
:101B30004B08811174C082E080934D0880E10E94BF
:101B40006109882391F080914D08833070F0809175
:101B5000A608E091A508F0E0E45BFD4F908198179E
:101B60000CF074C081508093A60880E10E94560951
:101B7000882361F080914D08811108C080914B0845
:101B8000882309F467C0813009F473C084E00E949F
:101B900056098823A9F0E091A408EE2389F0E150CA
:101BA000E093A4088091A50845E0849FC00111241A
:101BB000875B974FE80FF92FF11D80E2878F15AEF5
:101BC00088E00E945609882309F4ADCEA0914A0806
:101BD000A11151C080914B08823009F01FC2E091E1
:101BE000A408EE2309F49FCEE150E093A40880916D
:101BF000A50855E0859FC0011124875B974FE80F2A
:101C0000F92FF11D80E2878F15AE8DCE80914A08A5
:101C1000893008F071CF8F5F80934A086FCF813091
:101C200091F0823009F08ACF80914A08893039F4E6
:101C300081E080934B0888E080934A087FCF81E061
:101C400080934B087BCF10924B0878CF81E0809334
:101C50004D088BCF80914A08893039F481E0809318
:101C60004B0888E080934A0891CF81E080934B082D
:101C70008DCF82E0FBCFA83009F0D0C190914B0806
:101C8000923009F0CBC1E091A508AE2EB12C95E0C1
:101C9000E99FF001112430E020E0D901AE0FBF1F11
:101CA000A75BB74F5F969C91903209F43CCE2F5FB3
:101CB0003F4F2530310589F7DF01A859B74F3D0166
:101CC0006E01B5E3CB0ED11CBE01665C7F4F9E0159
:101CD0002F5F3F4F4AEA58E0D601260191E0F30119
:101CE00091903F019D92FA019190AF01F90191927B
:101CF0009F01F301958FA617B70789F7AE014F5FD4
:101D00005F4F3601F30121913F01FA019191AF013B
:101D1000291380E06A167B06A9F78823C9F085E0BD
:101D20008A9DF0018B9DF00D1124E75BF74F82E057
:101D300085AF86AF87AFDF01A05CBF4F8C93EF5BB1
:101D4000FF4F80838093A80883E18093A708EBCDA1
:101D5000FDA92196FFAF219780914908882351F171
:101D6000813009F455C01E0150E2250E311C0E943D
:101D700098055E018BE1A80EB11C45010E949805F3
:101D8000D4018D934D01A215B305C1F78B8D21961A
:101D9000BFAD2197B81738F08B1365C09C8D8EA905
:101DA000891708F060C00E948C0581E08093A80824
:101DB0008FE0CBCF21962FAD21972154330BC90152
:101DC0002AE1289FB001299F700D11248EA981540A
:101DD000990B680F791F072E000C880B645F7F4EEC
:101DE0008F4F660F771F881F0E94AD050E94A005C8
:101DF0005C010E948C0586E08A9DB0018B9D700D70
:101E0000112480E06855754D8F4F0E94AD05ABCF12
:101E100021964FAD21974154550B2AE1249FB001E3
:101E2000259F700D11248EA98154990B680F791F7D
:101E3000072E000C880B60557D4E8F4F660F771F65
:101E4000881F0E94AD050E94A0055C010E948C05C0
:101E500086E08A9DB0018B9D700D112480E0615F4A
:101E600078498F4FD2CFD601F50191918D9198137A
:101E70007ECFE815F905C9F76091A508E5E06E9FEA
:101E8000B00111249B01275B374FFE013196A6015B
:101E900081E090E0B2E09B2EA0E28A2EDA013D9034
:101EA000AD01A1913A1208C0D901A80FB91FDC9663
:101EB0009C92DF0111978C9201968630910571F703
:101EC000EAEAF8E02296FFAFEEAF22974B01F5E287
:101ED0008F1A9108F3E02F2EA0E23A2ED6014D91F1
:101EE0006D012296EEADFFAD229781912296FFAF54
:101EF000EEAF2297082E000C990B4817190601F136
:101F0000DE01119690E080E0A901480F591FFA0107
:101F100045AD423009F46BC0F50150814C9154132A
:101F200066C02296AEADBFAD2297A80DB91D2C920A
:101F300041E050E04C0F5D1F840F951FDC013C9287
:101F4000BFEFAB1ABB0AC614D70441F690E080E09D
:101F5000E4E0BE2ED901A80FB91FDD964C91DD97A4
:101F60004130A9F4F201E80FF91FC080D12CEAEA50
:101F7000F8E04191042E000C550BC416D50619F457
:101F8000DD96BC92DD9748E0EF3AF40791F70196B1
:101F900085309105F9F690E080E0F901E80FF91F2E
:101FA00045AD413041F4F201E80FF91FE081F0E066
:101FB000E35FF74F408301968530910571F7FB0190
:101FC000EA57F74F85E091E02191243019F4DF01C1
:101FD00011979C938150C1F783E08093A80880916A
:101FE000A508853059F484E08093A8089CCC01961C
:101FF00011968530910509F087CFA2CF1092A408E1
:1020000091E0980F9093A508923008F48CCC93EF50
:10201000899F802D11248093A60885CC8091A408E7
:10202000853008F080CCE091A50855E0E59FF001EF
:102030001124E75BF74FE80FF11D20914B089AE060
:10204000299F90011124225D3D4FA20FB32FB11D96
:102050009C919F5B978F8F5F8093A408853009F0D8
:1020600062CC88E080934A0882E080934B085BCC86
:102070000023A1F0A02FA150BB0BFD01EE0FFF1F0D
:10208000EA0FFB1FE059FE4F20813181428100E0C1
:102090006CE170E082E090E00E94CA05EF2DE05113
:1020A000FF0B6F01F1E0EF1228C000E02AEE39E1EA
:1020B00040E064E270E0C6010E94CA051EC0002331
:1020C000A1F0202F2150330BF901EE0FFF1FE20F7B
:1020D000F31FE059FE4F20813181428100E06CE125
:1020E00070E08AE690E00E94CA0588E890E06C0102
:1020F000CF18D10831E0E316C1F2812F90E0FC0146
:10210000EE0FFF1FE80FF91FE45BFE4F20813181C6
:10211000428100E06DE270E0C6010E94CA05809134
:10212000A608512C25E0422EFE013196FDAFECAF02
:10213000882E880F990894012E5F3F4F2E963FAF4F
:102140002EAF2E97A4014250510960965FAF4EAF5B
:10215000609723968FAD2397082E000C990B6296FB
:102160009FAF8EAF6297DE011696BFAFAEAF909174
:10217000A5088091A808951508F457C1ECADFDADF0
:10218000242D11922A95E9F7813029F0823009F443
:1021900093C020E00AC09511FCCFE091A708EE2380
:1021A000C1F3F0E0EA58FE4F20813DE0539EC001AC
:1021B00011242E964EAD5FAD2E97480F591F2896CD
:1021C0005FAF4EAF2897DC01A80DB91D2696BFAFB3
:1021D000AEAF26970D966096EEADFFAD6097E80F17
:1021E000F91F2C96FFAFEEAF2C97549CC001112421
:1021F000AC01475B574F1A01CE01019622969FAF63
:102200008EAF22976296EEACFFAC6297E20EF11CA5
:1022100027FDFA942296AEADBFAD22970D9122967E
:10222000BFAFAEAF2297002E000C110B28966EACFC
:102230007FAC2897600E711E6701B3E2CB0ED11CF4
:10224000F10185AD823009F46EC0833009F490C08D
:102250008111DAC081E080930101D092CA03C0925B
:10226000C9037092C8036092C703878D0E94F30967
:102270002C96EEADFFAD2C970E0F1F1F41E0B8015D
:10228000C70181960E946C0941E0B801C6010E9415
:102290006C0941E0B801C70185960E946C0941E0D4
:1022A000B801C70187960E946C0941E0B801C701D7
:1022B00089960E946C0993C095116BCFE091A70895
:1022C0008FEF8E0F8E3030F4AE2FB0E0AA58BE4F95
:1022D0008C9189838EEF8E0F8E3030F4AE2FB0E06C
:1022E000AB58BE4F8C918A838DEF8E0F8E3030F4B9
:1022F000AE2FB0E0AC58BE4F8C918B838CEF8E0F1D
:102300008E3030F4AE2FB0E0AD58BE4F8C918C8340
:102310008BEF8E0F8E3008F03CCFF0E0EE58FE4F82
:1023200080818D8336CF1092010126962EAD3FAD70
:102330002697020F131F570130E2A30EB11CA7010D
:10234000455D5F4F2A965FAF4EAF2A972A968EADB6
:102350009FAD2A978A159B0509F459C021E04BE0EF
:10236000B801C5010E94F8099FEFA91AB90AEECF7A
:1023700081E080930101D092CA03C092C903709298
:10238000C8036092C703878D0E94F30926962EAD7D
:102390003FAD2697020F131F670130E2C30ED11C19
:1023A0000034110528F44BE0B801C6010E94C603B1
:1023B000B801665F7F4F6034710520F44BE0C601C1
:1023C0000E94C60321E04BE0B801C6010E94F80953
:1023D00021E04BE0B801C7018A960E94F809BFEFDF
:1023E0002B1A3B0AEDE0EE0EF11C22962EAD3FAD0E
:1023F00022974EAD5FAD2417350709F00BCF81E072
:10240000809301015394B3CE81E080930101D09277
:10241000CA03C092C9037092C8036092C703D10176
:102420005F968C910E94F309DACF823009F4D2C012
:1024300008F03EC0813009F4B6C010914C082396D4
:102440008FAD23978D5E9AE1E3E1F1E0DE015B96CB
:1024500001900D929A95E1F79AE1EDE2F1E0DE014B
:10246000119601900D929A95E1F7812E912C3401ED
:102470005FEF651A750AE82EF12CC70101972696C1
:102480009FAF8EAF26979EE5C92ED12C57019DE5B3
:10249000A90EB11CC5018C199D09A1E0CA1AD10869
:1024A00009F4C7C020E042E3B3010E94F809F2CF6B
:1024B000843009F49FC010E000E0853009F0BDCF02
:1024C00020E040E263E270E0C8010E94F8090F5F7B
:1024D0001F4F00381105A1F78091490800E08111D4
:1024E000A0C028E838E040E065E270E08DE190E0CF
:1024F0000E94CA050E948A0A80914D08813009F421
:102500008DC1823099F480914C088F5F80934C0884
:102510009091A508923028F09091A6089F5F909323
:10252000A608803419F483E080934D082091A70811
:102530008091D1039091D203222329F080FD03C022
:1025400021502093A70863E070E00E94151E892B9C
:1025500081F48091470890914808009709F472C16E
:1025600001979093480880934708892B11F41092A3
:10257000C603CF5ADF4F0FB6F894DEBF0FBECDBFF4
:10258000DF91CF911F910F91FF90EF90DF90CF904F
:10259000BF90AF909F908F907F906F905F904F9083
:1025A0003F902F9008958091490800E081110AC062
:1025B00020E236E040E060E370E087E190E00E94D6
:1025C000CA059ACF28EC36E040E060E370E085E091
:1025D00090E0F5CF8091490800E02CEB35E040E039
:1025E000882319F02EEE35E040E060E370E089E2E8
:1025F00090E0E5CF0E948A0A8091490800E08111AD
:1026000008C028EB37E040E065E270E082E190E04E
:10261000D6CF28E138E040E065E270E08AE090E063
:10262000CECF22ED38E040E065E270E080E290E05D
:102630005FCFFE017B962296FFAFEEAF22979E0101
:102640002F5F3F4F24963FAF2EAF249789E4282E6B
:1026500088E0382E512C412C2296AEADBFAD22978A
:102660008D912296BFAFAEAF229781502496EEADEA
:10267000FFAD249791912496FFAFEEAF24972FEFF3
:10268000290FF9E08F9FC02C112434E0923008F418
:1026900030E0C30E933009F0A1C09EEF3AE0239FD3
:1026A000A02C1124B12C4FEFA41AB40AA80CB91C09
:1026B000C90ECE0CDF2CD11C90914A08891390C012
:1026C00080914B0828138CC080914D08811188C0DF
:1026D000F201E652FE4F20813181428101E0B501D5
:1026E000C6010E94CA0580914B0820914A085AE011
:1026F000589FC0011124825D9D4F820F911DDC0106
:10270000EC91F0E0E75BF74F858100E124E635E0EE
:1027100040E0813019F420E935E040E0B501C60120
:102720000E94CA05FFEF2F1A3F0A23E0420E511CF8
:102730003EE44316510409F08FCF640145E1C40E15
:10274000D11C80914A0801E0811107C080914B089B
:1027500022E235E040E0823019F020E732E040E04C
:10276000B601C7010E94CA05C701865B9F4F209131
:102770004A0801E0283009F042C020914B0822307D
:10278000F1F52EE335E040E0B6010E94CA051034B1
:1027900028F44BE5B401C7010E94C60321E042E3DF
:1027A000B30126968EAD9FAD26970E94F80921E0D1
:1027B00042E3B301C701855A9F4F0E94F8098091F7
:1027C0004D08823000F1843008F096CEB401645098
:1027D000710901E02FE231E140E01CC090E05ECFE2
:1027E000F1018581F201811107C0EA57FE4F208176
:1027F0003181428101E092CFE652FE4FF8CF2CE8C2
:1028000032E040E0C1CFB4016450710901E026E23A
:1028100031E140E0C7018A5A9F4FD1CE80914C08E8
:10282000815080934C089091A508923028F09091A7
:10283000A60891509093A608813209F077CE1092A5
:102840004D0874CE809100018130D1F1F8F08230D2
:1028500009F44EC0833009F08CCE8091C6038F5F9F
:102860008093C603813908F484CE6CE474E080E080
:1028700090E00E94A30B60577E4F8F4F9F4F709345
:102880004808609347081092000173CE8091C603F8
:102890008F5F8093C6038C3908F46BCE6CE474E0D0
:1028A00080E090E00E94A30B60577E4F8F4F9F4FB8
:1028B000709348086093470882E08093000159CEE6
:1028C0008091C6038F5F8093C6038C3908F451CE84
:1028D0006CE474E080E090E00E94A30B60577E4FB0
:1028E0008F4F9F4F709348086093470883E0E5CF70
:1028F0008091C6038F5F8093C603813908F439CE77
:102900006CE474E080E090E00E94A30B60577E4F7F
:102910008F4F9F4F709348086093470881E0CDCF59
:102920000F93CF93DF9300D000D000D0CDB7DEB7A8
:1029300088E00E945609882319F084E08093DE0322
:1029400080E20E945609882359F08091490881301D
:1029500039F41092490860E080E590E00E94861DFD
:1029600080E40E945609882361F080914908811112
:1029700008C081E08093490861E080E590E00E9412
:10298000861D84E00E945609882319F086E0809312
:10299000DE03DE01119686E0FD0111928A95E9F7CA
:1029A0008091D9038111B2C0E091DA03EA0FFB2FC5
:1029B000F11D8091DB0381508083E9818E2F90E0AF
:1029C000FC01EE0FFF1FE80FF91FE05AFC4F2081BA
:1029D0003181428101E06BE070E08EE090E00E9486
:1029E000CA05EA818E2F90E0FC01EE0FFF1FE80F71
:1029F000F91FE65DFC4F2081318142816BE070E080
:102A00008FE190E00E94CA05EB818E2F90E0FC01DF
:102A1000EE0FFF1FE80FF91FEC50FD4F20813181B1
:102A200042816BE070E080E390E00E94CA05EC8197
:102A30008E2F90E0FC01EE0FFF1FE80FF91FE2540C
:102A4000FD4F2081318142816BE070E081E490E0B4
:102A50000E94CA05ED818E2F90E0FC01EE0FFF1F52
:102A6000E80FF91FE857FD4F2081318142816BE06B
:102A700070E082E590E00E94CA05EE818E2F90E022
:102A8000FC01EE0FFF1FE80FF91FEE5AFD4F2081EA
:102A9000318142816BE070E083E690E00E94CA05DC
:102AA00028E331E140E06DE170E090E080E00E94D9
:102AB000CA05809149088823D1F18AE490E001E0B9
:102AC0002EE131E140E06FE270E00E94CA058091A2
:102AD000DB03882389F081508093DB0381110CC0D4
:102AE00068EA70E080E090E00E94A30B605E7F4F98
:102AF0008F4F9F4F6093D90326960FB6F894DEBF91
:102B00000FBECDBFDF91CF910F910895815080937B
:102B1000D903811152CF66E070E080E090E00E941E
:102B2000A30B6093DA0383E18093DB0346CF80E15C
:102B300090E0C5CFEF92FF920F931F93CF93DF9357
:102B400000D0CDB7DEB7F82E162F042F8EE490E01C
:102B50000E947E1DE82E8FE490E00E947E1D1A8266
:102B60001982F11006C09CE4E91203C0853409F40F
:102B700050C06CE48EE490E00E94861D65E48FE412
:102B800090E00E94861D612F80E590E00E94861DE6
:102B9000FF2009F44FC0111148C0BE016F5F7F4F85
:102BA00081E590E00E943C0BBE016F5F7F4F83E5A3
:102BB00090E00E943C0BBE016F5F7F4F85E590E087
:102BC0000E943C0BBE016F5F7F4F87E590E00E9443
:102BD0003C0BFF2039F1113029F5BE016F5F7F4FAB
:102BE00089E590E00E943C0BBE016F5F7F4F8BE553
:102BF00090E00E943C0BBE016F5F7F4F8DE590E03F
:102C00000E943C0BBE016F5F7F4F8FE590E00E94FA
:102C10003C0B0F900F90DF91CF911F910F91FF9080
:102C2000EF9008950111D9CFF4CF0111B6CF113033
:102C300081F7D3CF0111B1CFECCFEF92FF920F9379
:102C4000CF93DF93CDB7DEB728970FB6F894DEBFEA
:102C50000FBECDBF1A8219821C821B821E821D826A
:102C600018861F8280914908BE016F5F7F4F8111D6
:102C7000E1C081E590E00E94280BBE016D5F7F4FAF
:102C800083E590E00E94280BBE016B5F7F4F85E5D6
:102C900090E00E94280BBE01695F7F4F87E590E0BE
:102CA0000E94280B6B817C81F12CE12C6115710550
:102CB00059F029813A8144E6429FC001439F900D1B
:102CC00011240E94151E7B0188E00E94560988236A
:102CD00019F082E08093DE0384E00E94610988237A
:102CE00009F4C0C08091A9088F5F8093A90880343F
:102CF00031F440E06091490881E00E949A1580918A
:102D0000490800E026E139E040E0882319F02AE193
:102D10003DE040E070E060E090E080E00E94CA05A5
:102D20008FE190E09093CA038093C9038EE090E016
:102D30009093C8038093C7038B819C81843691054F
:102D400010F40E94200B8B819C810A9710F40E9442
:102D5000200B6B817C8190E080E04AE00E94D20AE7
:102D600084E590E09093CA038093C9038EE090E0DD
:102D70009093C8038093C70384E6E816F10440F4F7
:102D80000E94200B8AE0E816F10410F40E94200B48
:102D9000B70190E080E04AE00E94D20A8FE190E023
:102DA0009093CA038093C90387E290E09093C8038D
:102DB0008093C7038D819E818436910510F40E9413
:102DC000200B8D819E810A9710F40E94200B6D814B
:102DD0007E8190E080E04AE00E94D20A84E590E0A3
:102DE0009093CA038093C90387E290E09093C8034D
:102DF0008093C7038F8198858436910510F40E94D3
:102E0000200B8F8198850A9710F40E94200B6F8108
:102E1000788590E080E04AE00E94D20A28960FB6BA
:102E2000F894DEBF0FBECDBFDF91CF910F91FF9021
:102E3000EF90089589E590E00E94280BBE016D5F38
:102E40007F4F8BE590E00E94280BBE016B5F7F4FA8
:102E50008DE590E00E94280BBE01695F7F4F8FE5F2
:102E600090E01ECF1092A9084ACF1F920F920FB682
:102E70000F9211248F939F938091E1009091E10034
:102E8000937F9093E10083FF0FC01092E90091E0DF
:102E90009093EB001092EC0092E39093ED0010926F
:102EA000F40398E09093F00082FF22C093E09093A7
:102EB000E9009091F200992319F09AE39093E800C9
:102EC0009091E503992341F09091E50391509093FF
:102ED000E503911101C05D9A9091F303992341F0AC
:102EE0009091F30391509093F303911101C0289AAC
:102EF00084FF18C08091E2008E7E81608093E200A2
:102F00008091E1008F7E8093E1008091E6038E7EC8
:102F100080618093E6039F918F910F900FBE0F9079
:102F20001F90189580FFF7CF8091E2008E7E806120
:102F30008093E2008091E1008E7E8093E100809199
:102F4000E6038E7E8160E5CF1F920F920FB60F923F
:102F50001124CF92DF92EF92FF920F931F932F9342
:102F60003F934F935F936F937F938F939F93AF9311
:102F7000BF93EF93FF93CF93DF93CDB7DEB76C97FB
:102F8000DEBFCDBF1092E9008091E80083FF25C02D
:102F900068E0CE0145960E94520582EF8093E800DA
:102FA0008D8987FF39C09091E80090FFFCCF982F62
:102FB000907609F034C19E894F89588D2F89F88CFD
:102FC000911131C0803861F58091E4038093F10064
:102FD0001092F1008EEF8093E8006C960FB6F89493
:102FE000DEBF0FBECDBFDF91CF91FF91EF91BF91BB
:102FF000AF919F918F917F916F915F914F913F9191
:103000002F911F910F91FF90EF90DF90CF900F9035
:103010000FBE0F901F9018959EEF9093E800C7CFBA
:103020001092F100D5CF913059F48111D3CF4130B6
:10303000510581F68091E4038D7F8093E403CACF2C
:10304000933049F48111C6CF4130510519F6809172
:10305000E4038260F2CF953041F48091E80080FF74
:10306000FCCF20682093E300B5CF963009F0A9C0CB
:103070000B8D1C8D22E01092E9001092E203109259
:10308000E103F2122EC01092E0031092DF030E94BF
:1030900021051F8299E09983FA8291E09E8390EA4C
:1030A00098879AEF99872091E1033091E203275F97
:1030B0003F4F3C832B838D831092E9001092E203F3
:1030C0001092E1031093E0030093DF0349E050E026
:1030D000BE016F5F7F4F80E00E94FB040E942105CC
:1030E00079CF1093E0030093DF030E943804DC01E2
:1030F00012960D911C910115110509F451C1D801C9
:10310000ED91FC910480F581E02DBE016B5E7F4F57
:10311000C8010995009709F03EC1F80100851185A5
:10312000EACFF3E0FF120EC08F89882309F440C074
:10313000823061F440E867E08EE297E00E94201A56
:10314000811148CF81E28093EB0047CF813029F491
:1031500040E86BE082E297E0F1CF833099F70E947C
:103160003804DC011296ED90FC908E010F5F1F4F2A
:103170006801E114F10479F0D701ED91FC9106802A
:10318000F781E02DB801C7010995080F111DF7015E
:10319000E084F184EECFD8011C92F601019000206A
:1031A000E9F73197BF016C197D0940E0C601C6CF30
:1031B0006CE077E0FB01449150E080E80E94FB0462
:1031C00009CF973009F4BECF983021F481E0809385
:1031D000F10000CF993009F0FDCE837009F0B2CF35
:1031E000E7E9F3E081E031E096E32191222371F0F9
:1031F0008093E9003093EB00DF0111972C9120932D
:10320000EC009093ED008F5F873079F78EE7809325
:10321000EA001092EA008F898093F403DBCE8B8D55
:103220009C8D1092E9001092E2031092E1039093BA
:10323000E0038093DF03898D811192C08E899D897F
:10324000913A49F4813209F07DCF47E050E067E0E0
:1032500071E080E0B3CF913209F074CF833269F42A
:103260008F89988DB0E0A0E08093030190930401D2
:10327000A0930501B0930601ADCE803269F4809130
:10328000E80082FFFCCF67E087E091E00E945205F2
:103290008BEF8093E8009ECE823209F09BCE8F891F
:1032A00080930E01EEEFFFE7859194918B3F9C4D4B
:1032B00051F1E0E0F8E08091070190910801A091C0
:1032C0000901B0910A01803B9440A105B105F1F4D8
:1032D00080910E0180FD1AC0EE3F8AE0F80789F563
:1032E00087E797E791838083809160008093E30371
:1032F00088E19BE00FB6F894A895809360000FBE1C
:103300009093600067CEEEEFFAE0D5CF8081918197
:103310008737974709F05ECEA89580916000886155
:10332000809360008091E30380936000EE3F2AE089
:10333000F20789F08091FE0A9091FF0A91838083C1
:1033400049CE808191818737980751F29093FF0A87
:103350008093FE0AC5CF1092FF0A1092FE0A3ACE61
:103360000E943804DC0112960D911C910115110583
:1033700009F4E8CED801ED91FC910190F081E02DA7
:10338000BE016B5E7F4FC8010995811123CEF80104
:1033900000851185EBCF181619060CF41BCED2CE82
:1033A000F1E0FF12BECE60E177E004CF0F920FB6DE
:1033B0008F939F93EF93FF938091CC038D5F8D3715
:1033C00008F08D578093CC03E5EDF3E080818E4FBC
:1033D000808391819F4F918382818F4F82838381EC
:1033E0008F4F8383EDECF3E080818F5F8083818159
:1033F0008F4F818382818F4F828383818F4F83831D
:103400008FB18F6066991C9B88278F3681F48091DD
:10341000CB03981B963068F0E0E0F8E087E7808304
:10342000818388E180936000F0936000FFCF9093E8
:10343000CB03FF91EF919F918F910FBE0F90189545
:10344000EF92FF920F931F93CF93DF93F82E192FD4
:10345000E62E042F81E0860F880F0E94CD0483E0C2
:103460000E94CD04CF2DD12FEC0EFD2EF11CCE15D8
:10347000DF05B9F007FF13C0FE0184910E94CD045F
:10348000182F80E00E94CD04812321968111EFCF77
:10349000DF91CF911F910F91FF90EF900895888158
:1034A000EDCF81E0F5CFE7EFF7E01382128288EEEF
:1034B00093E0A0E0B0E084839583A683B78381EA9C
:1034C00093E0918380838FEF9FEF95878487EFEA66
:1034D000F8E01382128283EB93E091838083E9E426
:1034E000F8E010821182128281E283831092A40894
:1034F0001092A5081092A6081092A7081092A8088A
:103500001092A90885E0E7E4F1E0AAEAB8E00190AA
:103510000D928A95E1F76CE474E080E090E00E94FF
:10352000A30B60577E4F8F4F9F4F70934808609357
:1035300047080895789483E084BD83E085BD81E0E9
:1035400080936E00E1E8F0E083E08083E0E881E0D2
:103550008083E1E983E08083E0E981E08083E1EC3E
:1035600087E08083E3EC81E08083E0EC82E080838D
:10357000E2EC81E08083EAE787E0808380688083F3
:103580001092F4031092E4031092E6038091D700A6
:1035900081608093D70080EA8093D80089B58061EC
:1035A00089BD89B5826089BD09B400FEFDCF81E087
:1035B00090E00E94C6068091D8008F7C8061809345
:1035C000D8008091E000807F8093E0008091E1004E
:1035D0008E7E8093E1008DE08093E200559A209AE0
:1035E00081EC80937C0081EF85B987EE84B982E31A
:1035F0008BB982EF8AB9769A6E9880EF81BB10BA48
:1036000080E58CBD81E08DBD85E00E944B095F9A0D
:1036100085E00E944B095C98EDEBF6E085918EBD4C
:1036200000000DB407FEFDCFEA3CC1F75C9A81E8CB
:103630008093640081E08093650080E80E946109C6
:103640008823A9F05C9885EA8EBD00000DB407FEC2
:10365000FDCF5C9A2E982F982D98809164008062FF
:103660008093640081E083BF889513BEFCCF84E023
:103670000E946109882309F443C02D9884E80E94C0
:1036800061098823D1F02D9A88EC0E944B092F986C
:1036900082E090E00E947E1D8F3F29F06FEF82E074
:1036A00090E00E94981D84EF91E00E94C6062F9A38
:1036B00084E80E9461098111FBCF84E10E946109C5
:1036C0008823D1F02D9A88EC0E944B092E9882E035
:1036D00090E00E947E1D882329F060E082E090E067
:1036E0000E94981D84EF91E00E94C6062E9A84E104
:1036F0000E9461098111FBCF88EC0E944B09B7CF72
:103700002D9A80E180930201809164008E7F8093E6
:10371000640080917A00806480937A0080917A00BE
:1037200086FDFCCFC0917800D09179000E945D07A2
:10373000AB01BC01CE01B0E0A0E0DC0199278827F5
:103740008C019D01040F151F261F371FC901B801E9
:10375000209164002160209364006115710581054A
:10376000910511F00E94751D5E9A5E9AE4E1F0E009
:10377000859194918831954909F043C0E6E1F0E0E4
:103780008491E7E1F0E0E491F82FF093F603E09301
:10379000F50359988BEA0E94A605599A41E060E02A
:1037A00080E00E949A1580E590E00E947E1D809343
:1037B00049086624639431EDE32E33E0F32E47EF9E
:1037C000C42E43E0D42E58E6A52E58E0B52E0FEABD
:1037D00018E060E0862E60E0962E5524539480E237
:1037E000782E95E0392E23E0422E8091D303882352
:1037F00079F01092D30381149104B9F30E94000070
:10380000EECF83E29FEF9093F6038093F503C1CF51
:103810009091D5038091D403292F281B822F2091CA
:103820000201821738F48F5F821728F763BE8895EC
:1038300013BEE1CF5092D3039093D403F70180815C
:1038400091810196808391838091DD038093DC03D5
:103850000E944E098093DD03E091DE03E83088F496
:10386000F0E0EB5CF34E0C94291E3D1C3F1C511CF8
:103870005F1C621C8B1CD41CD71C5092DE030E9460
:10388000250A5E98F60180E098E000800EBC611089
:10389000012C019780FDFDCF0192B9F70DB45E9A1E
:1038A000AACF4092DE0360E270E080E090E00E94E8
:1038B000A30B605F7F4F8F4F9F4F6093D9030E9490
:1038C0009014DFCF1092A8081092A908EEE4F8E057
:1038D0001192AE16BF06E1F7E8E6F8E07082168EA8
:1038E0007182178E728210A2738211A2748212A248
:1038F000359638E0E638F30789F71092A40810925D
:10390000A5081092A6083092DE038091490888230A
:1039100029F0813041F10E94BD0BB3CF61E17AE023
:1039200080E090E00E94A30BAB01BC0196E0862FE3
:10393000BA010E942F1E842FB9016855754D8F4F13
:103940000E94AD050E949805282ECAEAD8E00E9480
:10395000980589930C171D07D1F70E948C0581E00B
:103960002812DCCFD8CF66EA73E180E090E00E94B5
:10397000A30BAB01BC0196E0862FBA010E942F1E5B
:10398000842FB901615F78498F4F0E94AD050E9475
:103990009805CAEAD8E00E94980589930C171D077C
:1039A000D1F70E948C05B7CF27E02093DE030E9459
:1039B0001D1667CF8F929F92AF92BF92CF92DF92E8
:1039C000EF92FF92CF93DF93EC01688179818A8136
:1039D0009B81611571058105910521F464E279ED02
:1039E0008BE597E02DE133EF41E050E00E94A61D0A
:1039F00049015A019B01AC01A7EAB1E40E94C51D2F
:103A00006B017C01ACEEB4EFA50194010E94D31DC3
:103A1000C60ED71EE81EF91EF7FE06C081E0C81AC2
:103A2000D108E10880E8F80AC882D982EA82FB82DC
:103A3000C701B6019F77DF91CF91FF90EF90DF90A4
:103A4000CF90BF90AF909F908F9008958F929F924C
:103A5000AF92BF92CF92DF92EF92FF9260910F01EF
:103A60007091100180911101909112016115710501
:103A70008105910521F464E279ED8BE597E02DE174
:103A800033EF41E050E00E94A61D49015A019B011D
:103A9000AC01A7EAB1E40E94C51D6B017C01ACEE4C
:103AA000B4EFA50194010E94D31DC60ED71EE81ED7
:103AB000F91EF7FE06C081E0C81AD108E10880E8C7
:103AC000F80AC0920F01D0921001E0921101F09219
:103AD0001201C701B6019F77FF90EF90DF90CF9062
:103AE000BF90AF909F908F90089560930F01709357
:103AF000100180931101909312010895F999FECF5E
:103B000092BD81BDF89A992780B50895262FF9991D
:103B1000FECF92BD81BDF89A019700B4021639F02C
:103B20001FBA20BD0FB6F894FA9AF99A0FBE0895FD
:103B3000262FF999FECF1FBA92BD81BD20BD0FB6C9
:103B4000F894FA9AF99A0FBE01960895052E97FBFC
:103B50001EF400940E94BD1D57FD07D00E94D81D81
:103B600007FC03D04EF40C94BD1D50954095309544
:103B700021953F4F4F4F5F4F0895909580957095D9
:103B800061957F4F8F4F9F4F08950E94FA1DA59F0B
:103B9000900DB49F900DA49F800D911D1124089548
:103BA000B7FF0C94C51D0E94C51D821B930B089581
:103BB000A1E21A2EAA1BBB1BFD010DC0AA1FBB1F31
:103BC000EE1FFF1FA217B307E407F50720F0A21BA3
:103BD000B30BE40BF50B661F771F881F991F1A9410
:103BE00069F760957095809590959B01AC01BD013A
:103BF000CF010895A29FB001B39FC001A39F700D94
:103C0000811D1124911DB29F700D811D1124911DE4
:103C10000895991B79E004C0991F961708F0961B28
:103C2000881F7A95C9F780950895AA1BBB1B51E19F
:103C300007C0AA1FBB1FA617B70710F0A61BB70B1C
:103C4000881F991F5A95A9F780959095BC01CD01C1
:103C50000895EE0FFF1F0590F491E02D0994699FE0
:103C60009001899F402D799F300D411D112497FFB0
:0C3C70000895361B470B0895F894FFCF11
:103C7C00030110FFFFFFFF00E10000000000000146
:103C8C0000000001060403030405060807080908E0
:103C9C0007090A01040205070502030602020303D1
:103CAC0002010202020102020203030101010102EC
:103CBC00010103010301032020202020841800A30C
:103CCC001800C218000019001F19003E19005D19D8
:103CDC00007C1900BA1900D21900E118009B1900D8
:103CEC00BA1900D219000001020100FFFEFF000109
:103CFC00020100FFFEFF0000001800003000004829
:103D0C000000600000780000900000A80000C000D7
:103D1C0000D80000F000000801002001003801006C
:103D2C00500100680100800100980100B00100C83A
:103D3C000100E00100F8010010020028020040021E
:103D4C00005802007002008C0200B20200CA02008D
:103D5C00E20200FA02001203002A03004203005A96
:103D6C0003007203008A0300A20300BA0300D2030B
:103D7C0000EA03000204001A04003204004A0400A2
:103D8C006204007A0400920400AA0400C20400DA5F
:103D9C000400F204000A05002205003E050010167E
:103DAC000411131814080E0F001203050607090A54
:103DBC000BFF1A19170215010D0C1BFF0000120541
:103DCC00FAEC641600861600A81600CA1600B8177E
:103DDC0000DA1700FC17001E1800401800621800CB
:103DEC004018001E1800FC1700DA1700B81700CA9C
:103DFC001600A81600861600DC1500FE150020160D
:103E0C0000421600EC16000E170030170052170077
:103E1C007417009617007417005217003017000E15
:103E2C001700EC1600421600201600FE1500541563
:103E3C0000761500981500BA1500B81700DA1700AF
:103E4C00FC17001E18004018006218004018001ED5
:103E5C001800FC1700DA1700B81700BA15009815EF
:103E6C0000761500CC1400EE14001015003215006D
:103E7C00EC16000E1700301700521700741700963E
:103E8C0017007417005217003017000E1700EC16AD
:103E9C0000321500101500EE1400441400661400D6
:103EAC00881400AA1400B81700DA1700FC17001EBB
:103EBC0018004018006218004018001E1800FC176B
:103ECC0000DA1700B81700AA140088140066140052
:103EDC00BC1300DE1300001400221400EC16000EBC
:103EEC00170030170052170074170096170074173C
:103EFC00005217003017000E1700EC1600221400A9
:103F0C00001400DE130000C18081000000000000DE
:103F1C00004C04DA066D046204B30471048F0400CF
:0E3F2C0000000087095F05220A210A3000000C
:00000001FF
